{
  "_format": "hh-sol-artifact-1",
  "contractName": "ComplexFunctions",
  "sourceName": "contracts/ComplexFunctions.sol",
  "abi": [
    {
      "anonymous": false,
      "inputs": [
        {
          "indexed": false,
          "internalType": "bool",
          "name": "",
          "type": "bool"
        },
        {
          "indexed": false,
          "internalType": "bytes",
          "name": "",
          "type": "bytes"
        }
      ],
      "name": "CallResponseEvent",
      "type": "event"
    },
    {
      "inputs": [
        {
          "internalType": "address",
          "name": "acc1",
          "type": "address"
        },
        {
          "internalType": "address",
          "name": "acc2",
          "type": "address"
        },
        {
          "internalType": "address",
          "name": "treasury",
          "type": "address"
        },
        {
          "internalType": "bytes[]",
          "name": "metadata",
          "type": "bytes[]"
        }
      ],
      "name": "nftLifecycle",
      "outputs": [],
      "stateMutability": "payable",
      "type": "function"
    },
    {
      "inputs": [
        {
          "internalType": "address",
          "name": "token",
          "type": "address"
        },
        {
          "internalType": "bytes",
          "name": "encodedFunctionSelector",
          "type": "bytes"
        }
      ],
      "name": "redirectForToken",
      "outputs": [
        {
          "internalType": "int256",
          "name": "responseCode",
          "type": "int256"
        },
        {
          "internalType": "bytes",
          "name": "response",
          "type": "bytes"
        }
      ],
      "stateMutability": "nonpayable",
      "type": "function"
    },
    {
      "inputs": [
        {
          "internalType": "address",
          "name": "acc1",
          "type": "address"
        },
        {
          "internalType": "address",
          "name": "acc2",
          "type": "address"
        },
        {
          "internalType": "address",
          "name": "treasury",
          "type": "address"
        }
      ],
      "name": "tokenLifecycle",
      "outputs": [],
      "stateMutability": "payable",
      "type": "function"
    },
    {
      "inputs": [
        {
          "internalType": "address",
          "name": "token",
          "type": "address"
        },
        {
          "internalType": "address",
          "name": "from",
          "type": "address"
        },
        {
          "internalType": "address",
          "name": "to",
          "type": "address"
        },
        {
          "internalType": "uint256",
          "name": "amount",
          "type": "uint256"
        }
      ],
      "name": "transferFrom",
      "outputs": [
        {
          "internalType": "int64",
          "name": "responseCode",
          "type": "int64"
        }
      ],
      "stateMutability": "nonpayable",
      "type": "function"
    },
    {
      "inputs": [
        {
          "internalType": "address",
          "name": "token",
          "type": "address"
        },
        {
          "internalType": "address",
          "name": "from",
          "type": "address"
        },
        {
          "internalType": "address",
          "name": "to",
          "type": "address"
        },
        {
          "internalType": "uint256",
          "name": "serialNumber",
          "type": "uint256"
        }
      ],
      "name": "transferFromNFT",
      "outputs": [
        {
          "internalType": "int64",
          "name": "responseCode",
          "type": "int64"
        }
      ],
      "stateMutability": "nonpayable",
      "type": "function"
    }
  ],
  "bytecode": "0x608060405234801561000f575f5ffd5b506001805f5f6006811115610027576100266101b6565b5b6006811115610039576100386101b6565b5b81526020019081526020015f2081905550600260015f60016006811115610063576100626101b6565b5b6006811115610075576100746101b6565b5b81526020019081526020015f2081905550600460015f6002600681111561009f5761009e6101b6565b5b60068111156100b1576100b06101b6565b5b81526020019081526020015f2081905550600860015f600360068111156100db576100da6101b6565b5b60068111156100ed576100ec6101b6565b5b81526020019081526020015f2081905550601060015f60046006811115610117576101166101b6565b5b6006811115610129576101286101b6565b5b81526020019081526020015f2081905550602060015f60056006811115610153576101526101b6565b5b6006811115610165576101646101b6565b5b81526020019081526020015f2081905550604060015f60068081111561018e5761018d6101b6565b5b60068111156101a05761019f6101b6565b5b81526020019081526020015f20819055506101e3565b7f4e487b71000000000000000000000000000000000000000000000000000000005f52602160045260245ffd5b613e10806101f05f395ff3fe608060405260043610610049575f3560e01c806315dacbea1461004d578063618dc65e146100895780638acb1e70146100c65780639b23d3d9146100e2578063b046226e1461011e575b5f5ffd5b348015610058575f5ffd5b50610073600480360381019061006e9190612507565b61013a565b6040516100809190612586565b60405180910390f35b348015610094575f5ffd5b506100af60048036038101906100aa91906126db565b610252565b6040516100bd9291906127ad565b60405180910390f35b6100e060048036038101906100db91906127db565b6103a7565b005b3480156100ed575f5ffd5b5061010860048036038101906101039190612507565b610a38565b6040516101159190612586565b60405180910390f35b6101386004803603810190610133919061290d565b610b50565b005b5f5f5f61016773ffffffffffffffffffffffffffffffffffffffff166315dacbea60e01b8888888860405160240161017594939291906129ab565b604051602081830303815290604052907bffffffffffffffffffffffffffffffffffffffffffffffffffffffff19166020820180517bffffffffffffffffffffffffffffffffffffffffffffffffffffffff83818316178352505050506040516101df9190612a28565b5f604051808303815f865af19150503d805f8114610218576040519150601f19603f3d011682016040523d82523d5f602084013e61021d565b606091505b50915091508161022e576015610243565b808060200190518101906102429190612a74565b5b60030b92505050949350505050565b5f60605f5f61016773ffffffffffffffffffffffffffffffffffffffff1663618dc65e60e01b878760405160240161028b929190612a9f565b604051602081830303815290604052907bffffffffffffffffffffffffffffffffffffffffffffffffffffffff19166020820180517bffffffffffffffffffffffffffffffffffffffffffffffffffffffff83818316178352505050506040516102f59190612a28565b5f604051808303815f865af19150503d805f811461032e576040519150601f19603f3d011682016040523d82523d5f602084013e610333565b606091505b50915091507f4af4780e06fe8cb9df64b0794fa6f01399af979175bb988e35e0e57e594567bc8282604051610369929190612ae7565b60405180910390a18161038c57601560405180602001604052805f815250610390565b6016815b8160030b9150809450819550505050509250929050565b5f600567ffffffffffffffff8111156103c3576103c26125b7565b5b6040519080825280602002602001820160405280156103fc57816020015b6103e96123f0565b8152602001906001900390816103e15790505b50905061041a5f60065f60405180602001604052805f815250611203565b815f8151811061042d5761042c612b15565b5b602002602001018190525061045260015f60405180602001604052805f81525061123c565b8160018151811061046657610465612b15565b5b602002602001018190525061048b60025f60405180602001604052805f81525061123c565b8160028151811061049f5761049e612b15565b5b60200260200101819052506104c460035f60405180602001604052805f81525061123c565b816003815181106104d8576104d7612b15565b5b60200260200101819052506104fd60045f60405180602001604052805f81525061123c565b8160048151811061051157610510612b15565b5b60200260200101819052505f60405180606001604052805f60070b81526020018473ffffffffffffffffffffffffffffffffffffffff168152602001627a120060070b81525090505f6040518061012001604052806040518060400160405280600381526020017f544b4e000000000000000000000000000000000000000000000000000000000081525081526020016040518060400160405280600281526020017f544b00000000000000000000000000000000000000000000000000000000000081525081526020018573ffffffffffffffffffffffffffffffffffffffff1681526020016040518060400160405280600481526020017f6d656d6f000000000000000000000000000000000000000000000000000000008152508152602001600115158152602001620f424060070b81526020015f151581526020018481526020018381525090505f5f61066d83620f42406008611273565b91509150601660030b82146106b7576040517f08c379a00000000000000000000000000000000000000000000000000000000081526004016106ae90612b9c565b60405180910390fd5b601660030b6106c689836113e0565b14610706576040517f08c379a00000000000000000000000000000000000000000000000000000000081526004016106fd90612c2a565b60405180910390fd5b601660030b61071588836113e0565b14610755576040517f08c379a000000000000000000000000000000000000000000000000000000000815260040161074c90612c92565b60405180910390fd5b601660030b610764828a6114f2565b60070b146107a7576040517f08c379a000000000000000000000000000000000000000000000000000000000815260040161079e90612cfa565b60405180910390fd5b601660030b6107b682896114f2565b60070b146107f9576040517f08c379a00000000000000000000000000000000000000000000000000000000081526004016107f090612d62565b60405180910390fd5b601660030b61080b82888b6064611604565b1461084b576040517f08c379a000000000000000000000000000000000000000000000000000000000815260040161084290612df0565b60405180910390fd5b601660030b61085a828a61171c565b60070b1461089d576040517f08c379a000000000000000000000000000000000000000000000000000000000815260040161089490612e58565b60405180910390fd5b601660030b6108ac828a61182e565b60070b146108ef576040517f08c379a00000000000000000000000000000000000000000000000000000000081526004016108e690612ec0565b60405180910390fd5b601660030b610901828a8a6032611604565b14610941576040517f08c379a000000000000000000000000000000000000000000000000000000000815260040161093890612f4e565b60405180910390fd5b601660030b6109528289600a611940565b14610992576040517f08c379a000000000000000000000000000000000000000000000000000000000815260040161098990612fb6565b60405180910390fd5b601660030b6109a082611a55565b146109e0576040517f08c379a00000000000000000000000000000000000000000000000000000000081526004016109d79061301e565b60405180910390fd5b601660030b6109ee82611b64565b14610a2e576040517f08c379a0000000000000000000000000000000000000000000000000000000008152600401610a2590613086565b60405180910390fd5b5050505050505050565b5f5f5f61016773ffffffffffffffffffffffffffffffffffffffff16639b23d3d960e01b88888888604051602401610a7394939291906129ab565b604051602081830303815290604052907bffffffffffffffffffffffffffffffffffffffffffffffffffffffff19166020820180517bffffffffffffffffffffffffffffffffffffffffffffffffffffffff8381831617835250505050604051610add9190612a28565b5f604051808303815f865af19150503d805f8114610b16576040519150601f19603f3d011682016040523d82523d5f602084013e610b1b565b606091505b509150915081610b2c576015610b41565b80806020019051810190610b409190612a74565b5b60030b92505050949350505050565b5f600567ffffffffffffffff811115610b6c57610b6b6125b7565b5b604051908082528060200260200182016040528015610ba557816020015b610b926123f0565b815260200190600190039081610b8a5790505b509050610bc35f60065f60405180602001604052805f815250611203565b815f81518110610bd657610bd5612b15565b5b6020026020010181905250610bfb60015f60405180602001604052805f81525061123c565b81600181518110610c0f57610c0e612b15565b5b6020026020010181905250610c3460025f60405180602001604052805f81525061123c565b81600281518110610c4857610c47612b15565b5b6020026020010181905250610c6d60035f60405180602001604052805f81525061123c565b81600381518110610c8157610c80612b15565b5b6020026020010181905250610ca660045f60405180602001604052805f81525061123c565b81600481518110610cba57610cb9612b15565b5b60200260200101819052505f6040518061012001604052806040518060400160405280600381526020017f4e4654000000000000000000000000000000000000000000000000000000000081525081526020016040518060400160405280600381526020017f4e4654000000000000000000000000000000000000000000000000000000000081525081526020018573ffffffffffffffffffffffffffffffffffffffff1681526020016040518060400160405280600481526020017f6d656d6f0000000000000000000000000000000000000000000000000000000081525081526020015f151581526020015f60070b81526020015f1515815260200183815260200160405180606001604052805f60070b81526020018773ffffffffffffffffffffffffffffffffffffffff168152602001627a120060070b81525081525090505f5f610e0883611c73565b91509150601660030b8214610e52576040517f08c379a0000000000000000000000000000000000000000000000000000000008152600401610e49906130ee565b60405180910390fd5b601660030b610e6189836113e0565b14610ea1576040517f08c379a0000000000000000000000000000000000000000000000000000000008152600401610e9890613156565b60405180910390fd5b601660030b610eb088836113e0565b14610ef0576040517f08c379a0000000000000000000000000000000000000000000000000000000008152600401610ee7906131be565b60405180910390fd5b601660030b610eff828a6114f2565b60070b14610f42576040517f08c379a0000000000000000000000000000000000000000000000000000000008152600401610f3990613226565b60405180910390fd5b601660030b610f5182896114f2565b60070b14610f94576040517f08c379a0000000000000000000000000000000000000000000000000000000008152600401610f8b9061328e565b60405180910390fd5b5f5f610fa1835f89611dd9565b92505091505f815f81518110610fba57610fb9612b15565b5b60200260200101519050601660030b610fd5858b8e85611f4a565b14611015576040517f08c379a000000000000000000000000000000000000000000000000000000000815260040161100c906132f6565b60405180910390fd5b601660030b611024858d61171c565b60070b14611067576040517f08c379a000000000000000000000000000000000000000000000000000000000815260040161105e9061335e565b60405180910390fd5b601660030b611076858d61182e565b60070b146110b9576040517f08c379a00000000000000000000000000000000000000000000000000000000081526004016110b0906133c6565b60405180910390fd5b601660030b6110ca858d8d85611f4a565b1461110a576040517f08c379a00000000000000000000000000000000000000000000000000000000081526004016111019061342e565b60405180910390fd5b601660030b61111a858c85612062565b1461115a576040517f08c379a000000000000000000000000000000000000000000000000000000000815260040161115190613496565b60405180910390fd5b601660030b61116885611a55565b146111a8576040517f08c379a000000000000000000000000000000000000000000000000000000000815260040161119f906134fe565b60405180910390fd5b601660030b6111b685611b64565b146111f6576040517f08c379a00000000000000000000000000000000000000000000000000000000081526004016111ed90613566565b60405180910390fd5b5050505050505050505050565b61120b6123f0565b60405180604001604052806112208787612177565b815260200161122f85856121cc565b8152509050949350505050565b6112446123f0565b60405180604001604052806112588661239f565b815260200161126785856121cc565b81525090509392505050565b5f5f845f8161010001515f015160070b14801561129b57505f8161010001516040015160070b145b156112be576276a70060030b8161010001516040019060070b908160070b815250505b5f5f61016773ffffffffffffffffffffffffffffffffffffffff1634630fb65bf360e01b8a8a8a6040516024016112f7939291906138ef565b604051602081830303815290604052907bffffffffffffffffffffffffffffffffffffffffffffffffffffffff19166020820180517bffffffffffffffffffffffffffffffffffffffffffffffffffffffff83818316178352505050506040516113619190612a28565b5f6040518083038185875af1925050503d805f811461139b576040519150601f19603f3d011682016040523d82523d5f602084013e6113a0565b606091505b5091509150816113b25760155f6113c7565b808060200190518101906113c69190613966565b5b8160030b91508095508196505050505050935093915050565b5f5f5f61016773ffffffffffffffffffffffffffffffffffffffff166349146bde60e01b86866040516024016114179291906139a4565b604051602081830303815290604052907bffffffffffffffffffffffffffffffffffffffffffffffffffffffff19166020820180517bffffffffffffffffffffffffffffffffffffffffffffffffffffffff83818316178352505050506040516114819190612a28565b5f604051808303815f865af19150503d805f81146114ba576040519150601f19603f3d011682016040523d82523d5f602084013e6114bf565b606091505b5091509150816114d05760156114e5565b808060200190518101906114e49190612a74565b5b60030b9250505092915050565b5f5f5f61016773ffffffffffffffffffffffffffffffffffffffff16638f8d7f9960e01b86866040516024016115299291906139a4565b604051602081830303815290604052907bffffffffffffffffffffffffffffffffffffffffffffffffffffffff19166020820180517bffffffffffffffffffffffffffffffffffffffffffffffffffffffff83818316178352505050506040516115939190612a28565b5f604051808303815f865af19150503d805f81146115cc576040519150601f19603f3d011682016040523d82523d5f602084013e6115d1565b606091505b5091509150816115e25760156115f7565b808060200190518101906115f69190612a74565b5b60030b9250505092915050565b5f5f5f61016773ffffffffffffffffffffffffffffffffffffffff1663eca3691760e01b8888888860405160240161163f94939291906139cb565b604051602081830303815290604052907bffffffffffffffffffffffffffffffffffffffffffffffffffffffff19166020820180517bffffffffffffffffffffffffffffffffffffffffffffffffffffffff83818316178352505050506040516116a99190612a28565b5f604051808303815f865af19150503d805f81146116e2576040519150601f19603f3d011682016040523d82523d5f602084013e6116e7565b606091505b5091509150816116f857601561170d565b8080602001905181019061170c9190612a74565b5b60030b92505050949350505050565b5f5f5f61016773ffffffffffffffffffffffffffffffffffffffff16635b8f858460e01b86866040516024016117539291906139a4565b604051602081830303815290604052907bffffffffffffffffffffffffffffffffffffffffffffffffffffffff19166020820180517bffffffffffffffffffffffffffffffffffffffffffffffffffffffff83818316178352505050506040516117bd9190612a28565b5f604051808303815f865af19150503d805f81146117f6576040519150601f19603f3d011682016040523d82523d5f602084013e6117fb565b606091505b50915091508161180c576015611821565b808060200190518101906118209190612a74565b5b60030b9250505092915050565b5f5f5f61016773ffffffffffffffffffffffffffffffffffffffff166352f9138760e01b86866040516024016118659291906139a4565b604051602081830303815290604052907bffffffffffffffffffffffffffffffffffffffffffffffffffffffff19166020820180517bffffffffffffffffffffffffffffffffffffffffffffffffffffffff83818316178352505050506040516118cf9190612a28565b5f604051808303815f865af19150503d805f8114611908576040519150601f19603f3d011682016040523d82523d5f602084013e61190d565b606091505b50915091508161191e576015611933565b808060200190518101906119329190612a74565b5b60030b9250505092915050565b5f5f5f61016773ffffffffffffffffffffffffffffffffffffffff1663efef57f960e01b87878760405160240161197993929190613a0e565b604051602081830303815290604052907bffffffffffffffffffffffffffffffffffffffffffffffffffffffff19166020820180517bffffffffffffffffffffffffffffffffffffffffffffffffffffffff83818316178352505050506040516119e39190612a28565b5f604051808303815f865af19150503d805f8114611a1c576040519150601f19603f3d011682016040523d82523d5f602084013e611a21565b606091505b509150915081611a32576015611a47565b80806020019051810190611a469190612a74565b5b60030b925050509392505050565b5f5f5f61016773ffffffffffffffffffffffffffffffffffffffff16637c41ad2c60e01b85604051602401611a8a9190613a43565b604051602081830303815290604052907bffffffffffffffffffffffffffffffffffffffffffffffffffffffff19166020820180517bffffffffffffffffffffffffffffffffffffffffffffffffffffffff8381831617835250505050604051611af49190612a28565b5f604051808303815f865af19150503d805f8114611b2d576040519150601f19603f3d011682016040523d82523d5f602084013e611b32565b606091505b509150915081611b43576015611b58565b80806020019051810190611b579190612a74565b5b60030b92505050919050565b5f5f5f61016773ffffffffffffffffffffffffffffffffffffffff16633b3bff0f60e01b85604051602401611b999190613a43565b604051602081830303815290604052907bffffffffffffffffffffffffffffffffffffffffffffffffffffffff19166020820180517bffffffffffffffffffffffffffffffffffffffffffffffffffffffff8381831617835250505050604051611c039190612a28565b5f604051808303815f865af19150503d805f8114611c3c576040519150601f19603f3d011682016040523d82523d5f602084013e611c41565b606091505b509150915081611c52576015611c67565b80806020019051810190611c669190612a74565b5b60030b92505050919050565b5f5f825f8161010001515f015160070b148015611c9b57505f8161010001516040015160070b145b15611cbe576276a70060030b8161010001516040019060070b908160070b815250505b5f5f61016773ffffffffffffffffffffffffffffffffffffffff163463ea83f29360e01b88604051602401611cf39190613a5c565b604051602081830303815290604052907bffffffffffffffffffffffffffffffffffffffffffffffffffffffff19166020820180517bffffffffffffffffffffffffffffffffffffffffffffffffffffffff8381831617835250505050604051611d5d9190612a28565b5f6040518083038185875af1925050503d805f8114611d97576040519150601f19603f3d011682016040523d82523d5f602084013e611d9c565b606091505b509150915081611dae5760155f611dc3565b80806020019051810190611dc29190613966565b5b8160030b91508095508196505050505050915091565b5f5f60605f5f61016773ffffffffffffffffffffffffffffffffffffffff1663e0f4059a60e01b898989604051602401611e1593929190613b37565b604051602081830303815290604052907bffffffffffffffffffffffffffffffffffffffffffffffffffffffff19166020820180517bffffffffffffffffffffffffffffffffffffffffffffffffffffffff8381831617835250505050604051611e7f9190612a28565b5f604051808303815f865af19150503d805f8114611eb8576040519150601f19603f3d011682016040523d82523d5f602084013e611ebd565b606091505b509150915081611f185760155f5f67ffffffffffffffff811115611ee457611ee36125b7565b5b604051908082528060200260200182016040528015611f125781602001602082028036833780820191505090505b50611f2d565b80806020019051810190611f2c9190613c5d565b5b8260030b9250809550819650829750505050505093509350939050565b5f5f5f61016773ffffffffffffffffffffffffffffffffffffffff16635cfc901160e01b88888888604051602401611f8594939291906139cb565b604051602081830303815290604052907bffffffffffffffffffffffffffffffffffffffffffffffffffffffff19166020820180517bffffffffffffffffffffffffffffffffffffffffffffffffffffffff8381831617835250505050604051611fef9190612a28565b5f604051808303815f865af19150503d805f8114612028576040519150601f19603f3d011682016040523d82523d5f602084013e61202d565b606091505b50915091508161203e576015612053565b808060200190518101906120529190612a74565b5b60030b92505050949350505050565b5f5f5f61016773ffffffffffffffffffffffffffffffffffffffff1663f7f38e2660e01b87878760405160240161209b93929190613d71565b604051602081830303815290604052907bffffffffffffffffffffffffffffffffffffffffffffffffffffffff19166020820180517bffffffffffffffffffffffffffffffffffffffffffffffffffffffff83818316178352505050506040516121059190612a28565b5f604051808303815f865af19150503d805f811461213e576040519150601f19603f3d011682016040523d82523d5f602084013e612143565b606091505b509150915081612154576015612169565b808060200190518101906121689190612a74565b5b60030b925050509392505050565b5f61219d83600681111561218e5761218d613dad565b5b826123dd90919063ffffffff16565b90506121c48260068111156121b5576121b4613dad565b5b826123dd90919063ffffffff16565b905092915050565b6121d461240f565b5f60048111156121e7576121e6613dad565b5b8360048111156121fa576121f9613dad565b5b03612214576001815f019015159081151581525050612399565b6001600481111561222857612227613dad565b5b83600481111561223b5761223a613dad565b5b0361229d575f5f9054906101000a900473ffffffffffffffffffffffffffffffffffffffff16816020019073ffffffffffffffffffffffffffffffffffffffff16908173ffffffffffffffffffffffffffffffffffffffff1681525050612398565b600260048111156122b1576122b0613dad565b5b8360048111156122c4576122c3613dad565b5b036122d757818160400181905250612397565b600360048111156122eb576122ea613dad565b5b8360048111156122fe576122fd613dad565b5b0361231157818160600181905250612396565b60048081111561232457612323613dad565b5b83600481111561233757612336613dad565b5b03612395575f5f9054906101000a900473ffffffffffffffffffffffffffffffffffffffff16816080019073ffffffffffffffffffffffffffffffffffffffff16908173ffffffffffffffffffffffffffffffffffffffff16815250505b5b5b5b5b92915050565b5f60015f8360068111156123b6576123b5613dad565b5b60068111156123c8576123c7613dad565b5b81526020019081526020015f20549050919050565b5f8160ff166001901b8317905092915050565b60405180604001604052805f815260200161240961240f565b81525090565b6040518060a001604052805f151581526020015f73ffffffffffffffffffffffffffffffffffffffff16815260200160608152602001606081526020015f73ffffffffffffffffffffffffffffffffffffffff1681525090565b5f604051905090565b5f5ffd5b5f5ffd5b5f73ffffffffffffffffffffffffffffffffffffffff82169050919050565b5f6124a38261247a565b9050919050565b6124b381612499565b81146124bd575f5ffd5b50565b5f813590506124ce816124aa565b92915050565b5f819050919050565b6124e6816124d4565b81146124f0575f5ffd5b50565b5f81359050612501816124dd565b92915050565b5f5f5f5f6080858703121561251f5761251e612472565b5b5f61252c878288016124c0565b945050602061253d878288016124c0565b935050604061254e878288016124c0565b925050606061255f878288016124f3565b91505092959194509250565b5f8160070b9050919050565b6125808161256b565b82525050565b5f6020820190506125995f830184612577565b92915050565b5f5ffd5b5f5ffd5b5f601f19601f8301169050919050565b7f4e487b71000000000000000000000000000000000000000000000000000000005f52604160045260245ffd5b6125ed826125a7565b810181811067ffffffffffffffff8211171561260c5761260b6125b7565b5b80604052505050565b5f61261e612469565b905061262a82826125e4565b919050565b5f67ffffffffffffffff821115612649576126486125b7565b5b612652826125a7565b9050602081019050919050565b828183375f83830152505050565b5f61267f61267a8461262f565b612615565b90508281526020810184848401111561269b5761269a6125a3565b5b6126a684828561265f565b509392505050565b5f82601f8301126126c2576126c161259f565b5b81356126d284826020860161266d565b91505092915050565b5f5f604083850312156126f1576126f0612472565b5b5f6126fe858286016124c0565b925050602083013567ffffffffffffffff81111561271f5761271e612476565b5b61272b858286016126ae565b9150509250929050565b5f819050919050565b61274781612735565b82525050565b5f81519050919050565b5f82825260208201905092915050565b8281835e5f83830152505050565b5f61277f8261274d565b6127898185612757565b9350612799818560208601612767565b6127a2816125a7565b840191505092915050565b5f6040820190506127c05f83018561273e565b81810360208301526127d28184612775565b90509392505050565b5f5f5f606084860312156127f2576127f1612472565b5b5f6127ff868287016124c0565b9350506020612810868287016124c0565b9250506040612821868287016124c0565b9150509250925092565b5f67ffffffffffffffff821115612845576128446125b7565b5b602082029050602081019050919050565b5f5ffd5b5f61286c6128678461282b565b612615565b9050808382526020820190506020840283018581111561288f5761288e612856565b5b835b818110156128d657803567ffffffffffffffff8111156128b4576128b361259f565b5b8086016128c189826126ae565b85526020850194505050602081019050612891565b5050509392505050565b5f82601f8301126128f4576128f361259f565b5b813561290484826020860161285a565b91505092915050565b5f5f5f5f6080858703121561292557612924612472565b5b5f612932878288016124c0565b9450506020612943878288016124c0565b9350506040612954878288016124c0565b925050606085013567ffffffffffffffff81111561297557612974612476565b5b612981878288016128e0565b91505092959194509250565b61299681612499565b82525050565b6129a5816124d4565b82525050565b5f6080820190506129be5f83018761298d565b6129cb602083018661298d565b6129d8604083018561298d565b6129e5606083018461299c565b95945050505050565b5f81905092915050565b5f612a028261274d565b612a0c81856129ee565b9350612a1c818560208601612767565b80840191505092915050565b5f612a3382846129f8565b915081905092915050565b5f8160030b9050919050565b612a5381612a3e565b8114612a5d575f5ffd5b50565b5f81519050612a6e81612a4a565b92915050565b5f60208284031215612a8957612a88612472565b5b5f612a9684828501612a60565b91505092915050565b5f604082019050612ab25f83018561298d565b8181036020830152612ac48184612775565b90509392505050565b5f8115159050919050565b612ae181612acd565b82525050565b5f604082019050612afa5f830185612ad8565b8181036020830152612b0c8184612775565b90509392505050565b7f4e487b71000000000000000000000000000000000000000000000000000000005f52603260045260245ffd5b5f82825260208201905092915050565b7f546f6b656e206372656174696f6e206661696c656400000000000000000000005f82015250565b5f612b86601583612b42565b9150612b9182612b52565b602082019050919050565b5f6020820190508181035f830152612bb381612b7a565b9050919050565b7f546f6b656e204173736f6369617465206f66206661696c656420666f722061635f8201527f6331000000000000000000000000000000000000000000000000000000000000602082015250565b5f612c14602283612b42565b9150612c1f82612bba565b604082019050919050565b5f6020820190508181035f830152612c4181612c08565b9050919050565b7f546f6b656e204173736f6369617465206661696c656420666f722061636332005f82015250565b5f612c7c601f83612b42565b9150612c8782612c48565b602082019050919050565b5f6020820190508181035f830152612ca981612c70565b9050919050565b7f4772616e744b7963206661696c656420666f72206163633100000000000000005f82015250565b5f612ce4601883612b42565b9150612cef82612cb0565b602082019050919050565b5f6020820190508181035f830152612d1181612cd8565b9050919050565b7f4772616e744b7943206661696c656420666f72206163633200000000000000005f82015250565b5f612d4c601883612b42565b9150612d5782612d18565b602082019050919050565b5f6020820190508181035f830152612d7981612d40565b9050919050565b7f5472616e7366657220746f6b656e206661696c65642066726f6d2074726561735f8201527f75727920746f2061636331000000000000000000000000000000000000000000602082015250565b5f612dda602b83612b42565b9150612de582612d80565b604082019050919050565b5f6020820190508181035f830152612e0781612dce565b9050919050565b7f467265657a6520746f6b656e206661696c656420666f722061636331000000005f82015250565b5f612e42601c83612b42565b9150612e4d82612e0e565b602082019050919050565b5f6020820190508181035f830152612e6f81612e36565b9050919050565b7f556e667265657a6520746f6b656e206661696c656420666f72206163633100005f82015250565b5f612eaa601e83612b42565b9150612eb582612e76565b602082019050919050565b5f6020820190508181035f830152612ed781612e9e565b9050919050565b7f5472616e7366657220746f6b656e206661696c65642066726f6d2061636331205f8201527f746f206163633200000000000000000000000000000000000000000000000000602082015250565b5f612f38602783612b42565b9150612f4382612ede565b604082019050919050565b5f6020820190508181035f830152612f6581612f2c565b9050919050565b7f5769706520746f6b656e206661696c656420666f7220616363320000000000005f82015250565b5f612fa0601a83612b42565b9150612fab82612f6c565b602082019050919050565b5f6020820190508181035f830152612fcd81612f94565b9050919050565b7f506175736520746f6b656e206661696c656400000000000000000000000000005f82015250565b5f613008601283612b42565b915061301382612fd4565b602082019050919050565b5f6020820190508181035f83015261303581612ffc565b9050919050565b7f556e706175736520746f6b656e206661696c65640000000000000000000000005f82015250565b5f613070601483612b42565b915061307b8261303c565b602082019050919050565b5f6020820190508181035f83015261309d81613064565b9050919050565b7f4e4654206372656174696f6e206661696c6564000000000000000000000000005f82015250565b5f6130d8601383612b42565b91506130e3826130a4565b602082019050919050565b5f6020820190508181035f830152613105816130cc565b9050919050565b7f4173736f6369617465206661696c656420666f722061636331000000000000005f82015250565b5f613140601983612b42565b915061314b8261310c565b602082019050919050565b5f6020820190508181035f83015261316d81613134565b9050919050565b7f4173736f6369617465206661696c656420666f722061636332000000000000005f82015250565b5f6131a8601983612b42565b91506131b382613174565b602082019050919050565b5f6020820190508181035f8301526131d58161319c565b9050919050565b7f4b5943206661696c656420666f722061636331000000000000000000000000005f82015250565b5f613210601383612b42565b915061321b826131dc565b602082019050919050565b5f6020820190508181035f83015261323d81613204565b9050919050565b7f4b5943206661696c656420666f722061636332000000000000000000000000005f82015250565b5f613278601383612b42565b915061328382613244565b602082019050919050565b5f6020820190508181035f8301526132a58161326c565b9050919050565b7f4e4654207472616e7366657220746f2061636331206661696c656400000000005f82015250565b5f6132e0601b83612b42565b91506132eb826132ac565b602082019050919050565b5f6020820190508181035f83015261330d816132d4565b9050919050565b7f467265657a65206661696c656420666f722061636331000000000000000000005f82015250565b5f613348601683612b42565b915061335382613314565b602082019050919050565b5f6020820190508181035f8301526133758161333c565b9050919050565b7f556e667265657a65206661696c656420666f72206163633100000000000000005f82015250565b5f6133b0601883612b42565b91506133bb8261337c565b602082019050919050565b5f6020820190508181035f8301526133dd816133a4565b9050919050565b7f4e4654207472616e7366657220746f2061636332206661696c656400000000005f82015250565b5f613418601b83612b42565b9150613423826133e4565b602082019050919050565b5f6020820190508181035f8301526134458161340c565b9050919050565b7f57697065206661696c656420666f7220616363320000000000000000000000005f82015250565b5f613480601483612b42565b915061348b8261344c565b602082019050919050565b5f6020820190508181035f8301526134ad81613474565b9050919050565b7f5061757365206661696c656400000000000000000000000000000000000000005f82015250565b5f6134e8600c83612b42565b91506134f3826134b4565b602082019050919050565b5f6020820190508181035f830152613515816134dc565b9050919050565b7f556e7061757365206661696c65640000000000000000000000000000000000005f82015250565b5f613550600e83612b42565b915061355b8261351c565b602082019050919050565b5f6020820190508181035f83015261357d81613544565b9050919050565b5f81519050919050565b5f82825260208201905092915050565b5f6135a882613584565b6135b2818561358e565b93506135c2818560208601612767565b6135cb816125a7565b840191505092915050565b6135df81612499565b82525050565b6135ee81612acd565b82525050565b6135fd8161256b565b82525050565b5f81519050919050565b5f82825260208201905092915050565b5f819050602082019050919050565b613635816124d4565b82525050565b5f82825260208201905092915050565b5f6136558261274d565b61365f818561363b565b935061366f818560208601612767565b613678816125a7565b840191505092915050565b5f60a083015f8301516136985f8601826135e5565b5060208301516136ab60208601826135d6565b50604083015184820360408601526136c3828261364b565b915050606083015184820360608601526136dd828261364b565b91505060808301516136f260808601826135d6565b508091505092915050565b5f604083015f8301516137125f86018261362c565b506020830151848203602086015261372a8282613683565b9150508091505092915050565b5f61374283836136fd565b905092915050565b5f602082019050919050565b5f61376082613603565b61376a818561360d565b93508360208202850161377c8561361d565b805f5b858110156137b757848403895281516137988582613737565b94506137a38361374a565b925060208a0199505060018101905061377f565b50829750879550505050505092915050565b606082015f8201516137dd5f8501826135f4565b5060208201516137f060208501826135d6565b50604082015161380360408501826135f4565b50505050565b5f61016083015f8301518482035f860152613824828261359e565b9150506020830151848203602086015261383e828261359e565b915050604083015161385360408601826135d6565b506060830151848203606086015261386b828261359e565b915050608083015161388060808601826135e5565b5060a083015161389360a08601826135f4565b5060c08301516138a660c08601826135e5565b5060e083015184820360e08601526138be8282613756565b9150506101008301516138d56101008601826137c9565b508091505092915050565b6138e981612a3e565b82525050565b5f6060820190508181035f8301526139078186613809565b90506139166020830185612577565b61392360408301846138e0565b949350505050565b5f6139358261247a565b9050919050565b6139458161392b565b811461394f575f5ffd5b50565b5f815190506139608161393c565b92915050565b5f5f6040838503121561397c5761397b612472565b5b5f61398985828601612a60565b925050602061399a85828601613952565b9150509250929050565b5f6040820190506139b75f83018561298d565b6139c4602083018461298d565b9392505050565b5f6080820190506139de5f83018761298d565b6139eb602083018661298d565b6139f8604083018561298d565b613a056060830184612577565b95945050505050565b5f606082019050613a215f83018661298d565b613a2e602083018561298d565b613a3b6040830184612577565b949350505050565b5f602082019050613a565f83018461298d565b92915050565b5f6020820190508181035f830152613a748184613809565b905092915050565b5f81519050919050565b5f82825260208201905092915050565b5f819050602082019050919050565b5f613ab0838361364b565b905092915050565b5f602082019050919050565b5f613ace82613a7c565b613ad88185613a86565b935083602082028501613aea85613a96565b805f5b85811015613b255784840389528151613b068582613aa5565b9450613b1183613ab8565b925060208a01995050600181019050613aed565b50829750879550505050505092915050565b5f606082019050613b4a5f83018661298d565b613b576020830185612577565b8181036040830152613b698184613ac4565b9050949350505050565b613b7c8161256b565b8114613b86575f5ffd5b50565b5f81519050613b9781613b73565b92915050565b5f67ffffffffffffffff821115613bb757613bb66125b7565b5b602082029050602081019050919050565b5f613bda613bd584613b9d565b612615565b90508083825260208201905060208402830185811115613bfd57613bfc612856565b5b835b81811015613c265780613c128882613b89565b845260208401935050602081019050613bff565b5050509392505050565b5f82601f830112613c4457613c4361259f565b5b8151613c54848260208601613bc8565b91505092915050565b5f5f5f60608486031215613c7457613c73612472565b5b5f613c8186828701612a60565b9350506020613c9286828701613b89565b925050604084015167ffffffffffffffff811115613cb357613cb2612476565b5b613cbf86828701613c30565b9150509250925092565b5f81519050919050565b5f82825260208201905092915050565b5f819050602082019050919050565b5f613cfd83836135f4565b60208301905092915050565b5f602082019050919050565b5f613d1f82613cc9565b613d298185613cd3565b9350613d3483613ce3565b805f5b83811015613d64578151613d4b8882613cf2565b9750613d5683613d09565b925050600181019050613d37565b5085935050505092915050565b5f606082019050613d845f83018661298d565b613d91602083018561298d565b8181036040830152613da38184613d15565b9050949350505050565b7f4e487b71000000000000000000000000000000000000000000000000000000005f52602160045260245ffdfea264697066735822122028aefaf16d1705c9ccbe0e349e102d4531cd8265054801f33ee9e6695fdd96b964736f6c634300081e0033",
  "linkReferences": {},
  "deployedLinkReferences": {}
}