{
  "_format": "hh-sol-artifact-1",
  "contractName": "ComplexFunctions",
  "sourceName": "contracts/ComplexFunctions.sol",
  "abi": [
    {
      "inputs": [
        {
          "internalType": "address",
          "name": "acc1",
          "type": "address"
        },
        {
          "internalType": "address",
          "name": "acc2",
          "type": "address"
        },
        {
          "internalType": "address",
          "name": "treasury",
          "type": "address"
        }
      ],
      "name": "tokenLifecycle",
      "outputs": [],
      "stateMutability": "payable",
      "type": "function"
    }
  ],
  "bytecode": "0x608060405234801561000f575f5ffd5b506001805f5f6006811115610027576100266101b6565b5b6006811115610039576100386101b6565b5b81526020019081526020015f2081905550600260015f60016006811115610063576100626101b6565b5b6006811115610075576100746101b6565b5b81526020019081526020015f2081905550600460015f6002600681111561009f5761009e6101b6565b5b60068111156100b1576100b06101b6565b5b81526020019081526020015f2081905550600860015f600360068111156100db576100da6101b6565b5b60068111156100ed576100ec6101b6565b5b81526020019081526020015f2081905550601060015f60046006811115610117576101166101b6565b5b6006811115610129576101286101b6565b5b81526020019081526020015f2081905550602060015f60056006811115610153576101526101b6565b5b6006811115610165576101646101b6565b5b81526020019081526020015f2081905550604060015f60068081111561018e5761018d6101b6565b5b60068111156101a05761019f6101b6565b5b81526020019081526020015f20819055506101e3565b7f4e487b71000000000000000000000000000000000000000000000000000000005f52602160045260245ffd5b61287e806101f05f395ff3fe60806040526004361061003e575f3560e01c806315dacbea14610042578063618dc65e1461007e5780638acb1e70146100bb5780639b23d3d9146100d7575b5f5ffd5b34801561004d575f5ffd5b5061006860048036038101906100639190611908565b610113565b6040516100759190611987565b60405180910390f35b348015610089575f5ffd5b506100a4600480360381019061009f9190611adc565b61022b565b6040516100b2929190611bae565b60405180910390f35b6100d560048036038101906100d09190611bdc565b610380565b005b3480156100e2575f5ffd5b506100fd60048036038101906100f89190611908565b6109f0565b60405161010a9190611987565b60405180910390f35b5f5f5f61016773ffffffffffffffffffffffffffffffffffffffff166315dacbea60e01b8888888860405160240161014e9493929190611c4a565b604051602081830303815290604052907bffffffffffffffffffffffffffffffffffffffffffffffffffffffff19166020820180517bffffffffffffffffffffffffffffffffffffffffffffffffffffffff83818316178352505050506040516101b89190611cc7565b5f604051808303815f865af19150503d805f81146101f1576040519150601f19603f3d011682016040523d82523d5f602084013e6101f6565b606091505b50915091508161020757601561021c565b8080602001905181019061021b9190611d13565b5b60030b92505050949350505050565b5f60605f5f61016773ffffffffffffffffffffffffffffffffffffffff1663618dc65e60e01b8787604051602401610264929190611d3e565b604051602081830303815290604052907bffffffffffffffffffffffffffffffffffffffffffffffffffffffff19166020820180517bffffffffffffffffffffffffffffffffffffffffffffffffffffffff83818316178352505050506040516102ce9190611cc7565b5f604051808303815f865af19150503d805f8114610307576040519150601f19603f3d011682016040523d82523d5f602084013e61030c565b606091505b50915091507f4af4780e06fe8cb9df64b0794fa6f01399af979175bb988e35e0e57e594567bc8282604051610342929190611d86565b60405180910390a18161036557601560405180602001604052805f815250610369565b6016815b8160030b9150809450819550505050509250929050565b5f600567ffffffffffffffff81111561039c5761039b6119b8565b5b6040519080825280602002602001820160405280156103d557816020015b6103c26117f1565b8152602001906001900390816103ba5790505b5090506103f35f60065f60405180602001604052805f815250610b08565b815f8151811061040657610405611db4565b5b602002602001018190525061042b60015f60405180602001604052805f815250610b41565b8160018151811061043f5761043e611db4565b5b602002602001018190525061046460025f60405180602001604052805f815250610b41565b8160028151811061047857610477611db4565b5b602002602001018190525061049d60035f60405180602001604052805f815250610b41565b816003815181106104b1576104b0611db4565b5b60200260200101819052506104d660045f60405180602001604052805f815250610b41565b816004815181106104ea576104e9611db4565b5b60200260200101819052505f60405180606001604052805f60070b81526020018473ffffffffffffffffffffffffffffffffffffffff168152602001627a120060070b81525090505f6040518061012001604052806040518060400160405280600381526020017f544b4e000000000000000000000000000000000000000000000000000000000081525081526020016040518060400160405280600281526020017f544b00000000000000000000000000000000000000000000000000000000000081525081526020018573ffffffffffffffffffffffffffffffffffffffff1681526020016040518060400160405280600481526020017f6d656d6f000000000000000000000000000000000000000000000000000000008152508152602001600115158152602001620f424060070b81526020015f151581526020018481526020018381525090505f5f61064683620f42406008610b78565b91509150601660030b8214610690576040517f08c379a000000000000000000000000000000000000000000000000000000000815260040161068790611e3b565b60405180910390fd5b601661069c8983610ce5565b146106dc576040517f08c379a00000000000000000000000000000000000000000000000000000000081526004016106d390611ec9565b60405180910390fd5b60166106e88883610ce5565b14610728576040517f08c379a000000000000000000000000000000000000000000000000000000000815260040161071f90611f31565b60405180910390fd5b6016610734828a610df7565b60070b14610777576040517f08c379a000000000000000000000000000000000000000000000000000000000815260040161076e90611f99565b60405180910390fd5b60166107838289610df7565b60070b146107c6576040517f08c379a00000000000000000000000000000000000000000000000000000000081526004016107bd90612001565b60405180910390fd5b60166107d582888b6064610f09565b14610815576040517f08c379a000000000000000000000000000000000000000000000000000000000815260040161080c9061208f565b60405180910390fd5b6016610821828a611021565b60070b14610864576040517f08c379a000000000000000000000000000000000000000000000000000000000815260040161085b906120f7565b60405180910390fd5b6016610870828a611133565b60070b146108b3576040517f08c379a00000000000000000000000000000000000000000000000000000000081526004016108aa9061215f565b60405180910390fd5b60166108c2828a8a6032610f09565b14610902576040517f08c379a00000000000000000000000000000000000000000000000000000000081526004016108f9906121ed565b60405180910390fd5b60166109108289600a611245565b14610950576040517f08c379a000000000000000000000000000000000000000000000000000000000815260040161094790612255565b60405180910390fd5b601661095b8261135a565b1461099b576040517f08c379a0000000000000000000000000000000000000000000000000000000008152600401610992906122bd565b60405180910390fd5b60166109a682611469565b146109e6576040517f08c379a00000000000000000000000000000000000000000000000000000000081526004016109dd90612325565b60405180910390fd5b5050505050505050565b5f5f5f61016773ffffffffffffffffffffffffffffffffffffffff16639b23d3d960e01b88888888604051602401610a2b9493929190611c4a565b604051602081830303815290604052907bffffffffffffffffffffffffffffffffffffffffffffffffffffffff19166020820180517bffffffffffffffffffffffffffffffffffffffffffffffffffffffff8381831617835250505050604051610a959190611cc7565b5f604051808303815f865af19150503d805f8114610ace576040519150601f19603f3d011682016040523d82523d5f602084013e610ad3565b606091505b509150915081610ae4576015610af9565b80806020019051810190610af89190611d13565b5b60030b92505050949350505050565b610b106117f1565b6040518060400160405280610b258787611578565b8152602001610b3485856115cd565b8152509050949350505050565b610b496117f1565b6040518060400160405280610b5d866117a0565b8152602001610b6c85856115cd565b81525090509392505050565b5f5f845f8161010001515f015160070b148015610ba057505f8161010001516040015160070b145b15610bc3576276a70060030b8161010001516040019060070b908160070b815250505b5f5f61016773ffffffffffffffffffffffffffffffffffffffff1634630fb65bf360e01b8a8a8a604051602401610bfc939291906126ae565b604051602081830303815290604052907bffffffffffffffffffffffffffffffffffffffffffffffffffffffff19166020820180517bffffffffffffffffffffffffffffffffffffffffffffffffffffffff8381831617835250505050604051610c669190611cc7565b5f6040518083038185875af1925050503d805f8114610ca0576040519150601f19603f3d011682016040523d82523d5f602084013e610ca5565b606091505b509150915081610cb75760155f610ccc565b80806020019051810190610ccb9190612725565b5b8160030b91508095508196505050505050935093915050565b5f5f5f61016773ffffffffffffffffffffffffffffffffffffffff166349146bde60e01b8686604051602401610d1c929190612763565b604051602081830303815290604052907bffffffffffffffffffffffffffffffffffffffffffffffffffffffff19166020820180517bffffffffffffffffffffffffffffffffffffffffffffffffffffffff8381831617835250505050604051610d869190611cc7565b5f604051808303815f865af19150503d805f8114610dbf576040519150601f19603f3d011682016040523d82523d5f602084013e610dc4565b606091505b509150915081610dd5576015610dea565b80806020019051810190610de99190611d13565b5b60030b9250505092915050565b5f5f5f61016773ffffffffffffffffffffffffffffffffffffffff16638f8d7f9960e01b8686604051602401610e2e929190612763565b604051602081830303815290604052907bffffffffffffffffffffffffffffffffffffffffffffffffffffffff19166020820180517bffffffffffffffffffffffffffffffffffffffffffffffffffffffff8381831617835250505050604051610e989190611cc7565b5f604051808303815f865af19150503d805f8114610ed1576040519150601f19603f3d011682016040523d82523d5f602084013e610ed6565b606091505b509150915081610ee7576015610efc565b80806020019051810190610efb9190611d13565b5b60030b9250505092915050565b5f5f5f61016773ffffffffffffffffffffffffffffffffffffffff1663eca3691760e01b88888888604051602401610f44949392919061278a565b604051602081830303815290604052907bffffffffffffffffffffffffffffffffffffffffffffffffffffffff19166020820180517bffffffffffffffffffffffffffffffffffffffffffffffffffffffff8381831617835250505050604051610fae9190611cc7565b5f604051808303815f865af19150503d805f8114610fe7576040519150601f19603f3d011682016040523d82523d5f602084013e610fec565b606091505b509150915081610ffd576015611012565b808060200190518101906110119190611d13565b5b60030b92505050949350505050565b5f5f5f61016773ffffffffffffffffffffffffffffffffffffffff16635b8f858460e01b8686604051602401611058929190612763565b604051602081830303815290604052907bffffffffffffffffffffffffffffffffffffffffffffffffffffffff19166020820180517bffffffffffffffffffffffffffffffffffffffffffffffffffffffff83818316178352505050506040516110c29190611cc7565b5f604051808303815f865af19150503d805f81146110fb576040519150601f19603f3d011682016040523d82523d5f602084013e611100565b606091505b509150915081611111576015611126565b808060200190518101906111259190611d13565b5b60030b9250505092915050565b5f5f5f61016773ffffffffffffffffffffffffffffffffffffffff166352f9138760e01b868660405160240161116a929190612763565b604051602081830303815290604052907bffffffffffffffffffffffffffffffffffffffffffffffffffffffff19166020820180517bffffffffffffffffffffffffffffffffffffffffffffffffffffffff83818316178352505050506040516111d49190611cc7565b5f604051808303815f865af19150503d805f811461120d576040519150601f19603f3d011682016040523d82523d5f602084013e611212565b606091505b509150915081611223576015611238565b808060200190518101906112379190611d13565b5b60030b9250505092915050565b5f5f5f61016773ffffffffffffffffffffffffffffffffffffffff1663efef57f960e01b87878760405160240161127e939291906127cd565b604051602081830303815290604052907bffffffffffffffffffffffffffffffffffffffffffffffffffffffff19166020820180517bffffffffffffffffffffffffffffffffffffffffffffffffffffffff83818316178352505050506040516112e89190611cc7565b5f604051808303815f865af19150503d805f8114611321576040519150601f19603f3d011682016040523d82523d5f602084013e611326565b606091505b50915091508161133757601561134c565b8080602001905181019061134b9190611d13565b5b60030b925050509392505050565b5f5f5f61016773ffffffffffffffffffffffffffffffffffffffff16637c41ad2c60e01b8560405160240161138f9190612802565b604051602081830303815290604052907bffffffffffffffffffffffffffffffffffffffffffffffffffffffff19166020820180517bffffffffffffffffffffffffffffffffffffffffffffffffffffffff83818316178352505050506040516113f99190611cc7565b5f604051808303815f865af19150503d805f8114611432576040519150601f19603f3d011682016040523d82523d5f602084013e611437565b606091505b50915091508161144857601561145d565b8080602001905181019061145c9190611d13565b5b60030b92505050919050565b5f5f5f61016773ffffffffffffffffffffffffffffffffffffffff16633b3bff0f60e01b8560405160240161149e9190612802565b604051602081830303815290604052907bffffffffffffffffffffffffffffffffffffffffffffffffffffffff19166020820180517bffffffffffffffffffffffffffffffffffffffffffffffffffffffff83818316178352505050506040516115089190611cc7565b5f604051808303815f865af19150503d805f8114611541576040519150601f19603f3d011682016040523d82523d5f602084013e611546565b606091505b50915091508161155757601561156c565b8080602001905181019061156b9190611d13565b5b60030b92505050919050565b5f61159e83600681111561158f5761158e61281b565b5b826117de90919063ffffffff16565b90506115c58260068111156115b6576115b561281b565b5b826117de90919063ffffffff16565b905092915050565b6115d5611810565b5f60048111156115e8576115e761281b565b5b8360048111156115fb576115fa61281b565b5b03611615576001815f01901515908115158152505061179a565b600160048111156116295761162861281b565b5b83600481111561163c5761163b61281b565b5b0361169e575f5f9054906101000a900473ffffffffffffffffffffffffffffffffffffffff16816020019073ffffffffffffffffffffffffffffffffffffffff16908173ffffffffffffffffffffffffffffffffffffffff1681525050611799565b600260048111156116b2576116b161281b565b5b8360048111156116c5576116c461281b565b5b036116d857818160400181905250611798565b600360048111156116ec576116eb61281b565b5b8360048111156116ff576116fe61281b565b5b0361171257818160600181905250611797565b6004808111156117255761172461281b565b5b8360048111156117385761173761281b565b5b03611796575f5f9054906101000a900473ffffffffffffffffffffffffffffffffffffffff16816080019073ffffffffffffffffffffffffffffffffffffffff16908173ffffffffffffffffffffffffffffffffffffffff16815250505b5b5b5b5b92915050565b5f60015f8360068111156117b7576117b661281b565b5b60068111156117c9576117c861281b565b5b81526020019081526020015f20549050919050565b5f8160ff166001901b8317905092915050565b60405180604001604052805f815260200161180a611810565b81525090565b6040518060a001604052805f151581526020015f73ffffffffffffffffffffffffffffffffffffffff16815260200160608152602001606081526020015f73ffffffffffffffffffffffffffffffffffffffff1681525090565b5f604051905090565b5f5ffd5b5f5ffd5b5f73ffffffffffffffffffffffffffffffffffffffff82169050919050565b5f6118a48261187b565b9050919050565b6118b48161189a565b81146118be575f5ffd5b50565b5f813590506118cf816118ab565b92915050565b5f819050919050565b6118e7816118d5565b81146118f1575f5ffd5b50565b5f81359050611902816118de565b92915050565b5f5f5f5f608085870312156119205761191f611873565b5b5f61192d878288016118c1565b945050602061193e878288016118c1565b935050604061194f878288016118c1565b9250506060611960878288016118f4565b91505092959194509250565b5f8160070b9050919050565b6119818161196c565b82525050565b5f60208201905061199a5f830184611978565b92915050565b5f5ffd5b5f5ffd5b5f601f19601f8301169050919050565b7f4e487b71000000000000000000000000000000000000000000000000000000005f52604160045260245ffd5b6119ee826119a8565b810181811067ffffffffffffffff82111715611a0d57611a0c6119b8565b5b80604052505050565b5f611a1f61186a565b9050611a2b82826119e5565b919050565b5f67ffffffffffffffff821115611a4a57611a496119b8565b5b611a53826119a8565b9050602081019050919050565b828183375f83830152505050565b5f611a80611a7b84611a30565b611a16565b905082815260208101848484011115611a9c57611a9b6119a4565b5b611aa7848285611a60565b509392505050565b5f82601f830112611ac357611ac26119a0565b5b8135611ad3848260208601611a6e565b91505092915050565b5f5f60408385031215611af257611af1611873565b5b5f611aff858286016118c1565b925050602083013567ffffffffffffffff811115611b2057611b1f611877565b5b611b2c85828601611aaf565b9150509250929050565b5f819050919050565b611b4881611b36565b82525050565b5f81519050919050565b5f82825260208201905092915050565b8281835e5f83830152505050565b5f611b8082611b4e565b611b8a8185611b58565b9350611b9a818560208601611b68565b611ba3816119a8565b840191505092915050565b5f604082019050611bc15f830185611b3f565b8181036020830152611bd38184611b76565b90509392505050565b5f5f5f60608486031215611bf357611bf2611873565b5b5f611c00868287016118c1565b9350506020611c11868287016118c1565b9250506040611c22868287016118c1565b9150509250925092565b611c358161189a565b82525050565b611c44816118d5565b82525050565b5f608082019050611c5d5f830187611c2c565b611c6a6020830186611c2c565b611c776040830185611c2c565b611c846060830184611c3b565b95945050505050565b5f81905092915050565b5f611ca182611b4e565b611cab8185611c8d565b9350611cbb818560208601611b68565b80840191505092915050565b5f611cd28284611c97565b915081905092915050565b5f8160030b9050919050565b611cf281611cdd565b8114611cfc575f5ffd5b50565b5f81519050611d0d81611ce9565b92915050565b5f60208284031215611d2857611d27611873565b5b5f611d3584828501611cff565b91505092915050565b5f604082019050611d515f830185611c2c565b8181036020830152611d638184611b76565b90509392505050565b5f8115159050919050565b611d8081611d6c565b82525050565b5f604082019050611d995f830185611d77565b8181036020830152611dab8184611b76565b90509392505050565b7f4e487b71000000000000000000000000000000000000000000000000000000005f52603260045260245ffd5b5f82825260208201905092915050565b7f546f6b656e206372656174696f6e206661696c656400000000000000000000005f82015250565b5f611e25601583611de1565b9150611e3082611df1565b602082019050919050565b5f6020820190508181035f830152611e5281611e19565b9050919050565b7f546f6b656e204173736f6369617465206f66206661696c656420666f722061635f8201527f6331000000000000000000000000000000000000000000000000000000000000602082015250565b5f611eb3602283611de1565b9150611ebe82611e59565b604082019050919050565b5f6020820190508181035f830152611ee081611ea7565b9050919050565b7f546f6b656e204173736f6369617465206661696c656420666f722061636331005f82015250565b5f611f1b601f83611de1565b9150611f2682611ee7565b602082019050919050565b5f6020820190508181035f830152611f4881611f0f565b9050919050565b7f4772616e744b7963206661696c656420666f72206163633100000000000000005f82015250565b5f611f83601883611de1565b9150611f8e82611f4f565b602082019050919050565b5f6020820190508181035f830152611fb081611f77565b9050919050565b7f4772616e744b7943206661696c656420666f72206163633200000000000000005f82015250565b5f611feb601883611de1565b9150611ff682611fb7565b602082019050919050565b5f6020820190508181035f83015261201881611fdf565b9050919050565b7f5472616e7366657220746f6b656e206661696c65642066726f6d2074726561735f8201527f75727920746f2061636331000000000000000000000000000000000000000000602082015250565b5f612079602b83611de1565b91506120848261201f565b604082019050919050565b5f6020820190508181035f8301526120a68161206d565b9050919050565b7f467265657a6520746f6b656e206661696c656420666f722061636331000000005f82015250565b5f6120e1601c83611de1565b91506120ec826120ad565b602082019050919050565b5f6020820190508181035f83015261210e816120d5565b9050919050565b7f556e667265657a6520746f6b656e206661696c656420666f72206163633100005f82015250565b5f612149601e83611de1565b915061215482612115565b602082019050919050565b5f6020820190508181035f8301526121768161213d565b9050919050565b7f5472616e7366657220746f6b656e206661696c65642066726f6d2061636331205f8201527f746f206163633200000000000000000000000000000000000000000000000000602082015250565b5f6121d7602783611de1565b91506121e28261217d565b604082019050919050565b5f6020820190508181035f830152612204816121cb565b9050919050565b7f5769706520746f6b656e206661696c656420666f7220616363320000000000005f82015250565b5f61223f601a83611de1565b915061224a8261220b565b602082019050919050565b5f6020820190508181035f83015261226c81612233565b9050919050565b7f506175736520746f6b656e206661696c656400000000000000000000000000005f82015250565b5f6122a7601283611de1565b91506122b282612273565b602082019050919050565b5f6020820190508181035f8301526122d48161229b565b9050919050565b7f556e706175736520746f6b656e206661696c65640000000000000000000000005f82015250565b5f61230f601483611de1565b915061231a826122db565b602082019050919050565b5f6020820190508181035f83015261233c81612303565b9050919050565b5f81519050919050565b5f82825260208201905092915050565b5f61236782612343565b612371818561234d565b9350612381818560208601611b68565b61238a816119a8565b840191505092915050565b61239e8161189a565b82525050565b6123ad81611d6c565b82525050565b6123bc8161196c565b82525050565b5f81519050919050565b5f82825260208201905092915050565b5f819050602082019050919050565b6123f4816118d5565b82525050565b5f82825260208201905092915050565b5f61241482611b4e565b61241e81856123fa565b935061242e818560208601611b68565b612437816119a8565b840191505092915050565b5f60a083015f8301516124575f8601826123a4565b50602083015161246a6020860182612395565b5060408301518482036040860152612482828261240a565b9150506060830151848203606086015261249c828261240a565b91505060808301516124b16080860182612395565b508091505092915050565b5f604083015f8301516124d15f8601826123eb565b50602083015184820360208601526124e98282612442565b9150508091505092915050565b5f61250183836124bc565b905092915050565b5f602082019050919050565b5f61251f826123c2565b61252981856123cc565b93508360208202850161253b856123dc565b805f5b85811015612576578484038952815161255785826124f6565b945061256283612509565b925060208a0199505060018101905061253e565b50829750879550505050505092915050565b606082015f82015161259c5f8501826123b3565b5060208201516125af6020850182612395565b5060408201516125c260408501826123b3565b50505050565b5f61016083015f8301518482035f8601526125e3828261235d565b915050602083015184820360208601526125fd828261235d565b91505060408301516126126040860182612395565b506060830151848203606086015261262a828261235d565b915050608083015161263f60808601826123a4565b5060a083015161265260a08601826123b3565b5060c083015161266560c08601826123a4565b5060e083015184820360e086015261267d8282612515565b915050610100830151612694610100860182612588565b508091505092915050565b6126a881611cdd565b82525050565b5f6060820190508181035f8301526126c681866125c8565b90506126d56020830185611978565b6126e2604083018461269f565b949350505050565b5f6126f48261187b565b9050919050565b612704816126ea565b811461270e575f5ffd5b50565b5f8151905061271f816126fb565b92915050565b5f5f6040838503121561273b5761273a611873565b5b5f61274885828601611cff565b925050602061275985828601612711565b9150509250929050565b5f6040820190506127765f830185611c2c565b6127836020830184611c2c565b9392505050565b5f60808201905061279d5f830187611c2c565b6127aa6020830186611c2c565b6127b76040830185611c2c565b6127c46060830184611978565b95945050505050565b5f6060820190506127e05f830186611c2c565b6127ed6020830185611c2c565b6127fa6040830184611978565b949350505050565b5f6020820190506128155f830184611c2c565b92915050565b7f4e487b71000000000000000000000000000000000000000000000000000000005f52602160045260245ffdfea2646970667358221220c817066196640954b234ec4606bab073b55f1167c9805aa7cce47d0d88f998ef64736f6c634300081e0033",
  "linkReferences": {},
  "deployedLinkReferences": {}
}