{
  "_format": "hh-sol-artifact-1",
  "contractName": "PrecompileTestContract",
  "sourceName": "contracts/PrecompileTestContract.sol",
  "abi": [
    {
      "anonymous": false,
      "inputs": [
        {
          "indexed": false,
          "internalType": "bool",
          "name": "",
          "type": "bool"
        },
        {
          "indexed": false,
          "internalType": "bytes",
          "name": "",
          "type": "bytes"
        }
      ],
      "name": "CallResponseEvent",
      "type": "event"
    },
    {
      "inputs": [
        {
          "internalType": "address",
          "name": "token",
          "type": "address"
        },
        {
          "internalType": "address",
          "name": "owner",
          "type": "address"
        },
        {
          "internalType": "address",
          "name": "spender",
          "type": "address"
        }
      ],
      "name": "allowanceRedirect",
      "outputs": [
        {
          "internalType": "bytes",
          "name": "result",
          "type": "bytes"
        }
      ],
      "stateMutability": "nonpayable",
      "type": "function"
    },
    {
      "inputs": [
        {
          "internalType": "address",
          "name": "token",
          "type": "address"
        },
        {
          "internalType": "address",
          "name": "receiver",
          "type": "address"
        },
        {
          "internalType": "uint256",
          "name": "amount",
          "type": "uint256"
        }
      ],
      "name": "approveFungibleTokenTransferFromGetAllowanceGetBalance",
      "outputs": [
        {
          "internalType": "uint256",
          "name": "",
          "type": "uint256"
        },
        {
          "internalType": "uint256",
          "name": "",
          "type": "uint256"
        },
        {
          "internalType": "uint256",
          "name": "",
          "type": "uint256"
        },
        {
          "internalType": "uint256",
          "name": "",
          "type": "uint256"
        }
      ],
      "stateMutability": "nonpayable",
      "type": "function"
    },
    {
      "inputs": [
        {
          "internalType": "address",
          "name": "token",
          "type": "address"
        },
        {
          "internalType": "address",
          "name": "receiver",
          "type": "address"
        },
        {
          "internalType": "uint256",
          "name": "serialNumber",
          "type": "uint256"
        }
      ],
      "name": "approveNftAndTransfer",
      "outputs": [
        {
          "internalType": "address",
          "name": "",
          "type": "address"
        },
        {
          "internalType": "address",
          "name": "",
          "type": "address"
        },
        {
          "internalType": "address",
          "name": "",
          "type": "address"
        },
        {
          "internalType": "address",
          "name": "",
          "type": "address"
        }
      ],
      "stateMutability": "nonpayable",
      "type": "function"
    },
    {
      "inputs": [
        {
          "internalType": "address",
          "name": "token",
          "type": "address"
        },
        {
          "internalType": "address",
          "name": "spender",
          "type": "address"
        },
        {
          "internalType": "uint256",
          "name": "amount",
          "type": "uint256"
        }
      ],
      "name": "approveRedirect",
      "outputs": [
        {
          "internalType": "bytes",
          "name": "result",
          "type": "bytes"
        }
      ],
      "stateMutability": "nonpayable",
      "type": "function"
    },
    {
      "inputs": [
        {
          "internalType": "address",
          "name": "token",
          "type": "address"
        },
        {
          "internalType": "address",
          "name": "spender",
          "type": "address"
        },
        {
          "internalType": "uint256",
          "name": "amount",
          "type": "uint256"
        },
        {
          "internalType": "uint256",
          "name": "serialNumber",
          "type": "uint256"
        }
      ],
      "name": "approveTokenGetAllowance",
      "outputs": [
        {
          "internalType": "uint256",
          "name": "",
          "type": "uint256"
        },
        {
          "internalType": "address",
          "name": "",
          "type": "address"
        }
      ],
      "stateMutability": "nonpayable",
      "type": "function"
    },
    {
      "inputs": [
        {
          "internalType": "address",
          "name": "token",
          "type": "address"
        },
        {
          "internalType": "address",
          "name": "from",
          "type": "address"
        },
        {
          "internalType": "address",
          "name": "to",
          "type": "address"
        },
        {
          "internalType": "uint256",
          "name": "amount",
          "type": "uint256"
        },
        {
          "internalType": "uint256",
          "name": "serialNumber",
          "type": "uint256"
        }
      ],
      "name": "associateTokenDissociateFailTransfer",
      "outputs": [
        {
          "internalType": "int256",
          "name": "",
          "type": "int256"
        },
        {
          "internalType": "int256",
          "name": "",
          "type": "int256"
        }
      ],
      "stateMutability": "nonpayable",
      "type": "function"
    },
    {
      "inputs": [
        {
          "internalType": "address",
          "name": "token",
          "type": "address"
        },
        {
          "internalType": "address",
          "name": "account",
          "type": "address"
        }
      ],
      "name": "balanceOfRedirect",
      "outputs": [
        {
          "internalType": "bytes",
          "name": "result",
          "type": "bytes"
        }
      ],
      "stateMutability": "nonpayable",
      "type": "function"
    },
    {
      "inputs": [
        {
          "internalType": "address",
          "name": "token",
          "type": "address"
        },
        {
          "internalType": "int64",
          "name": "amount",
          "type": "int64"
        },
        {
          "internalType": "int64[]",
          "name": "serialNumbers",
          "type": "int64[]"
        },
        {
          "internalType": "address",
          "name": "treasury",
          "type": "address"
        }
      ],
      "name": "burnTokenGetTotalSupplyAndBalanceOfTreasury",
      "outputs": [
        {
          "internalType": "uint256",
          "name": "",
          "type": "uint256"
        },
        {
          "internalType": "uint256",
          "name": "",
          "type": "uint256"
        },
        {
          "internalType": "int256",
          "name": "",
          "type": "int256"
        },
        {
          "internalType": "int256",
          "name": "",
          "type": "int256"
        }
      ],
      "stateMutability": "nonpayable",
      "type": "function"
    },
    {
      "inputs": [
        {
          "internalType": "address",
          "name": "token",
          "type": "address"
        }
      ],
      "name": "decimalsRedirect",
      "outputs": [
        {
          "internalType": "bytes",
          "name": "result",
          "type": "bytes"
        }
      ],
      "stateMutability": "nonpayable",
      "type": "function"
    },
    {
      "inputs": [
        {
          "internalType": "address",
          "name": "token",
          "type": "address"
        },
        {
          "internalType": "address",
          "name": "account",
          "type": "address"
        }
      ],
      "name": "freezeTokenGetFreezeStatusUnfreezeGetFreezeStatus",
      "outputs": [
        {
          "internalType": "bool",
          "name": "",
          "type": "bool"
        },
        {
          "internalType": "bool",
          "name": "",
          "type": "bool"
        }
      ],
      "stateMutability": "nonpayable",
      "type": "function"
    },
    {
      "inputs": [
        {
          "internalType": "address",
          "name": "token",
          "type": "address"
        },
        {
          "internalType": "uint256",
          "name": "tokenId",
          "type": "uint256"
        }
      ],
      "name": "getApprovedRedirect",
      "outputs": [
        {
          "internalType": "bytes",
          "name": "result",
          "type": "bytes"
        }
      ],
      "stateMutability": "nonpayable",
      "type": "function"
    },
    {
      "inputs": [
        {
          "internalType": "address",
          "name": "token",
          "type": "address"
        }
      ],
      "name": "getCustomFeesForToken",
      "outputs": [
        {
          "components": [
            {
              "internalType": "int64",
              "name": "amount",
              "type": "int64"
            },
            {
              "internalType": "address",
              "name": "tokenId",
              "type": "address"
            },
            {
              "internalType": "bool",
              "name": "useHbarsForPayment",
              "type": "bool"
            },
            {
              "internalType": "bool",
              "name": "useCurrentTokenForPayment",
              "type": "bool"
            },
            {
              "internalType": "address",
              "name": "feeCollector",
              "type": "address"
            }
          ],
          "internalType": "struct IHederaTokenService.FixedFee[]",
          "name": "fixedFees",
          "type": "tuple[]"
        },
        {
          "components": [
            {
              "internalType": "int64",
              "name": "numerator",
              "type": "int64"
            },
            {
              "internalType": "int64",
              "name": "denominator",
              "type": "int64"
            },
            {
              "internalType": "int64",
              "name": "minimumAmount",
              "type": "int64"
            },
            {
              "internalType": "int64",
              "name": "maximumAmount",
              "type": "int64"
            },
            {
              "internalType": "bool",
              "name": "netOfTransfers",
              "type": "bool"
            },
            {
              "internalType": "address",
              "name": "feeCollector",
              "type": "address"
            }
          ],
          "internalType": "struct IHederaTokenService.FractionalFee[]",
          "name": "fractionalFees",
          "type": "tuple[]"
        },
        {
          "components": [
            {
              "internalType": "int64",
              "name": "numerator",
              "type": "int64"
            },
            {
              "internalType": "int64",
              "name": "denominator",
              "type": "int64"
            },
            {
              "internalType": "int64",
              "name": "amount",
              "type": "int64"
            },
            {
              "internalType": "address",
              "name": "tokenId",
              "type": "address"
            },
            {
              "internalType": "bool",
              "name": "useHbarsForPayment",
              "type": "bool"
            },
            {
              "internalType": "address",
              "name": "feeCollector",
              "type": "address"
            }
          ],
          "internalType": "struct IHederaTokenService.RoyaltyFee[]",
          "name": "royaltyFees",
          "type": "tuple[]"
        }
      ],
      "stateMutability": "nonpayable",
      "type": "function"
    },
    {
      "inputs": [
        {
          "internalType": "address",
          "name": "token",
          "type": "address"
        }
      ],
      "name": "getExpiryInfoForToken",
      "outputs": [
        {
          "components": [
            {
              "internalType": "int64",
              "name": "second",
              "type": "int64"
            },
            {
              "internalType": "address",
              "name": "autoRenewAccount",
              "type": "address"
            },
            {
              "internalType": "int64",
              "name": "autoRenewPeriod",
              "type": "int64"
            }
          ],
          "internalType": "struct IHederaTokenService.Expiry",
          "name": "expiry",
          "type": "tuple"
        }
      ],
      "stateMutability": "nonpayable",
      "type": "function"
    },
    {
      "inputs": [
        {
          "internalType": "address",
          "name": "token",
          "type": "address"
        }
      ],
      "name": "getInformationForFungibleToken",
      "outputs": [
        {
          "components": [
            {
              "components": [
                {
                  "components": [
                    {
                      "internalType": "string",
                      "name": "name",
                      "type": "string"
                    },
                    {
                      "internalType": "string",
                      "name": "symbol",
                      "type": "string"
                    },
                    {
                      "internalType": "address",
                      "name": "treasury",
                      "type": "address"
                    },
                    {
                      "internalType": "string",
                      "name": "memo",
                      "type": "string"
                    },
                    {
                      "internalType": "bool",
                      "name": "tokenSupplyType",
                      "type": "bool"
                    },
                    {
                      "internalType": "int64",
                      "name": "maxSupply",
                      "type": "int64"
                    },
                    {
                      "internalType": "bool",
                      "name": "freezeDefault",
                      "type": "bool"
                    },
                    {
                      "components": [
                        {
                          "internalType": "uint256",
                          "name": "keyType",
                          "type": "uint256"
                        },
                        {
                          "components": [
                            {
                              "internalType": "bool",
                              "name": "inheritAccountKey",
                              "type": "bool"
                            },
                            {
                              "internalType": "address",
                              "name": "contractId",
                              "type": "address"
                            },
                            {
                              "internalType": "bytes",
                              "name": "ed25519",
                              "type": "bytes"
                            },
                            {
                              "internalType": "bytes",
                              "name": "ECDSA_secp256k1",
                              "type": "bytes"
                            },
                            {
                              "internalType": "address",
                              "name": "delegatableContractId",
                              "type": "address"
                            }
                          ],
                          "internalType": "struct IHederaTokenService.KeyValue",
                          "name": "key",
                          "type": "tuple"
                        }
                      ],
                      "internalType": "struct IHederaTokenService.TokenKey[]",
                      "name": "tokenKeys",
                      "type": "tuple[]"
                    },
                    {
                      "components": [
                        {
                          "internalType": "int64",
                          "name": "second",
                          "type": "int64"
                        },
                        {
                          "internalType": "address",
                          "name": "autoRenewAccount",
                          "type": "address"
                        },
                        {
                          "internalType": "int64",
                          "name": "autoRenewPeriod",
                          "type": "int64"
                        }
                      ],
                      "internalType": "struct IHederaTokenService.Expiry",
                      "name": "expiry",
                      "type": "tuple"
                    }
                  ],
                  "internalType": "struct IHederaTokenService.HederaToken",
                  "name": "token",
                  "type": "tuple"
                },
                {
                  "internalType": "int64",
                  "name": "totalSupply",
                  "type": "int64"
                },
                {
                  "internalType": "bool",
                  "name": "deleted",
                  "type": "bool"
                },
                {
                  "internalType": "bool",
                  "name": "defaultKycStatus",
                  "type": "bool"
                },
                {
                  "internalType": "bool",
                  "name": "pauseStatus",
                  "type": "bool"
                },
                {
                  "components": [
                    {
                      "internalType": "int64",
                      "name": "amount",
                      "type": "int64"
                    },
                    {
                      "internalType": "address",
                      "name": "tokenId",
                      "type": "address"
                    },
                    {
                      "internalType": "bool",
                      "name": "useHbarsForPayment",
                      "type": "bool"
                    },
                    {
                      "internalType": "bool",
                      "name": "useCurrentTokenForPayment",
                      "type": "bool"
                    },
                    {
                      "internalType": "address",
                      "name": "feeCollector",
                      "type": "address"
                    }
                  ],
                  "internalType": "struct IHederaTokenService.FixedFee[]",
                  "name": "fixedFees",
                  "type": "tuple[]"
                },
                {
                  "components": [
                    {
                      "internalType": "int64",
                      "name": "numerator",
                      "type": "int64"
                    },
                    {
                      "internalType": "int64",
                      "name": "denominator",
                      "type": "int64"
                    },
                    {
                      "internalType": "int64",
                      "name": "minimumAmount",
                      "type": "int64"
                    },
                    {
                      "internalType": "int64",
                      "name": "maximumAmount",
                      "type": "int64"
                    },
                    {
                      "internalType": "bool",
                      "name": "netOfTransfers",
                      "type": "bool"
                    },
                    {
                      "internalType": "address",
                      "name": "feeCollector",
                      "type": "address"
                    }
                  ],
                  "internalType": "struct IHederaTokenService.FractionalFee[]",
                  "name": "fractionalFees",
                  "type": "tuple[]"
                },
                {
                  "components": [
                    {
                      "internalType": "int64",
                      "name": "numerator",
                      "type": "int64"
                    },
                    {
                      "internalType": "int64",
                      "name": "denominator",
                      "type": "int64"
                    },
                    {
                      "internalType": "int64",
                      "name": "amount",
                      "type": "int64"
                    },
                    {
                      "internalType": "address",
                      "name": "tokenId",
                      "type": "address"
                    },
                    {
                      "internalType": "bool",
                      "name": "useHbarsForPayment",
                      "type": "bool"
                    },
                    {
                      "internalType": "address",
                      "name": "feeCollector",
                      "type": "address"
                    }
                  ],
                  "internalType": "struct IHederaTokenService.RoyaltyFee[]",
                  "name": "royaltyFees",
                  "type": "tuple[]"
                },
                {
                  "internalType": "string",
                  "name": "ledgerId",
                  "type": "string"
                }
              ],
              "internalType": "struct IHederaTokenService.TokenInfo",
              "name": "tokenInfo",
              "type": "tuple"
            },
            {
              "internalType": "int32",
              "name": "decimals",
              "type": "int32"
            }
          ],
          "internalType": "struct IHederaTokenService.FungibleTokenInfo",
          "name": "fungibleTokenInfo",
          "type": "tuple"
        }
      ],
      "stateMutability": "nonpayable",
      "type": "function"
    },
    {
      "inputs": [
        {
          "internalType": "address",
          "name": "token",
          "type": "address"
        },
        {
          "internalType": "int64",
          "name": "serialNumber",
          "type": "int64"
        }
      ],
      "name": "getInformationForNonFungibleToken",
      "outputs": [
        {
          "components": [
            {
              "components": [
                {
                  "components": [
                    {
                      "internalType": "string",
                      "name": "name",
                      "type": "string"
                    },
                    {
                      "internalType": "string",
                      "name": "symbol",
                      "type": "string"
                    },
                    {
                      "internalType": "address",
                      "name": "treasury",
                      "type": "address"
                    },
                    {
                      "internalType": "string",
                      "name": "memo",
                      "type": "string"
                    },
                    {
                      "internalType": "bool",
                      "name": "tokenSupplyType",
                      "type": "bool"
                    },
                    {
                      "internalType": "int64",
                      "name": "maxSupply",
                      "type": "int64"
                    },
                    {
                      "internalType": "bool",
                      "name": "freezeDefault",
                      "type": "bool"
                    },
                    {
                      "components": [
                        {
                          "internalType": "uint256",
                          "name": "keyType",
                          "type": "uint256"
                        },
                        {
                          "components": [
                            {
                              "internalType": "bool",
                              "name": "inheritAccountKey",
                              "type": "bool"
                            },
                            {
                              "internalType": "address",
                              "name": "contractId",
                              "type": "address"
                            },
                            {
                              "internalType": "bytes",
                              "name": "ed25519",
                              "type": "bytes"
                            },
                            {
                              "internalType": "bytes",
                              "name": "ECDSA_secp256k1",
                              "type": "bytes"
                            },
                            {
                              "internalType": "address",
                              "name": "delegatableContractId",
                              "type": "address"
                            }
                          ],
                          "internalType": "struct IHederaTokenService.KeyValue",
                          "name": "key",
                          "type": "tuple"
                        }
                      ],
                      "internalType": "struct IHederaTokenService.TokenKey[]",
                      "name": "tokenKeys",
                      "type": "tuple[]"
                    },
                    {
                      "components": [
                        {
                          "internalType": "int64",
                          "name": "second",
                          "type": "int64"
                        },
                        {
                          "internalType": "address",
                          "name": "autoRenewAccount",
                          "type": "address"
                        },
                        {
                          "internalType": "int64",
                          "name": "autoRenewPeriod",
                          "type": "int64"
                        }
                      ],
                      "internalType": "struct IHederaTokenService.Expiry",
                      "name": "expiry",
                      "type": "tuple"
                    }
                  ],
                  "internalType": "struct IHederaTokenService.HederaToken",
                  "name": "token",
                  "type": "tuple"
                },
                {
                  "internalType": "int64",
                  "name": "totalSupply",
                  "type": "int64"
                },
                {
                  "internalType": "bool",
                  "name": "deleted",
                  "type": "bool"
                },
                {
                  "internalType": "bool",
                  "name": "defaultKycStatus",
                  "type": "bool"
                },
                {
                  "internalType": "bool",
                  "name": "pauseStatus",
                  "type": "bool"
                },
                {
                  "components": [
                    {
                      "internalType": "int64",
                      "name": "amount",
                      "type": "int64"
                    },
                    {
                      "internalType": "address",
                      "name": "tokenId",
                      "type": "address"
                    },
                    {
                      "internalType": "bool",
                      "name": "useHbarsForPayment",
                      "type": "bool"
                    },
                    {
                      "internalType": "bool",
                      "name": "useCurrentTokenForPayment",
                      "type": "bool"
                    },
                    {
                      "internalType": "address",
                      "name": "feeCollector",
                      "type": "address"
                    }
                  ],
                  "internalType": "struct IHederaTokenService.FixedFee[]",
                  "name": "fixedFees",
                  "type": "tuple[]"
                },
                {
                  "components": [
                    {
                      "internalType": "int64",
                      "name": "numerator",
                      "type": "int64"
                    },
                    {
                      "internalType": "int64",
                      "name": "denominator",
                      "type": "int64"
                    },
                    {
                      "internalType": "int64",
                      "name": "minimumAmount",
                      "type": "int64"
                    },
                    {
                      "internalType": "int64",
                      "name": "maximumAmount",
                      "type": "int64"
                    },
                    {
                      "internalType": "bool",
                      "name": "netOfTransfers",
                      "type": "bool"
                    },
                    {
                      "internalType": "address",
                      "name": "feeCollector",
                      "type": "address"
                    }
                  ],
                  "internalType": "struct IHederaTokenService.FractionalFee[]",
                  "name": "fractionalFees",
                  "type": "tuple[]"
                },
                {
                  "components": [
                    {
                      "internalType": "int64",
                      "name": "numerator",
                      "type": "int64"
                    },
                    {
                      "internalType": "int64",
                      "name": "denominator",
                      "type": "int64"
                    },
                    {
                      "internalType": "int64",
                      "name": "amount",
                      "type": "int64"
                    },
                    {
                      "internalType": "address",
                      "name": "tokenId",
                      "type": "address"
                    },
                    {
                      "internalType": "bool",
                      "name": "useHbarsForPayment",
                      "type": "bool"
                    },
                    {
                      "internalType": "address",
                      "name": "feeCollector",
                      "type": "address"
                    }
                  ],
                  "internalType": "struct IHederaTokenService.RoyaltyFee[]",
                  "name": "royaltyFees",
                  "type": "tuple[]"
                },
                {
                  "internalType": "string",
                  "name": "ledgerId",
                  "type": "string"
                }
              ],
              "internalType": "struct IHederaTokenService.TokenInfo",
              "name": "tokenInfo",
              "type": "tuple"
            },
            {
              "internalType": "int64",
              "name": "serialNumber",
              "type": "int64"
            },
            {
              "internalType": "address",
              "name": "ownerId",
              "type": "address"
            },
            {
              "internalType": "int64",
              "name": "creationTime",
              "type": "int64"
            },
            {
              "internalType": "bytes",
              "name": "metadata",
              "type": "bytes"
            },
            {
              "internalType": "address",
              "name": "spenderId",
              "type": "address"
            }
          ],
          "internalType": "struct IHederaTokenService.NonFungibleTokenInfo",
          "name": "nonFungibleTokenInfo",
          "type": "tuple"
        }
      ],
      "stateMutability": "nonpayable",
      "type": "function"
    },
    {
      "inputs": [
        {
          "internalType": "address",
          "name": "token",
          "type": "address"
        }
      ],
      "name": "getInformationForToken",
      "outputs": [
        {
          "components": [
            {
              "components": [
                {
                  "internalType": "string",
                  "name": "name",
                  "type": "string"
                },
                {
                  "internalType": "string",
                  "name": "symbol",
                  "type": "string"
                },
                {
                  "internalType": "address",
                  "name": "treasury",
                  "type": "address"
                },
                {
                  "internalType": "string",
                  "name": "memo",
                  "type": "string"
                },
                {
                  "internalType": "bool",
                  "name": "tokenSupplyType",
                  "type": "bool"
                },
                {
                  "internalType": "int64",
                  "name": "maxSupply",
                  "type": "int64"
                },
                {
                  "internalType": "bool",
                  "name": "freezeDefault",
                  "type": "bool"
                },
                {
                  "components": [
                    {
                      "internalType": "uint256",
                      "name": "keyType",
                      "type": "uint256"
                    },
                    {
                      "components": [
                        {
                          "internalType": "bool",
                          "name": "inheritAccountKey",
                          "type": "bool"
                        },
                        {
                          "internalType": "address",
                          "name": "contractId",
                          "type": "address"
                        },
                        {
                          "internalType": "bytes",
                          "name": "ed25519",
                          "type": "bytes"
                        },
                        {
                          "internalType": "bytes",
                          "name": "ECDSA_secp256k1",
                          "type": "bytes"
                        },
                        {
                          "internalType": "address",
                          "name": "delegatableContractId",
                          "type": "address"
                        }
                      ],
                      "internalType": "struct IHederaTokenService.KeyValue",
                      "name": "key",
                      "type": "tuple"
                    }
                  ],
                  "internalType": "struct IHederaTokenService.TokenKey[]",
                  "name": "tokenKeys",
                  "type": "tuple[]"
                },
                {
                  "components": [
                    {
                      "internalType": "int64",
                      "name": "second",
                      "type": "int64"
                    },
                    {
                      "internalType": "address",
                      "name": "autoRenewAccount",
                      "type": "address"
                    },
                    {
                      "internalType": "int64",
                      "name": "autoRenewPeriod",
                      "type": "int64"
                    }
                  ],
                  "internalType": "struct IHederaTokenService.Expiry",
                  "name": "expiry",
                  "type": "tuple"
                }
              ],
              "internalType": "struct IHederaTokenService.HederaToken",
              "name": "token",
              "type": "tuple"
            },
            {
              "internalType": "int64",
              "name": "totalSupply",
              "type": "int64"
            },
            {
              "internalType": "bool",
              "name": "deleted",
              "type": "bool"
            },
            {
              "internalType": "bool",
              "name": "defaultKycStatus",
              "type": "bool"
            },
            {
              "internalType": "bool",
              "name": "pauseStatus",
              "type": "bool"
            },
            {
              "components": [
                {
                  "internalType": "int64",
                  "name": "amount",
                  "type": "int64"
                },
                {
                  "internalType": "address",
                  "name": "tokenId",
                  "type": "address"
                },
                {
                  "internalType": "bool",
                  "name": "useHbarsForPayment",
                  "type": "bool"
                },
                {
                  "internalType": "bool",
                  "name": "useCurrentTokenForPayment",
                  "type": "bool"
                },
                {
                  "internalType": "address",
                  "name": "feeCollector",
                  "type": "address"
                }
              ],
              "internalType": "struct IHederaTokenService.FixedFee[]",
              "name": "fixedFees",
              "type": "tuple[]"
            },
            {
              "components": [
                {
                  "internalType": "int64",
                  "name": "numerator",
                  "type": "int64"
                },
                {
                  "internalType": "int64",
                  "name": "denominator",
                  "type": "int64"
                },
                {
                  "internalType": "int64",
                  "name": "minimumAmount",
                  "type": "int64"
                },
                {
                  "internalType": "int64",
                  "name": "maximumAmount",
                  "type": "int64"
                },
                {
                  "internalType": "bool",
                  "name": "netOfTransfers",
                  "type": "bool"
                },
                {
                  "internalType": "address",
                  "name": "feeCollector",
                  "type": "address"
                }
              ],
              "internalType": "struct IHederaTokenService.FractionalFee[]",
              "name": "fractionalFees",
              "type": "tuple[]"
            },
            {
              "components": [
                {
                  "internalType": "int64",
                  "name": "numerator",
                  "type": "int64"
                },
                {
                  "internalType": "int64",
                  "name": "denominator",
                  "type": "int64"
                },
                {
                  "internalType": "int64",
                  "name": "amount",
                  "type": "int64"
                },
                {
                  "internalType": "address",
                  "name": "tokenId",
                  "type": "address"
                },
                {
                  "internalType": "bool",
                  "name": "useHbarsForPayment",
                  "type": "bool"
                },
                {
                  "internalType": "address",
                  "name": "feeCollector",
                  "type": "address"
                }
              ],
              "internalType": "struct IHederaTokenService.RoyaltyFee[]",
              "name": "royaltyFees",
              "type": "tuple[]"
            },
            {
              "internalType": "string",
              "name": "ledgerId",
              "type": "string"
            }
          ],
          "internalType": "struct IHederaTokenService.TokenInfo",
          "name": "tokenInfo",
          "type": "tuple"
        }
      ],
      "stateMutability": "nonpayable",
      "type": "function"
    },
    {
      "inputs": [
        {
          "internalType": "address",
          "name": "token",
          "type": "address"
        },
        {
          "internalType": "uint256",
          "name": "serialNo",
          "type": "uint256"
        }
      ],
      "name": "getOwnerOfRedirect",
      "outputs": [
        {
          "internalType": "bytes",
          "name": "result",
          "type": "bytes"
        }
      ],
      "stateMutability": "nonpayable",
      "type": "function"
    },
    {
      "inputs": [
        {
          "internalType": "address",
          "name": "token",
          "type": "address"
        }
      ],
      "name": "getTokenDefaultFreeze",
      "outputs": [
        {
          "internalType": "bool",
          "name": "",
          "type": "bool"
        }
      ],
      "stateMutability": "nonpayable",
      "type": "function"
    },
    {
      "inputs": [
        {
          "internalType": "address",
          "name": "token",
          "type": "address"
        }
      ],
      "name": "getTokenDefaultKyc",
      "outputs": [
        {
          "internalType": "bool",
          "name": "",
          "type": "bool"
        }
      ],
      "stateMutability": "nonpayable",
      "type": "function"
    },
    {
      "inputs": [
        {
          "internalType": "address",
          "name": "token",
          "type": "address"
        },
        {
          "internalType": "uint256",
          "name": "keyType",
          "type": "uint256"
        }
      ],
      "name": "getTokenKeyPublic",
      "outputs": [
        {
          "components": [
            {
              "internalType": "bool",
              "name": "inheritAccountKey",
              "type": "bool"
            },
            {
              "internalType": "address",
              "name": "contractId",
              "type": "address"
            },
            {
              "internalType": "bytes",
              "name": "ed25519",
              "type": "bytes"
            },
            {
              "internalType": "bytes",
              "name": "ECDSA_secp256k1",
              "type": "bytes"
            },
            {
              "internalType": "address",
              "name": "delegatableContractId",
              "type": "address"
            }
          ],
          "internalType": "struct IHederaTokenService.KeyValue",
          "name": "",
          "type": "tuple"
        }
      ],
      "stateMutability": "nonpayable",
      "type": "function"
    },
    {
      "inputs": [
        {
          "internalType": "address",
          "name": "token",
          "type": "address"
        }
      ],
      "name": "getType",
      "outputs": [
        {
          "internalType": "int256",
          "name": "",
          "type": "int256"
        }
      ],
      "stateMutability": "nonpayable",
      "type": "function"
    },
    {
      "inputs": [
        {
          "internalType": "address",
          "name": "token",
          "type": "address"
        },
        {
          "internalType": "address",
          "name": "from",
          "type": "address"
        },
        {
          "internalType": "address",
          "name": "account",
          "type": "address"
        },
        {
          "internalType": "uint256",
          "name": "amount",
          "type": "uint256"
        }
      ],
      "name": "grantKycRevokeKyc",
      "outputs": [
        {
          "internalType": "bool",
          "name": "",
          "type": "bool"
        },
        {
          "internalType": "int256",
          "name": "",
          "type": "int256"
        },
        {
          "internalType": "bool",
          "name": "",
          "type": "bool"
        },
        {
          "internalType": "int256",
          "name": "",
          "type": "int256"
        },
        {
          "internalType": "int256",
          "name": "",
          "type": "int256"
        }
      ],
      "stateMutability": "nonpayable",
      "type": "function"
    },
    {
      "inputs": [
        {
          "internalType": "address",
          "name": "owner",
          "type": "address"
        },
        {
          "internalType": "address",
          "name": "spender",
          "type": "address"
        }
      ],
      "name": "hbarAllowance",
      "outputs": [
        {
          "internalType": "int256",
          "name": "amount",
          "type": "int256"
        }
      ],
      "stateMutability": "nonpayable",
      "type": "function"
    },
    {
      "inputs": [
        {
          "internalType": "address",
          "name": "token",
          "type": "address"
        },
        {
          "internalType": "address",
          "name": "owner",
          "type": "address"
        },
        {
          "internalType": "address",
          "name": "operator",
          "type": "address"
        }
      ],
      "name": "isApprovedForAllRedirect",
      "outputs": [
        {
          "internalType": "bytes",
          "name": "result",
          "type": "bytes"
        }
      ],
      "stateMutability": "nonpayable",
      "type": "function"
    },
    {
      "inputs": [
        {
          "internalType": "address",
          "name": "token",
          "type": "address"
        },
        {
          "internalType": "address",
          "name": "account",
          "type": "address"
        }
      ],
      "name": "isKycGranted",
      "outputs": [
        {
          "internalType": "bool",
          "name": "",
          "type": "bool"
        }
      ],
      "stateMutability": "nonpayable",
      "type": "function"
    },
    {
      "inputs": [
        {
          "internalType": "address",
          "name": "token",
          "type": "address"
        }
      ],
      "name": "isTokenAddress",
      "outputs": [
        {
          "internalType": "bool",
          "name": "",
          "type": "bool"
        }
      ],
      "stateMutability": "nonpayable",
      "type": "function"
    },
    {
      "inputs": [
        {
          "internalType": "address",
          "name": "token",
          "type": "address"
        },
        {
          "internalType": "address",
          "name": "account",
          "type": "address"
        }
      ],
      "name": "isTokenFrozen",
      "outputs": [
        {
          "internalType": "bool",
          "name": "",
          "type": "bool"
        }
      ],
      "stateMutability": "nonpayable",
      "type": "function"
    },
    {
      "inputs": [
        {
          "internalType": "address",
          "name": "token",
          "type": "address"
        },
        {
          "internalType": "int64",
          "name": "amount",
          "type": "int64"
        },
        {
          "internalType": "bytes[]",
          "name": "metadata",
          "type": "bytes[]"
        },
        {
          "internalType": "address",
          "name": "treasury",
          "type": "address"
        }
      ],
      "name": "mintTokenGetTotalSupplyAndBalanceOfTreasury",
      "outputs": [
        {
          "internalType": "uint256",
          "name": "",
          "type": "uint256"
        },
        {
          "internalType": "uint256",
          "name": "",
          "type": "uint256"
        },
        {
          "internalType": "int256",
          "name": "",
          "type": "int256"
        },
        {
          "internalType": "int256",
          "name": "",
          "type": "int256"
        }
      ],
      "stateMutability": "nonpayable",
      "type": "function"
    },
    {
      "inputs": [
        {
          "internalType": "address",
          "name": "token",
          "type": "address"
        }
      ],
      "name": "nameNFTRedirect",
      "outputs": [
        {
          "internalType": "bytes",
          "name": "result",
          "type": "bytes"
        }
      ],
      "stateMutability": "nonpayable",
      "type": "function"
    },
    {
      "inputs": [
        {
          "internalType": "address",
          "name": "token",
          "type": "address"
        }
      ],
      "name": "nameRedirect",
      "outputs": [
        {
          "internalType": "bytes",
          "name": "result",
          "type": "bytes"
        }
      ],
      "stateMutability": "nonpayable",
      "type": "function"
    },
    {
      "inputs": [
        {
          "internalType": "address",
          "name": "token",
          "type": "address"
        }
      ],
      "name": "pauseTokenGetPauseStatusUnpauseGetPauseStatus",
      "outputs": [
        {
          "internalType": "bool",
          "name": "",
          "type": "bool"
        },
        {
          "internalType": "bool",
          "name": "",
          "type": "bool"
        }
      ],
      "stateMutability": "nonpayable",
      "type": "function"
    },
    {
      "inputs": [
        {
          "internalType": "address",
          "name": "token",
          "type": "address"
        },
        {
          "internalType": "bytes",
          "name": "encodedFunctionSelector",
          "type": "bytes"
        }
      ],
      "name": "redirectForToken",
      "outputs": [
        {
          "internalType": "int256",
          "name": "responseCode",
          "type": "int256"
        },
        {
          "internalType": "bytes",
          "name": "response",
          "type": "bytes"
        }
      ],
      "stateMutability": "nonpayable",
      "type": "function"
    },
    {
      "inputs": [
        {
          "internalType": "address",
          "name": "token",
          "type": "address"
        },
        {
          "internalType": "address",
          "name": "operator",
          "type": "address"
        },
        {
          "internalType": "bool",
          "name": "approved",
          "type": "bool"
        }
      ],
      "name": "setApprovalForAllRedirect",
      "outputs": [
        {
          "internalType": "bytes",
          "name": "result",
          "type": "bytes"
        }
      ],
      "stateMutability": "nonpayable",
      "type": "function"
    },
    {
      "inputs": [
        {
          "internalType": "address",
          "name": "owner",
          "type": "address"
        },
        {
          "internalType": "address",
          "name": "receiver",
          "type": "address"
        },
        {
          "internalType": "int64",
          "name": "amount",
          "type": "int64"
        }
      ],
      "name": "spendHbar",
      "outputs": [
        {
          "internalType": "int256",
          "name": "responseCode",
          "type": "int256"
        }
      ],
      "stateMutability": "nonpayable",
      "type": "function"
    },
    {
      "inputs": [
        {
          "internalType": "address",
          "name": "token",
          "type": "address"
        }
      ],
      "name": "symbolNFTRedirect",
      "outputs": [
        {
          "internalType": "bytes",
          "name": "result",
          "type": "bytes"
        }
      ],
      "stateMutability": "nonpayable",
      "type": "function"
    },
    {
      "inputs": [
        {
          "internalType": "address",
          "name": "token",
          "type": "address"
        }
      ],
      "name": "symbolRedirect",
      "outputs": [
        {
          "internalType": "bytes",
          "name": "result",
          "type": "bytes"
        }
      ],
      "stateMutability": "nonpayable",
      "type": "function"
    },
    {
      "inputs": [
        {
          "internalType": "address",
          "name": "token",
          "type": "address"
        },
        {
          "internalType": "uint256",
          "name": "tokenId",
          "type": "uint256"
        }
      ],
      "name": "tokenURIRedirect",
      "outputs": [
        {
          "internalType": "bytes",
          "name": "result",
          "type": "bytes"
        }
      ],
      "stateMutability": "nonpayable",
      "type": "function"
    },
    {
      "inputs": [
        {
          "internalType": "address",
          "name": "token",
          "type": "address"
        }
      ],
      "name": "totalSupplyRedirect",
      "outputs": [
        {
          "internalType": "bytes",
          "name": "result",
          "type": "bytes"
        }
      ],
      "stateMutability": "nonpayable",
      "type": "function"
    },
    {
      "inputs": [
        {
          "internalType": "address",
          "name": "token",
          "type": "address"
        },
        {
          "internalType": "address",
          "name": "from",
          "type": "address"
        },
        {
          "internalType": "address",
          "name": "to",
          "type": "address"
        },
        {
          "internalType": "uint256",
          "name": "amount",
          "type": "uint256"
        }
      ],
      "name": "transferFrom",
      "outputs": [
        {
          "internalType": "int64",
          "name": "responseCode",
          "type": "int64"
        }
      ],
      "stateMutability": "nonpayable",
      "type": "function"
    },
    {
      "inputs": [
        {
          "internalType": "address",
          "name": "token",
          "type": "address"
        },
        {
          "internalType": "address",
          "name": "from",
          "type": "address"
        },
        {
          "internalType": "address",
          "name": "to",
          "type": "address"
        },
        {
          "internalType": "uint256",
          "name": "serialNumber",
          "type": "uint256"
        }
      ],
      "name": "transferFromNFT",
      "outputs": [
        {
          "internalType": "int64",
          "name": "responseCode",
          "type": "int64"
        }
      ],
      "stateMutability": "nonpayable",
      "type": "function"
    },
    {
      "inputs": [
        {
          "internalType": "address",
          "name": "token",
          "type": "address"
        },
        {
          "internalType": "address",
          "name": "from",
          "type": "address"
        },
        {
          "internalType": "address",
          "name": "to",
          "type": "address"
        },
        {
          "internalType": "uint256",
          "name": "tokenId",
          "type": "uint256"
        }
      ],
      "name": "transferFromNFTRedirect",
      "outputs": [
        {
          "internalType": "bytes",
          "name": "result",
          "type": "bytes"
        }
      ],
      "stateMutability": "nonpayable",
      "type": "function"
    },
    {
      "inputs": [
        {
          "internalType": "address",
          "name": "token",
          "type": "address"
        },
        {
          "internalType": "address",
          "name": "sender",
          "type": "address"
        },
        {
          "internalType": "address",
          "name": "recipient",
          "type": "address"
        },
        {
          "internalType": "uint256",
          "name": "amount",
          "type": "uint256"
        }
      ],
      "name": "transferFromRedirect",
      "outputs": [
        {
          "internalType": "bytes",
          "name": "result",
          "type": "bytes"
        }
      ],
      "stateMutability": "nonpayable",
      "type": "function"
    },
    {
      "inputs": [
        {
          "internalType": "address",
          "name": "token",
          "type": "address"
        },
        {
          "internalType": "address",
          "name": "recipient",
          "type": "address"
        },
        {
          "internalType": "uint256",
          "name": "amount",
          "type": "uint256"
        }
      ],
      "name": "transferRedirect",
      "outputs": [
        {
          "internalType": "bytes",
          "name": "result",
          "type": "bytes"
        }
      ],
      "stateMutability": "nonpayable",
      "type": "function"
    },
    {
      "inputs": [
        {
          "internalType": "address",
          "name": "token",
          "type": "address"
        },
        {
          "internalType": "int64",
          "name": "amount",
          "type": "int64"
        },
        {
          "internalType": "int64[]",
          "name": "serialNumbers",
          "type": "int64[]"
        },
        {
          "internalType": "address",
          "name": "account",
          "type": "address"
        }
      ],
      "name": "wipeTokenGetTotalSupplyAndBalanceOfAccount",
      "outputs": [
        {
          "internalType": "uint256",
          "name": "",
          "type": "uint256"
        },
        {
          "internalType": "uint256",
          "name": "",
          "type": "uint256"
        },
        {
          "internalType": "int256",
          "name": "",
          "type": "int256"
        },
        {
          "internalType": "int256",
          "name": "",
          "type": "int256"
        }
      ],
      "stateMutability": "nonpayable",
      "type": "function"
    }
  ],
  "bytecode": "0x608060405234801561001057600080fd5b50615fde80620000216000396000f3fe608060405234801561001057600080fd5b50600436106102f45760003560e01c80636a7b153611610191578063bff9834f116100e3578063f1e3aea211610097578063fa5c222411610071578063fa5c22241461073d578063fd4d1c2614610750578063fec466661461076357600080fd5b8063f1e3aea214610704578063f429f19b14610717578063f68a81bb1461072a57600080fd5b8063d3f67d27116100c8578063d3f67d2714610692578063ebe1e5fb146106de578063efe60aeb146106f157600080fd5b8063bff9834f146106cb578063c03954671461064457600080fd5b8063971f5a0b11610145578063b132f4941161011f578063b132f49414610692578063b51f3cf5146106a5578063bc2fb00e146106b857600080fd5b8063971f5a0b146106445780639b23d3d914610657578063af4494fb1461066a57600080fd5b806385dec08e1161017657806385dec08e146105fe5780638e5e799614610611578063911ce4251461063157600080fd5b80636a7b1536146105b357806370a06364146105d457600080fd5b80633717ec981161024a578063565ca6fa116101fe578063618dc65e116101d8578063618dc65e14610539578063622488631461055a5780636552dd0a1461056d57600080fd5b8063565ca6fa146104f357806359c16f5a146105065780635b3914931461052657600080fd5b806344f38bc81161022f57806344f38bc81461048e5780634b27d1ac146104b05780634dc21f9f146104e057600080fd5b80633717ec981461047b5780633cc2322f1461047b57600080fd5b806325004c1c116102ac578063319a872311610286578063319a8723146104255780633232fc9f1461044857806335589a131461045b57600080fd5b806325004c1c146103bb5780632b2f5c66146103ce57806330c4a1c6146103e157600080fd5b806315dacbea116102dd57806315dacbea146103555780631955de0b1461037b5780631de8edad1461039b57600080fd5b8063045c5bfe146102f957806312fe055014610322575b600080fd5b61030c610307366004614079565b610776565b6040516103199190614120565b60405180910390f35b610335610330366004614133565b61087f565b604080519485526020850193909352918301526060820152608001610319565b610368610363366004614174565b610c84565b60405160079190910b8152602001610319565b61038e6103893660046141c5565b610d91565b604051610319919061425c565b6103ae6103a936600461426f565b610e05565b604051610319919061428c565b61030c6103c93660046142c0565b610e45565b61030c6103dc36600461426f565b610f24565b6103f46103ef366004614174565b610fe4565b6040516103199594939291909415158552602085019390935290151560408401526060830152608082015260a00190565b61043861043336600461426f565b611179565b6040519015158152602001610319565b61030c6104563660046141c5565b611202565b61046e61046936600461426f565b611232565b60405161031991906146a6565b61030c610489366004614174565b611246565b6104a161049c36600461426f565b61134a565b604051610319939291906146b9565b6104c36104be3660046146f2565b61137c565b604080519283526001600160a01b03909116602083015201610319565b6103356104ee366004614845565b611534565b6104386105013660046142c0565b61180c565b61051961051436600461426f565b611875565b604051610319919061491c565b61030c610534366004614951565b611889565b61054c610547366004614a0a565b6118c6565b604051610319929190614a5a565b61030c6105683660046141c5565b6119e4565b61058061057b366004614133565b611a14565b604080516001600160a01b0395861681529385166020850152918416918301919091529091166060820152608001610319565b6105c66105c1366004614a7b565b611cc4565b604051908152602001610319565b6105e76105e23660046142c0565b611e4e565b604080519215158352901515602083015201610319565b61030c61060c36600461426f565b611f57565b61062461061f366004614abb565b61206c565b6040516103199190614ae9565b61030c61063f366004614133565b612081565b61030c61065236600461426f565b6120d6565b610368610665366004614174565b612140565b61067d610678366004614b6d565b61219e565b60408051928352602083019190915201610319565b61030c6106a036600461426f565b6123a2565b61030c6106b3366004614951565b61240c565b6104386106c63660046142c0565b612462565b6104386106d936600461426f565b6124cb565b6103356106ec366004614bc8565b612533565b6105e76106ff36600461426f565b612701565b61030c610712366004614133565b61281b565b6105c661072536600461426f565b612870565b610335610738366004614845565b6128db565b61030c61074b3660046141c5565b612b28565b61043861075e36600461426f565b612b58565b6105c66107713660046142c0565b612bbb565b6040516001600160a01b038316602482015281151560448201526060906000908190309063618dc65e9088907fa22cb46500000000000000000000000000000000000000000000000000000000906064015b60408051601f198184030181529181526020820180516001600160e01b03166001600160e01b03199485161790525160e085901b909216825261080e9291600401614ca6565b600060405180830381600087803b15801561082857600080fd5b505af115801561083c573d6000803e3d6000fd5b505050506040513d6000823e601f3d908101601f191682016040526108649190810190614d0d565b90925090506016821461087657600080fd5b95945050505050565b600080600080600060405161089390613f24565b604051809103906000f0801580156108af573d6000803e3d6000fd5b50604051636eb1769f60e11b81523060048201526001600160a01b0380831660248301529192506000918a169063dd62ed3e9060440160206040518083038186803b1580156108fd57600080fd5b505afa158015610911573d6000803e3d6000fd5b505050506040513d601f19601f820116820180604052508101906109359190614d4a565b6040516370a0823160e01b81526001600160a01b038a811660048301529192506000918b16906370a082319060240160206040518083038186803b15801561097c57600080fd5b505afa158015610990573d6000803e3d6000fd5b505050506040513d601f19601f820116820180604052508101906109b49190614d4a565b905060006109c38b858b612cb6565b90506109e781604051806060016040528060218152602001615e1d60219139612dba565b604051636eb1769f60e11b81523060048201526001600160a01b038581166024830152600091908d169063dd62ed3e9060440160206040518083038186803b158015610a3257600080fd5b505afa158015610a46573d6000803e3d6000fd5b505050506040513d601f19601f82011682018060405250810190610a6a9190614d4a565b9050898114610ac05760405162461bcd60e51b815260206004820152601360248201527f416c6c6f77616e6365206d69736d61746368210000000000000000000000000060448201526064015b60405180910390fd5b6040517f4444fbf70000000000000000000000000000000000000000000000000000000081526001600160a01b038d81166004830152602482018c90523060448301528c81166064830152861690634444fbf790608401600060405180830381600087803b158015610b3157600080fd5b505af1158015610b45573d6000803e3d6000fd5b50505050610b6b82604051806060016040528060228152602001615e6760229139612dba565b604051636eb1769f60e11b81523060048201526001600160a01b038681166024830152600091908e169063dd62ed3e9060440160206040518083038186803b158015610bb657600080fd5b505afa158015610bca573d6000803e3d6000fd5b505050506040513d601f19601f82011682018060405250810190610bee9190614d4a565b6040516370a0823160e01b81526001600160a01b038e811660048301529192506000918f16906370a082319060240160206040518083038186803b158015610c3557600080fd5b505afa158015610c49573d6000803e3d6000fd5b505050506040513d601f19601f82011682018060405250810190610c6d9190614d4a565b959e949d50909b5093995091975050505050505050565b6040516001600160a01b0385811660248301528481166044830152831660648201526084810182905260009081908190610167907f15dacbea000000000000000000000000000000000000000000000000000000009060a4015b60408051601f198184030181529181526020820180516001600160e01b03166001600160e01b0319909416939093179092529051610d1c9190614d63565b6000604051808303816000865af19150503d8060008114610d59576040519150601f19603f3d011682016040523d82523d6000602084013e610d5e565b606091505b509150915081610d6f576015610d83565b80806020019051810190610d839190614d91565b60030b979650505050505050565b610dd76040518060a0016040528060001515815260200160006001600160a01b03168152602001606081526020016060815260200160006001600160a01b031681525090565b600080610de48585612de0565b915060070b9150601660030b8214610dfb57600080fd5b9150505b92915050565b604080516060810182526000808252602082018190529181018290529080610e2c84612f3d565b909250905060168214610e3e57600080fd5b9392505050565b6040516001600160a01b03821660248201526060906000908190309063618dc65e9087906370a0823160e01b906044015b60408051601f198184030181529181526020820180516001600160e01b03166001600160e01b03199485161790525160e085901b9092168252610ebc9291600401614ca6565b600060405180830381600087803b158015610ed657600080fd5b505af1158015610eea573d6000803e3d6000fd5b505050506040513d6000823e601f3d908101601f19168201604052610f129190810190614d0d565b909250905060168214610dfb57600080fd5b6040805160048082526024820183526020820180516001600160e01b03167f313ce5670000000000000000000000000000000000000000000000000000000017905291516330c6e32f60e11b81526060926000928392309263618dc65e92610f8e92899201614ca6565b600060405180830381600087803b158015610fa857600080fd5b505af1158015610fbc573d6000803e3d6000fd5b505050506040513d6000823e601f3d908101601f19168201604052610e2c9190810190614d0d565b6000806000806000806000806000806000610fff8f8e61304e565b60070b9050611043816040518060400160405280601181526020017f4772616e74206b7963206661696c65642e000000000000000000000000000000815250612dba565b61104d8f8e61314a565b965060070b9350601684146110a45760405162461bcd60e51b815260206004820152601760248201527f4973206b7963206f7065726174696f6e206661696c65640000000000000000006044820152606401610ab7565b856110f15760405162461bcd60e51b815260206004820152601360248201527f4b796320737461747573206d69736d61746368000000000000000000000000006044820152606401610ab7565b6110fb8f8e61323e565b60070b905061113f816040518060400160405280601281526020017f5265766f6b65206b7963206661696c65642e0000000000000000000000000000815250612dba565b61114b8f8f8f8f61328d565b91506111578f8e61314a565b969b5093995094975060079290920b9550909350505050945094509450945094565b6000806000611187846132ee565b909250905060168214610e3e5760405162461bcd60e51b815260206004820152602360248201527f676574546f6b656e44656661756c74467265657a65537461747573206661696c60448201527f65642100000000000000000000000000000000000000000000000000000000006064820152608401610ab7565b6060600080306001600160a01b031663618dc65e8663081812fc60e01b87604051602401610e7691815260200190565b61123a613f31565b600080610e2c846133eb565b604080516001600160a01b03858116602483015284166044820152606480820184905282518083039091018152608490910182526020810180516001600160e01b03167f23b872dd0000000000000000000000000000000000000000000000000000000017905290516330c6e32f60e11b81526060916000918291309163618dc65e916112d8918b9190600401614ca6565b600060405180830381600087803b1580156112f257600080fd5b505af1158015611306573d6000803e3d6000fd5b505050506040513d6000823e601f3d908101601f1916820160405261132e9190810190614d0d565b90925090506016821461134057600080fd5b9695505050505050565b6060806060600061135a856134d4565b919650945092509050600781900b60161461137457600080fd5b509193909250565b60008060008411801561138d575082155b1561145457600061139f878787612cb6565b90506113c381604051806060016040528060218152602001615e1d60219139612dba565b604051636eb1769f60e11b81523060048201526001600160a01b0387811660248301526000919089169063dd62ed3e9060440160206040518083038186803b15801561140e57600080fd5b505afa158015611422573d6000803e3d6000fd5b505050506040513d601f19601f820116820180604052508101906114469190614d4a565b93506000925061152b915050565b60006114618787866135d4565b90506114a2816040518060400160405280601681526020017f4661696c656420746f20617070726f7665204e46542e00000000000000000000815250612dba565b60405163020604bf60e21b8152600481018590526000906001600160a01b0389169063081812fc9060240160206040518083038186803b1580156114e557600080fd5b505afa1580156114f9573d6000803e3d6000fd5b505050506040513d601f19601f8201168201806040525081019061151d9190614db7565b60009450925061152b915050565b94509492505050565b60008060008060008060008060008b60070b13801561155257508951155b156115d7576040516370a0823160e01b81526001600160a01b038a811660048301528d16906370a082319060240160206040518083038186803b15801561159857600080fd5b505afa1580156115ac573d6000803e3d6000fd5b505050506040513d601f19601f820116820180604052508101906115d09190614d4a565b9350611653565b6040516370a0823160e01b81526001600160a01b038a811660048301528d16906370a082319060240160206040518083038186803b15801561161857600080fd5b505afa15801561162c573d6000803e3d6000fd5b505050506040513d601f19601f820116820180604052508101906116509190614d4a565b93505b60008061165f8e6133eb565b91509150611685826040518060600160405280602a8152602001615f09602a9139612dba565b806020015160070b935061169a8e8e8e61362a565b60408051808201909152601581527f4661696c656420746f206275726e20746f6b656e2e0000000000000000000000602082015260079190910b94509092506116e4908390612dba565b60008d60070b1380156116f657508b51155b1561177c576040516370a0823160e01b81526001600160a01b038c811660048301528f16906370a08231906024015b60206040518083038186803b15801561173d57600080fd5b505afa158015611751573d6000803e3d6000fd5b505050506040513d601f19601f820116820180604052508101906117759190614d4a565b94506117f8565b6040516370a0823160e01b81526001600160a01b038c811660048301528f16906370a082319060240160206040518083038186803b1580156117bd57600080fd5b505afa1580156117d1573d6000803e3d6000fd5b505050506040513d601f19601f820116820180604052508101906117f59190614d4a565b94505b50939c929b50909950975095505050505050565b600080600061181b8585613700565b915060070b9150601660030b8214610dfb5760405162461bcd60e51b815260206004820152601660248201527f546f6b656e20697346726f7a656e206661696c656421000000000000000000006044820152606401610ab7565b61187d613fe8565b600080610e2c84613751565b6040516001600160a01b038381166024830152821660448201526060906000908190309063618dc65e908890636eb1769f60e11b906064016107c8565b600060606000806101676001600160a01b031663618dc65e60e01b87876040516024016118f4929190614ca6565b60408051601f198184030181529181526020820180516001600160e01b03166001600160e01b03199094169390931790925290516119329190614d63565b6000604051808303816000865af19150503d806000811461196f576040519150601f19603f3d011682016040523d82523d6000602084013e611974565b606091505b50915091507f4af4780e06fe8cb9df64b0794fa6f01399af979175bb988e35e0e57e594567bc82826040516119aa929190614dd4565b60405180910390a1816119ce576015604051806020016040528060008152506119d2565b6016815b60039190910b97909650945050505050565b6060600080306001600160a01b031663618dc65e86636352211e60e01b87604051602401610e7691815260200190565b6000806000806000604051611a2890613f24565b604051809103906000f080158015611a44573d6000803e3d6000fd5b5090506000611a548983896135d4565b9050611a95816040518060400160405280601681526020017f4661696c656420746f20617070726f7665204e46542e00000000000000000000815250612dba565b60405163020604bf60e21b8152600481018890526000906001600160a01b038b169063081812fc9060240160206040518083038186803b158015611ad857600080fd5b505afa158015611aec573d6000803e3d6000fd5b505050506040513d601f19601f82011682018060405250810190611b109190614db7565b6040517f4adcaa710000000000000000000000000000000000000000000000000000000081526001600160a01b038c81166004830152602482018b90523060448301528b8116606483015291925090841690634adcaa7190608401600060405180830381600087803b158015611b8557600080fd5b505af1158015611b99573d6000803e3d6000fd5b50506040517f6352211e000000000000000000000000000000000000000000000000000000008152600481018b9052600092506001600160a01b038d169150636352211e9060240160206040518083038186803b158015611bf957600080fd5b505afa158015611c0d573d6000803e3d6000fd5b505050506040513d601f19601f82011682018060405250810190611c319190614db7565b60405163020604bf60e21b8152600481018b90529091506000906001600160a01b038d169063081812fc9060240160206040518083038186803b158015611c7757600080fd5b505afa158015611c8b573d6000803e3d6000fd5b505050506040513d601f19601f82011682018060405250810190611caf9190614db7565b929c919b509199509297509195505050505050565b60408051600280825260608201909252600091829190816020015b6040805160608101825260008082526020808301829052928201528252600019909201910181611cdf5790505090506040518060600160405280866001600160a01b0316815260200184611d3290614def565b60070b81526020016001151581525081600081518110611d5457611d54614e25565b60200260200101819052506040518060600160405280856001600160a01b031681526020018460070b81526020016000151581525081600181518110611d9c57611d9c614e25565b6020026020010181905250611e37604051806020016040528083815250600067ffffffffffffffff811115611dd357611dd3614747565b604051908082528060200260200182016040528015611e3157816020015b611e1e604051806060016040528060006001600160a01b0316815260200160608152602001606081525090565b815260200190600190039081611df15790505b5061383a565b915060168214611e4657600080fd5b509392505050565b6000806000806000611e608787613866565b60070b9050611e8781604051806060016040528060278152602001615f8260279139612dba565b600080611e948989613700565b915060070b9150611ebd83604051806060016040528060298152602001615e3e60299139612dba565b809450611eca89896138b5565b60070b9250611f0e836040518060400160405280601b81526020017f4661696c656420746f20756e667265657a65206163636f756e742e0000000000815250612dba565b611f188989613700565b8160070b91508092508193505050611f48836040518060600160405280602b8152602001615ede602b9139612dba565b93989397509295505050505050565b6040805160048082526024820183526020820180516001600160e01b03167f18160ddd0000000000000000000000000000000000000000000000000000000017905291516330c6e32f60e11b81526060926000928392309263618dc65e92611fc192899201614ca6565b600060405180830381600087803b158015611fdb57600080fd5b505af1158015611fef573d6000803e3d6000fd5b505050506040513d6000823e601f3d908101601f191682016040526120179190810190614d0d565b909250905060168214610e3e5760405162461bcd60e51b815260206004820152601560248201527f546f6b656e207265646972656374206661696c656400000000000000000000006044820152606401610ab7565b612074614008565b600080610f128585613904565b6040516001600160a01b0383166024820152604481018290526060906000908190309063618dc65e9088907f095ea7b300000000000000000000000000000000000000000000000000000000906064016107c8565b6040805160048082526024820183526020820180516001600160e01b03167f06fdde030000000000000000000000000000000000000000000000000000000017905291516330c6e32f60e11b81526060926000928392309263618dc65e92610f8e92899201614ca6565b6040516001600160a01b0385811660248301528481166044830152831660648201526084810182905260009081908190610167907f9b23d3d9000000000000000000000000000000000000000000000000000000009060a401610cde565b604080516001808252818301909252600091829182916020808301908036833701905050905060008089836000815181106121db576121db614e25565b60200260200101906001600160a01b031690816001600160a01b0316815250506000612207898c6139f7565b9050612248816040518060400160405280601b81526020017f4661696c656420746f206173736f636961746520746f6b656e732e0000000000815250612dba565b600088118015612256575086155b1561226e576122678b8b8b8b61328d565b925061227d565b61227a8b8b8b8a613a46565b92505b60008811801561228b575086155b156122c55761229c8b8a8c8b61328d565b90506122c081604051806060016040528060228152602001615e6760229139612dba565b612312565b6122d18b8a8c8a613a46565b9050612312816040518060400160405280601d81526020017f4661696c656420746f207472616e73666572204e465420746f6b656e2e000000815250612dba565b61231c898c613aa7565b905061235d816040518060400160405280601b81526020017f4661696c656420746f20646973736f636961746520746f6b656e2e0000000000815250612dba565b60008811801561236b575086155b156123835761237c8b8b8b8b61328d565b9150612392565b61238f8b8b8b8a613a46565b91505b5090999098509650505050505050565b6040805160048082526024820183526020820180516001600160e01b03167f95d89b410000000000000000000000000000000000000000000000000000000017905291516330c6e32f60e11b81526060926000928392309263618dc65e92610f8e92899201614ca6565b6040516001600160a01b038381166024830152821660448201526060906000908190309063618dc65e9088907fe985e9c500000000000000000000000000000000000000000000000000000000906064016107c8565b6000806000612471858561314a565b915060070b9150601660030b8214610dfb5760405162461bcd60e51b815260206004820152601360248201527f546f6b656e2069734b7963206661696c656421000000000000000000000000006044820152606401610ab7565b60008060006124d984613af6565b915060070b9150601660030b8214610e3e5760405162461bcd60e51b815260206004820152601c60248201527f546f6b656e206973546f6b656e41646472657373206661696c656421000000006044820152606401610ab7565b60008060008060008060008060008b60070b13801561255157508951155b156125d6576040516370a0823160e01b81526001600160a01b038a811660048301528d16906370a082319060240160206040518083038186803b15801561259757600080fd5b505afa1580156125ab573d6000803e3d6000fd5b505050506040513d601f19601f820116820180604052508101906125cf9190614d4a565b9350612652565b6040516370a0823160e01b81526001600160a01b038a811660048301528d16906370a082319060240160206040518083038186803b15801561261757600080fd5b505afa15801561262b573d6000803e3d6000fd5b505050506040513d601f19601f8201168201806040525081019061264f9190614d4a565b93505b60008061265e8e6133eb565b915091506126a1826040518060400160405280601e81526020017f4661696c656420746f20726574726965766520746f6b656e20696e666f2e0000815250612dba565b806020015160070b93506126b68e8e8e613b3f565b5060408051808201909152601581527f4661696c656420746f206d696e7420746f6b656e2e0000000000000000000000602082015260079190910b94509092506116e4908390612dba565b600080600080600061271286613c3d565b9050612753816040518060400160405280601681526020017f4661696c656420746f20706175736520746f6b656e2e00000000000000000000815250612dba565b60008061275f886133eb565b9150915061278583604051806060016040528060258152602001615f5d60259139612dba565b8060800151945061279588613d30565b92506127d6836040518060400160405280601881526020017f4661696c656420746f20756e706175736520746f6b656e2e0000000000000000815250612dba565b6127df886133eb565b8092508193505050612809836040518060600160405280602c8152602001615e89602c9139612dba565b60800151939793965092945050505050565b6040516001600160a01b0383166024820152604481018290526060906000908190309063618dc65e9088907fa9059cbb00000000000000000000000000000000000000000000000000000000906064016107c8565b600080600061287e84613d77565b60030b915060070b9150601660030b8214610e3e5760405162461bcd60e51b815260206004820152601c60248201527f546f6b656e20747970652061707072616973616c206661696c656421000000006044820152606401610ab7565b60008080808080808060078b900b811280156128f657508951155b1561297b576040516370a0823160e01b81526001600160a01b038a811660048301528d16906370a082319060240160206040518083038186803b15801561293c57600080fd5b505afa158015612950573d6000803e3d6000fd5b505050506040513d601f19601f820116820180604052508101906129749190614d4a565b93506129f7565b6040516370a0823160e01b81526001600160a01b038a811660048301528d16906370a082319060240160206040518083038186803b1580156129bc57600080fd5b505afa1580156129d0573d6000803e3d6000fd5b505050506040513d601f19601f820116820180604052508101906129f49190614d4a565b93505b600080612a038e6133eb565b91509150612a29826040518060600160405280602a8152602001615f33602a9139612dba565b806020015160070b935060008d60070b138015612a4557508b51155b15612a5c57612a558e8c8f613e54565b9150612a6a565b612a678e8c8e613ead565b91505b612aa9826040518060400160405280601581526020017f4661696c656420746f207769706520746f6b656e2e0000000000000000000000815250612dba565b612ab28e6133eb565b8092508193505050612adc82604051806060016040528060298152602001615eb560299139612dba565b806020015160070b925060008d60070b1380156116f657508b5161177c576040516370a0823160e01b81526001600160a01b038c811660048301528f16906370a0823190602401611725565b6060600080306001600160a01b031663618dc65e8663c87b56dd60e01b87604051602401610e7691815260200190565b6000806000612b6684613edb565b909250905060168214610e3e5760405162461bcd60e51b815260206004820181905260248201527f676574546f6b656e44656661756c744b7963537461747573206661696c6564216044820152606401610ab7565b6040516001600160a01b038381166024830152821660448201526000908190819061016a9060640160408051601f198184030181529181526020820180516001600160e01b03167ffec466660000000000000000000000000000000000000000000000000000000017905251612c319190614d63565b6000604051808303816000865af19150503d8060008114612c6e576040519150601f19603f3d011682016040523d82523d6000602084013e612c73565b606091505b509150915081612c8257600080fd5b600081806020019051810190612c989190614e3b565b94509050600381900b601614612cad57600080fd5b50505092915050565b6040516001600160a01b038481166024830152831660448201526064810182905260009081908190610167907fe1f21c6700000000000000000000000000000000000000000000000000000000906084015b60408051601f198184030181529181526020820180516001600160e01b03166001600160e01b0319909416939093179092529051612d469190614d63565b6000604051808303816000865af19150503d8060008114612d83576040519150601f19603f3d011682016040523d82523d6000602084013e612d88565b606091505b509150915081612d99576015612dad565b80806020019051810190612dad9190614d91565b60030b9695505050505050565b60168214612ddc578060405162461bcd60e51b8152600401610ab79190614120565b5050565b6040805160a081018252600080825260208083018290526060838501819052808401526080830182905283516001600160a01b03871660248201526044808201879052855180830390910181526064909101855290810180516001600160e01b03167f3c4dd32e00000000000000000000000000000000000000000000000000000000179052925190928391829161016791612e7c9190614d63565b6000604051808303816000865af19150503d8060008114612eb9576040519150601f19603f3d011682016040523d82523d6000602084013e612ebe565b606091505b5091509150612f096040518060a0016040528060001515815260200160006001600160a01b03168152602001606081526020016060815260200160006001600160a01b031681525090565b82612f1657601581612f2a565b81806020019051810190612f2a9190614f1a565b60039190910b9890975095505050505050565b604080516060810182526000808252602080830182905282840182905283516001600160a01b038616602480830191909152855180830390910181526044909101855290810180516001600160e01b03167fd614cdb800000000000000000000000000000000000000000000000000000000179052925190928391829161016791612fc89190614d63565b6000604051808303816000865af19150503d8060008114613005576040519150601f19603f3d011682016040523d82523d6000602084013e61300a565b606091505b50604080516060810182526000808252602082018190529181019190915291935091508261303a576015816119d2565b818060200190518101906119d29190614fe1565b6040516001600160a01b0383811660248301528216604482015260009081908190610167907f8f8d7f9900000000000000000000000000000000000000000000000000000000906064015b60408051601f198184030181529181526020820180516001600160e01b03166001600160e01b03199094169390931790925290516130d79190614d63565b6000604051808303816000865af19150503d8060008114613114576040519150601f19603f3d011682016040523d82523d6000602084013e613119565b606091505b50915091508161312a57601561313e565b8080602001905181019061313e9190614d91565b60030b95945050505050565b6040516001600160a01b03838116602483015282166044820152600090819081908190610167907ff2c31ff400000000000000000000000000000000000000000000000000000000906064015b60408051601f198184030181529181526020820180516001600160e01b03166001600160e01b03199094169390931790925290516131d59190614d63565b6000604051808303816000865af19150503d8060008114613212576040519150601f19603f3d011682016040523d82523d6000602084013e613217565b606091505b50915091508161322a57601560006119d2565b808060200190518101906119d29190615015565b6040516001600160a01b0383811660248301528216604482015260009081908190610167907faf99c6330000000000000000000000000000000000000000000000000000000090606401613099565b6040516001600160a01b038581166024830152848116604483015283166064820152600782900b608482015260009081908190610167907feca36917000000000000000000000000000000000000000000000000000000009060a401610cde565b6040516001600160a01b0382166024820152600090819081908190610167907fa7daa18d00000000000000000000000000000000000000000000000000000000906044015b60408051601f198184030181529181526020820180516001600160e01b03166001600160e01b03199094169390931790925290516133719190614d63565b6000604051808303816000865af19150503d80600081146133ae576040519150601f19603f3d011682016040523d82523d6000602084013e6133b3565b606091505b5091509150816133c657601560006133da565b808060200190518101906133da9190615015565b60039190910b969095509350505050565b60006133f5613f31565b604080516001600160a01b03851660248083019190915282518083039091018152604490910182526020810180516001600160e01b03167f1f69565f00000000000000000000000000000000000000000000000000000000179052905160009182916101679161346491614d63565b6000604051808303816000865af19150503d80600081146134a1576040519150601f19603f3d011682016040523d82523d6000602084013e6134a6565b606091505b50915091506134b3613f31565b826134c0576015816119d2565b818060200190518101906119d291906155cf565b604080516001600160a01b03831660248083019190915282518083039091018152604490910182526020810180516001600160e01b03167fae7611a000000000000000000000000000000000000000000000000000000000179052905160009160609182918291859182916101679161354c91614d63565b6000604051808303816000865af19150503d8060008114613589576040519150601f19603f3d011682016040523d82523d6000602084013e61358e565b606091505b50915091506060806060846135a75760158383836135bb565b838060200190518101906135bb9190615613565b60039390930b9d919c509a509098509650505050505050565b6040516001600160a01b038481166024830152831660448201526064810182905260009081908190610167907f7336aaf00000000000000000000000000000000000000000000000000000000090608401612d08565b6000806000806101676001600160a01b031663d6910d0660e01b888888604051602401613659939291906156df565b60408051601f198184030181529181526020820180516001600160e01b03166001600160e01b03199094169390931790925290516136979190614d63565b6000604051808303816000865af19150503d80600081146136d4576040519150601f19603f3d011682016040523d82523d6000602084013e6136d9565b606091505b5091509150816136ec5760156000612f2a565b80806020019051810190612f2a919061570a565b6040516001600160a01b03838116602483015282166044820152600090819081908190610167907f46de0fb10000000000000000000000000000000000000000000000000000000090606401613197565b600061375b613fe8565b604080516001600160a01b03851660248083019190915282518083039091018152604490910182526020810180516001600160e01b03167f3f28a19b0000000000000000000000000000000000000000000000000000000017905290516000918291610167916137ca91614d63565b6000604051808303816000865af19150503d8060008114613807576040519150601f19603f3d011682016040523d82523d6000602084013e61380c565b606091505b5091509150613819613fe8565b82613826576015816119d2565b818060200190518101906119d29190615736565b60008060006101676001600160a01b0316630e71804f60e01b8686604051602401613099929190615831565b6040516001600160a01b0383811660248301528216604482015260009081908190610167907f5b8f85840000000000000000000000000000000000000000000000000000000090606401613099565b6040516001600160a01b0383811660248301528216604482015260009081908190610167907f52f913870000000000000000000000000000000000000000000000000000000090606401613099565b600061390e614008565b604080516001600160a01b0386166024820152600785900b60448083019190915282518083039091018152606490910182526020810180516001600160e01b03167f287e1da800000000000000000000000000000000000000000000000000000000179052905160009182916101679161398791614d63565b6000604051808303816000865af19150503d80600081146139c4576040519150601f19603f3d011682016040523d82523d6000602084013e6139c9565b606091505b50915091506139d6614008565b826139e357601581612f2a565b81806020019051810190612f2a919061592e565b6040516001600160a01b0383811660248301528216604482015260009081908190610167907f49146bde0000000000000000000000000000000000000000000000000000000090606401613099565b6040516001600160a01b038581166024830152848116604483015283166064820152600782900b608482015260009081908190610167907f5cfc9011000000000000000000000000000000000000000000000000000000009060a401610cde565b6040516001600160a01b0383811660248301528216604482015260009081908190610167907f099794e80000000000000000000000000000000000000000000000000000000090606401613099565b6040516001600160a01b0382166024820152600090819081908190610167907f19f373610000000000000000000000000000000000000000000000000000000090604401613333565b60008060606000806101676001600160a01b031663e0f4059a60e01b898989604051602401613b7093929190615a16565b60408051601f198184030181529181526020820180516001600160e01b03166001600160e01b0319909416939093179092529051613bae9190614d63565b6000604051808303816000865af19150503d8060008114613beb576040519150601f19603f3d011682016040523d82523d6000602084013e613bf0565b606091505b509150915081613c13576040805160008082526020820190925260159190613c27565b80806020019051810190613c279190615a93565b60039290920b9a90995090975095505050505050565b6040516001600160a01b038216602482015260009081908190610167907f7c41ad2c00000000000000000000000000000000000000000000000000000000906044015b60408051601f198184030181529181526020820180516001600160e01b03166001600160e01b0319909416939093179092529051613cbe9190614d63565b6000604051808303816000865af19150503d8060008114613cfb576040519150601f19603f3d011682016040523d82523d6000602084013e613d00565b606091505b509150915081613d11576015613d25565b80806020019051810190613d259190614d91565b60030b949350505050565b6040516001600160a01b038216602482015260009081908190610167907f3b3bff0f0000000000000000000000000000000000000000000000000000000090604401613c80565b604080516001600160a01b03831660248083019190915282518083039091018152604490910182526020810180516001600160e01b03167f93272baf00000000000000000000000000000000000000000000000000000000179052905160009182918291829161016791613dea91614d63565b6000604051808303816000865af19150503d8060008114613e27576040519150601f19603f3d011682016040523d82523d6000602084013e613e2c565b606091505b509150915081613e405760156000196133da565b808060200190518101906133da9190615b53565b6040516001600160a01b03848116602483015283166044820152600782900b606482015260009081908190610167907fefef57f90000000000000000000000000000000000000000000000000000000090608401612d08565b60008060006101676001600160a01b031663f7f38e2660e01b878787604051602401612d0893929190615b7d565b6040516001600160a01b0382166024820152600090819081908190610167907f335e04c10000000000000000000000000000000000000000000000000000000090604401613333565b61027380615baa83390190565b60408051610240810182526060610120820181815261014083018290526000610160840181905261018084018390526101a084018190526101c084018190526101e0840181905261020084018390528451928301855280835260208301819052938201939093526102208201529081908152602001600060070b8152602001600015158152602001600015158152602001600015158152602001606081526020016060815260200160608152602001606081525090565b6040518060400160405280613ffb613f31565b8152600060209091015290565b6040518060c0016040528061401b613f31565b8152600060208201819052604082018190526060808301829052608083015260a09091015290565b6001600160a01b038116811461405857600080fd5b50565b803561406681614043565b919050565b801515811461405857600080fd5b60008060006060848603121561408e57600080fd5b833561409981614043565b925060208401356140a981614043565b915060408401356140b98161406b565b809150509250925092565b60005b838110156140df5781810151838201526020016140c7565b838111156140ee576000848401525b50505050565b6000815180845261410c8160208601602086016140c4565b601f01601f19169290920160200192915050565b602081526000610e3e60208301846140f4565b60008060006060848603121561414857600080fd5b833561415381614043565b9250602084013561416381614043565b929592945050506040919091013590565b6000806000806080858703121561418a57600080fd5b843561419581614043565b935060208501356141a581614043565b925060408501356141b581614043565b9396929550929360600135925050565b600080604083850312156141d857600080fd5b82356141e381614043565b946020939093013593505050565b805115158252600060208201516001600160a01b0380821660208601526040840151915060a0604086015261422960a08601836140f4565b91506060840151858303606087015261424283826140f4565b925050806080850151166080860152508091505092915050565b602081526000610e3e60208301846141f1565b60006020828403121561428157600080fd5b8135610e3e81614043565b60608101610dff8284805160070b82526001600160a01b036020820151166020830152604081015160070b60408301525050565b600080604083850312156142d357600080fd5b82356142de81614043565b915060208301356142ee81614043565b809150509250929050565b600081518084526020808501808196508360051b8101915082860160005b858110156143555782840389528151805185528501516040868601819052614341818701836141f1565b9a87019a9550505090840190600101614317565b5091979650505050505050565b60006101608251818552614378828601826140f4565b9150506020830151848203602086015261439282826140f4565b91505060408301516143af60408601826001600160a01b03169052565b50606083015184820360608601526143c782826140f4565b91505060808301516143dd608086018215159052565b5060a08301516143f260a086018260070b9052565b5060c083015161440660c086018215159052565b5060e083015184820360e086015261441e82826142f9565b9150506101008084015161445a82870182805160070b82526001600160a01b036020820151166020830152604081015160070b60408301525050565b5090949350505050565b600081518084526020808501945080840160005b838110156144d1578151805160070b8852838101516001600160a01b03908116858a01526040808301511515908a01526060808301511515908a0152608091820151169088015260a09096019590820190600101614478565b509495945050505050565b600081518084526020808501945080840160005b838110156144d15781518051600790810b895284820151810b858a0152604080830151820b908a015260608083015190910b9089015260808082015115159089015260a0908101516001600160a01b03169088015260c090960195908201906001016144f0565b600081518084526020808501945080840160005b838110156144d15781518051600790810b895284820151810b858a015260408083015190910b908901526060808201516001600160a01b03908116918a01919091526080808301511515908a015260a091820151169088015260c0909601959082019060010161456b565b600061012082518185526145ec82860182614362565b9150506020830151614603602086018260070b9052565b506040830151614617604086018215159052565b50606083015161462b606086018215159052565b50608083015161463f608086018215159052565b5060a083015184820360a08601526146578282614464565b91505060c083015184820360c086015261467182826144dc565b91505060e083015184820360e086015261468b8282614557565b915050610100808401518583038287015261134083826140f4565b602081526000610e3e60208301846145d6565b6060815260006146cc6060830186614464565b82810360208401526146de81866144dc565b905082810360408401526113408185614557565b6000806000806080858703121561470857600080fd5b843561471381614043565b9350602085013561472381614043565b93969395505050506040820135916060013590565b8060070b811461405857600080fd5b634e487b7160e01b600052604160045260246000fd5b60405160a0810167ffffffffffffffff8111828210171561478057614780614747565b60405290565b6040805190810167ffffffffffffffff8111828210171561478057614780614747565b604051610120810167ffffffffffffffff8111828210171561478057614780614747565b60405160c0810167ffffffffffffffff8111828210171561478057614780614747565b604051601f8201601f1916810167ffffffffffffffff8111828210171561481957614819614747565b604052919050565b600067ffffffffffffffff82111561483b5761483b614747565b5060051b60200190565b6000806000806080858703121561485b57600080fd5b843561486681614043565b935060208581013561487781614738565b9350604086013567ffffffffffffffff81111561489357600080fd5b8601601f810188136148a457600080fd5b80356148b76148b282614821565b6147f0565b81815260059190911b8201830190838101908a8311156148d657600080fd5b928401925b828410156148fd5783356148ee81614738565b825292840192908401906148db565b80965050505050506149116060860161405b565b905092959194509250565b60208152600082516040602084015261493860608401826145d6565b9050602084015160030b60408401528091505092915050565b60008060006060848603121561496657600080fd5b833561497181614043565b9250602084013561498181614043565b915060408401356140b981614043565b600067ffffffffffffffff8211156149ab576149ab614747565b50601f01601f191660200190565b600082601f8301126149ca57600080fd5b81356149d86148b282614991565b8181528460208386010111156149ed57600080fd5b816020850160208301376000918101602001919091529392505050565b60008060408385031215614a1d57600080fd5b8235614a2881614043565b9150602083013567ffffffffffffffff811115614a4457600080fd5b614a50858286016149b9565b9150509250929050565b828152604060208201526000614a7360408301846140f4565b949350505050565b600080600060608486031215614a9057600080fd5b8335614a9b81614043565b92506020840135614aab81614043565b915060408401356140b981614738565b60008060408385031215614ace57600080fd5b8235614ad981614043565b915060208301356142ee81614738565b602081526000825160c06020840152614b0560e08401826145d6565b9050602084015160070b604084015260408401516001600160a01b038082166060860152606086015160070b608086015260808601519150601f198584030160a0860152614b5383836140f4565b92508060a08701511660c086015250508091505092915050565b600080600080600060a08688031215614b8557600080fd5b8535614b9081614043565b94506020860135614ba081614043565b93506040860135614bb081614043565b94979396509394606081013594506080013592915050565b60008060008060808587031215614bde57600080fd5b8435614be981614043565b9350602085810135614bfa81614738565b9350604086013567ffffffffffffffff80821115614c1757600080fd5b818801915088601f830112614c2b57600080fd5b8135614c396148b282614821565b81815260059190911b8301840190848101908b831115614c5857600080fd5b8585015b83811015614c9057803585811115614c745760008081fd5b614c828e89838a01016149b9565b845250918601918601614c5c565b508097505050505050506149116060860161405b565b6001600160a01b0383168152604060208201526000614a7360408301846140f4565b600082601f830112614cd957600080fd5b8151614ce76148b282614991565b818152846020838601011115614cfc57600080fd5b610dfb8260208301602087016140c4565b60008060408385031215614d2057600080fd5b82519150602083015167ffffffffffffffff811115614d3e57600080fd5b614a5085828601614cc8565b600060208284031215614d5c57600080fd5b5051919050565b60008251614d758184602087016140c4565b9190910192915050565b8051600381900b811461406657600080fd5b600060208284031215614da357600080fd5b610e3e82614d7f565b805161406681614043565b600060208284031215614dc957600080fd5b8151610e3e81614043565b8215158152604060208201526000614a7360408301846140f4565b60008160070b677fffffffffffffff19811415614e1c57634e487b7160e01b600052601160045260246000fd5b60000392915050565b634e487b7160e01b600052603260045260246000fd5b60008060408385031215614e4e57600080fd5b614e5783614d7f565b9150602083015190509250929050565b80516140668161406b565b600060a08284031215614e8457600080fd5b614e8c61475d565b90508151614e998161406b565b81526020820151614ea981614043565b6020820152604082015167ffffffffffffffff80821115614ec957600080fd5b614ed585838601614cc8565b60408401526060840151915080821115614eee57600080fd5b50614efb84828501614cc8565b6060830152506080820151614f0f81614043565b608082015292915050565b60008060408385031215614f2d57600080fd5b614f3683614d7f565b9150602083015167ffffffffffffffff811115614f5257600080fd5b614a5085828601614e72565b805161406681614738565b600060608284031215614f7b57600080fd5b6040516060810181811067ffffffffffffffff82111715614f9e57614f9e614747565b80604052508091508251614fb181614738565b81526020830151614fc181614043565b60208201526040830151614fd481614738565b6040919091015292915050565b60008060808385031215614ff457600080fd5b614ffd83614d7f565b915061500c8460208501614f69565b90509250929050565b6000806040838503121561502857600080fd5b61503183614d7f565b915060208301516142ee8161406b565b600082601f83011261505257600080fd5b815160206150626148b283614821565b82815260059290921b8401810191818101908684111561508157600080fd5b8286015b8481101561510357805167ffffffffffffffff808211156150a65760008081fd5b908801906040828b03601f19018113156150c05760008081fd5b6150c8614786565b8388015181529083015190828211156150e15760008081fd5b6150ef8c8984870101614e72565b818901528652505050918301918301615085565b509695505050505050565b6000610160828403121561512157600080fd5b6151296147a9565b9050815167ffffffffffffffff8082111561514357600080fd5b61514f85838601614cc8565b8352602084015191508082111561516557600080fd5b61517185838601614cc8565b602084015261518260408501614dac565b6040840152606084015191508082111561519b57600080fd5b6151a785838601614cc8565b60608401526151b860808501614e67565b60808401526151c960a08501614f5e565b60a08401526151da60c08501614e67565b60c084015260e08401519150808211156151f357600080fd5b5061520084828501615041565b60e08301525061010061521584828501614f69565b9082015292915050565b600082601f83011261523057600080fd5b815160206152406148b283614821565b82815260a0928302850182019282820191908785111561525f57600080fd5b8387015b858110156152e75781818a03121561527b5760008081fd5b61528361475d565b815161528e81614738565b81528186015161529d81614043565b818701526040828101516152b08161406b565b908201526060828101516152c38161406b565b908201526080828101516152d681614043565b908201528452928401928101615263565b5090979650505050505050565b600082601f83011261530557600080fd5b815160206153156148b283614821565b82815260c0928302850182019282820191908785111561533457600080fd5b8387015b858110156152e75781818a0312156153505760008081fd5b6153586147cd565b815161536381614738565b81528186015161537281614738565b8187015260408281015161538581614738565b9082015260608281015161539881614738565b908201526080828101516153ab8161406b565b9082015260a0828101516153be81614043565b908201528452928401928101615338565b600082601f8301126153e057600080fd5b815160206153f06148b283614821565b82815260c0928302850182019282820191908785111561540f57600080fd5b8387015b858110156152e75781818a03121561542b5760008081fd5b6154336147cd565b815161543e81614738565b81528186015161544d81614738565b8187015260408281015161546081614738565b9082015260608281015161547381614043565b908201526080828101516154868161406b565b9082015260a08281015161549981614043565b908201528452928401928101615413565b600061012082840312156154bd57600080fd5b6154c56147a9565b9050815167ffffffffffffffff808211156154df57600080fd5b6154eb8583860161510e565b83526154f960208501614f5e565b602084015261550a60408501614e67565b604084015261551b60608501614e67565b606084015261552c60808501614e67565b608084015260a084015191508082111561554557600080fd5b6155518583860161521f565b60a084015260c084015191508082111561556a57600080fd5b615576858386016152f4565b60c084015260e084015191508082111561558f57600080fd5b61559b858386016153cf565b60e0840152610100915081840151818111156155b657600080fd5b6155c286828701614cc8565b8385015250505092915050565b600080604083850312156155e257600080fd5b6155eb83614d7f565b9150602083015167ffffffffffffffff81111561560757600080fd5b614a50858286016154aa565b6000806000806080858703121561562957600080fd5b61563285614d7f565b9350602085015167ffffffffffffffff8082111561564f57600080fd5b61565b8883890161521f565b9450604087015191508082111561567157600080fd5b61567d888389016152f4565b9350606087015191508082111561569357600080fd5b506156a0878288016153cf565b91505092959194509250565b600081518084526020808501945080840160005b838110156144d157815160070b875295820195908201906001016156c0565b6001600160a01b03841681528260070b602082015260606040820152600061087660608301846156ac565b6000806040838503121561571d57600080fd5b61572683614d7f565b915060208301516142ee81614738565b6000806040838503121561574957600080fd5b61575283614d7f565b9150602083015167ffffffffffffffff8082111561576f57600080fd5b908401906040828703121561578357600080fd5b60405160408101818110838211171561579e5761579e614747565b6040528251828111156157b057600080fd5b6157bc888286016154aa565b8252506157cb60208401614d7f565b60208201528093505050509250929050565b600081518084526020808501945080840160005b838110156144d157815180516001600160a01b031688528381015160070b84890152604090810151151590880152606090960195908201906001016157f1565b60006040808352606085516020808487015261584f838701836157dd565b9150858203818701528187518084528284019150828160051b850101838a0160005b8381101561591d57601f1987840301855281516001600160a01b03808251168552878201518a898701526158a78b8701826157dd565b928c0151868403878e01528051808552908a0193600092508a01905b808310156159075784518051851683528b81015185168c8401528e81015160070b8f8401528d015115158d830152938a0193600192909201916080909101906158c3565b5097890197955050509186019150600101615871565b50909b9a5050505050505050505050565b6000806040838503121561594157600080fd5b61594a83614d7f565b9150602083015167ffffffffffffffff8082111561596757600080fd5b9084019060c0828703121561597b57600080fd5b6159836147cd565b82518281111561599257600080fd5b61599e888286016154aa565b8252506159ad60208401614f5e565b60208201526159be60408401614dac565b60408201526159cf60608401614f5e565b60608201526080830151828111156159e657600080fd5b6159f288828601614cc8565b608083015250615a0460a08401614dac565b60a08201528093505050509250929050565b6000606082016001600160a01b038616835260208560070b818501526060604085015281855180845260808601915060808160051b870101935082870160005b82811015615a8457607f19888703018452615a728683516140f4565b95509284019290840190600101615a56565b50939998505050505050505050565b600080600060608486031215615aa857600080fd5b615ab184614d7f565b9250602080850151615ac281614738565b604086015190935067ffffffffffffffff811115615adf57600080fd5b8501601f81018713615af057600080fd5b8051615afe6148b282614821565b81815260059190911b82018301908381019089831115615b1d57600080fd5b928401925b82841015615b44578351615b3581614738565b82529284019290840190615b22565b80955050505050509250925092565b60008060408385031215615b6657600080fd5b615b6f83614d7f565b915061500c60208401614d7f565b60006001600160a01b0380861683528085166020840152506060604083015261087660608301846156ac56fe608060405234801561001057600080fd5b50610253806100206000396000f3fe608060405234801561001057600080fd5b50600436106100365760003560e01c80634444fbf71461003b5780634adcaa7114610050575b600080fd5b61004e6100493660046101a7565b610063565b005b61004e61005e3660046101a7565b610101565b6040516323b872dd60e01b815273ffffffffffffffffffffffffffffffffffffffff83811660048301528281166024830152604482018590528516906323b872dd90606401602060405180830381600087803b1580156100c257600080fd5b505af11580156100d6573d6000803e3d6000fd5b505050506040513d601f19601f820116820180604052508101906100fa91906101f4565b5050505050565b6040516323b872dd60e01b815273ffffffffffffffffffffffffffffffffffffffff83811660048301528281166024830152604482018590528516906323b872dd90606401600060405180830381600087803b15801561016057600080fd5b505af1158015610174573d6000803e3d6000fd5b5050505050505050565b803573ffffffffffffffffffffffffffffffffffffffff811681146101a257600080fd5b919050565b600080600080608085870312156101bd57600080fd5b6101c68561017e565b9350602085013592506101db6040860161017e565b91506101e96060860161017e565b905092959194509250565b60006020828403121561020657600080fd5b8151801515811461021657600080fd5b939250505056fea26469706673582212206c94f5e7f9fd0032e4801577a4a08f26541f1e9515ff0278a1733275d8e5d82764736f6c634300080900334661696c656420746f20617070726f76652046756e6769626c6520746f6b656e2e4661696c656420746f20636865636b20667265657a6520737461747573206f66206163636f756e742e4661696c656420746f207472616e736665722046756e6769626c6520746f6b656e2e4661696c656420746f20726574726965766520746f6b656e20696e666f20616674657220756e70617573652e4661696c656420746f20726574726965766520746f6b656e20696e666f20616674657220776970652e4661696c656420746f20636865636b20756e667265657a6520737461747573206f66206163636f756e742e4661696c656420746f20726574726965766520746f6b656e20696e666f206265666f7265206275726e2e4661696c656420746f20726574726965766520746f6b656e20696e666f206265666f726520776970652e4661696c656420746f2067657420746f6b656e20696e666f2061667465722070617573652e4661696c656420746f20667265657a6520746f6b656e20666f7220746865206163636f756e742ea2646970667358221220a51db7ed302d95a203b4d0f2581a758d688f31eedac99f16977e9c8d865a5f3564736f6c63430008090033",
  "linkReferences": {},
  "deployedLinkReferences": {}
}