{
  "_format": "hh-sol-artifact-1",
  "contractName": "EstimatePrecompileContract",
  "sourceName": "contracts/EstimatePrecompileContract.sol",
  "abi": [
    {
      "anonymous": false,
      "inputs": [
        {
          "indexed": false,
          "internalType": "bool",
          "name": "",
          "type": "bool"
        },
        {
          "indexed": false,
          "internalType": "bytes",
          "name": "",
          "type": "bytes"
        }
      ],
      "name": "CallResponseEvent",
      "type": "event"
    },
    {
      "inputs": [
        {
          "internalType": "address",
          "name": "token",
          "type": "address"
        },
        {
          "internalType": "address",
          "name": "owner",
          "type": "address"
        },
        {
          "internalType": "address",
          "name": "spender",
          "type": "address"
        }
      ],
      "name": "allowanceExternal",
      "outputs": [
        {
          "internalType": "uint256",
          "name": "",
          "type": "uint256"
        }
      ],
      "stateMutability": "nonpayable",
      "type": "function"
    },
    {
      "inputs": [
        {
          "internalType": "address",
          "name": "token",
          "type": "address"
        },
        {
          "internalType": "address",
          "name": "spender",
          "type": "address"
        },
        {
          "internalType": "uint256",
          "name": "amount",
          "type": "uint256"
        }
      ],
      "name": "approveExternal",
      "outputs": [],
      "stateMutability": "nonpayable",
      "type": "function"
    },
    {
      "inputs": [
        {
          "internalType": "address",
          "name": "token",
          "type": "address"
        },
        {
          "internalType": "address",
          "name": "approved",
          "type": "address"
        },
        {
          "internalType": "uint256",
          "name": "serialNumber",
          "type": "uint256"
        }
      ],
      "name": "approveNFTExternal",
      "outputs": [],
      "stateMutability": "nonpayable",
      "type": "function"
    },
    {
      "inputs": [
        {
          "internalType": "address",
          "name": "account",
          "type": "address"
        },
        {
          "internalType": "address",
          "name": "token",
          "type": "address"
        }
      ],
      "name": "associateTokenExternal",
      "outputs": [],
      "stateMutability": "nonpayable",
      "type": "function"
    },
    {
      "inputs": [
        {
          "internalType": "address",
          "name": "account",
          "type": "address"
        },
        {
          "internalType": "address[]",
          "name": "tokens",
          "type": "address[]"
        }
      ],
      "name": "associateTokensExternal",
      "outputs": [],
      "stateMutability": "nonpayable",
      "type": "function"
    },
    {
      "inputs": [
        {
          "internalType": "address",
          "name": "token",
          "type": "address"
        },
        {
          "internalType": "int64",
          "name": "amount",
          "type": "int64"
        },
        {
          "internalType": "int64[]",
          "name": "serialNumbers",
          "type": "int64[]"
        }
      ],
      "name": "burnTokenExternal",
      "outputs": [
        {
          "internalType": "int64",
          "name": "newTotalSupply",
          "type": "int64"
        }
      ],
      "stateMutability": "nonpayable",
      "type": "function"
    },
    {
      "inputs": [
        {
          "internalType": "address",
          "name": "treasury",
          "type": "address"
        }
      ],
      "name": "createFungibleTokenPublic",
      "outputs": [
        {
          "internalType": "address",
          "name": "",
          "type": "address"
        }
      ],
      "stateMutability": "payable",
      "type": "function"
    },
    {
      "inputs": [
        {
          "internalType": "address",
          "name": "treasury",
          "type": "address"
        },
        {
          "internalType": "address",
          "name": "fixedFeeTokenAddress",
          "type": "address"
        }
      ],
      "name": "createFungibleTokenWithCustomFeesPublic",
      "outputs": [
        {
          "internalType": "address",
          "name": "",
          "type": "address"
        }
      ],
      "stateMutability": "payable",
      "type": "function"
    },
    {
      "inputs": [
        {
          "internalType": "address",
          "name": "treasury",
          "type": "address"
        }
      ],
      "name": "createNonFungibleTokenPublic",
      "outputs": [
        {
          "internalType": "address",
          "name": "",
          "type": "address"
        }
      ],
      "stateMutability": "payable",
      "type": "function"
    },
    {
      "inputs": [
        {
          "internalType": "address",
          "name": "treasury",
          "type": "address"
        },
        {
          "internalType": "address",
          "name": "fixedFeeTokenAddress",
          "type": "address"
        }
      ],
      "name": "createNonFungibleTokenWithCustomFeesPublic",
      "outputs": [
        {
          "internalType": "address",
          "name": "",
          "type": "address"
        }
      ],
      "stateMutability": "payable",
      "type": "function"
    },
    {
      "inputs": [
        {
          "components": [
            {
              "components": [
                {
                  "internalType": "address",
                  "name": "accountID",
                  "type": "address"
                },
                {
                  "internalType": "int64",
                  "name": "amount",
                  "type": "int64"
                },
                {
                  "internalType": "bool",
                  "name": "isApproval",
                  "type": "bool"
                }
              ],
              "internalType": "struct IHederaTokenService.AccountAmount[]",
              "name": "transfers",
              "type": "tuple[]"
            }
          ],
          "internalType": "struct IHederaTokenService.TransferList",
          "name": "transferList",
          "type": "tuple"
        },
        {
          "components": [
            {
              "internalType": "address",
              "name": "token",
              "type": "address"
            },
            {
              "components": [
                {
                  "internalType": "address",
                  "name": "accountID",
                  "type": "address"
                },
                {
                  "internalType": "int64",
                  "name": "amount",
                  "type": "int64"
                },
                {
                  "internalType": "bool",
                  "name": "isApproval",
                  "type": "bool"
                }
              ],
              "internalType": "struct IHederaTokenService.AccountAmount[]",
              "name": "transfers",
              "type": "tuple[]"
            },
            {
              "components": [
                {
                  "internalType": "address",
                  "name": "senderAccountID",
                  "type": "address"
                },
                {
                  "internalType": "address",
                  "name": "receiverAccountID",
                  "type": "address"
                },
                {
                  "internalType": "int64",
                  "name": "serialNumber",
                  "type": "int64"
                },
                {
                  "internalType": "bool",
                  "name": "isApproval",
                  "type": "bool"
                }
              ],
              "internalType": "struct IHederaTokenService.NftTransfer[]",
              "name": "nftTransfers",
              "type": "tuple[]"
            }
          ],
          "internalType": "struct IHederaTokenService.TokenTransferList[]",
          "name": "tokenTransfers",
          "type": "tuple[]"
        }
      ],
      "name": "cryptoTransferExternal",
      "outputs": [],
      "stateMutability": "nonpayable",
      "type": "function"
    },
    {
      "inputs": [
        {
          "internalType": "address",
          "name": "token",
          "type": "address"
        }
      ],
      "name": "deleteTokenExternal",
      "outputs": [],
      "stateMutability": "nonpayable",
      "type": "function"
    },
    {
      "inputs": [
        {
          "internalType": "address",
          "name": "account",
          "type": "address"
        },
        {
          "internalType": "address",
          "name": "token",
          "type": "address"
        }
      ],
      "name": "dissociateAndAssociateTokenExternal",
      "outputs": [],
      "stateMutability": "nonpayable",
      "type": "function"
    },
    {
      "inputs": [
        {
          "internalType": "address",
          "name": "account",
          "type": "address"
        },
        {
          "internalType": "address",
          "name": "token",
          "type": "address"
        }
      ],
      "name": "dissociateTokenExternal",
      "outputs": [],
      "stateMutability": "nonpayable",
      "type": "function"
    },
    {
      "inputs": [
        {
          "internalType": "address",
          "name": "account",
          "type": "address"
        },
        {
          "internalType": "address[]",
          "name": "tokens",
          "type": "address[]"
        }
      ],
      "name": "dissociateTokensExternal",
      "outputs": [],
      "stateMutability": "nonpayable",
      "type": "function"
    },
    {
      "inputs": [
        {
          "internalType": "address",
          "name": "token",
          "type": "address"
        },
        {
          "internalType": "address",
          "name": "account",
          "type": "address"
        }
      ],
      "name": "freezeTokenExternal",
      "outputs": [],
      "stateMutability": "nonpayable",
      "type": "function"
    },
    {
      "inputs": [
        {
          "internalType": "address",
          "name": "token",
          "type": "address"
        },
        {
          "internalType": "uint256",
          "name": "serialNumber",
          "type": "uint256"
        }
      ],
      "name": "getApprovedExternal",
      "outputs": [
        {
          "internalType": "address",
          "name": "",
          "type": "address"
        }
      ],
      "stateMutability": "nonpayable",
      "type": "function"
    },
    {
      "inputs": [
        {
          "internalType": "uint32",
          "name": "lo",
          "type": "uint32"
        },
        {
          "internalType": "uint32",
          "name": "hi",
          "type": "uint32"
        }
      ],
      "name": "getPseudorandomNumber",
      "outputs": [
        {
          "internalType": "uint32",
          "name": "",
          "type": "uint32"
        }
      ],
      "stateMutability": "nonpayable",
      "type": "function"
    },
    {
      "inputs": [],
      "name": "getPseudorandomSeed",
      "outputs": [
        {
          "internalType": "bytes32",
          "name": "randomBytes",
          "type": "bytes32"
        }
      ],
      "stateMutability": "nonpayable",
      "type": "function"
    },
    {
      "inputs": [
        {
          "internalType": "address",
          "name": "token",
          "type": "address"
        }
      ],
      "name": "getTokenExpiryInfoExternal",
      "outputs": [
        {
          "internalType": "int64",
          "name": "",
          "type": "int64"
        },
        {
          "internalType": "address",
          "name": "",
          "type": "address"
        },
        {
          "internalType": "int64",
          "name": "",
          "type": "int64"
        }
      ],
      "stateMutability": "nonpayable",
      "type": "function"
    },
    {
      "inputs": [
        {
          "internalType": "address",
          "name": "token",
          "type": "address"
        },
        {
          "internalType": "uint256",
          "name": "keyType",
          "type": "uint256"
        }
      ],
      "name": "getTokenKeyExternal",
      "outputs": [
        {
          "internalType": "bool",
          "name": "",
          "type": "bool"
        },
        {
          "internalType": "address",
          "name": "",
          "type": "address"
        },
        {
          "internalType": "bytes",
          "name": "",
          "type": "bytes"
        },
        {
          "internalType": "bytes",
          "name": "",
          "type": "bytes"
        },
        {
          "internalType": "address",
          "name": "",
          "type": "address"
        }
      ],
      "stateMutability": "nonpayable",
      "type": "function"
    },
    {
      "inputs": [
        {
          "internalType": "address",
          "name": "token",
          "type": "address"
        },
        {
          "internalType": "address",
          "name": "account",
          "type": "address"
        }
      ],
      "name": "grantTokenKycExternal",
      "outputs": [],
      "stateMutability": "nonpayable",
      "type": "function"
    },
    {
      "inputs": [
        {
          "internalType": "address",
          "name": "token",
          "type": "address"
        },
        {
          "internalType": "address",
          "name": "owner",
          "type": "address"
        },
        {
          "internalType": "address",
          "name": "operator",
          "type": "address"
        }
      ],
      "name": "isApprovedForAllExternal",
      "outputs": [
        {
          "internalType": "bool",
          "name": "",
          "type": "bool"
        }
      ],
      "stateMutability": "nonpayable",
      "type": "function"
    },
    {
      "inputs": [
        {
          "internalType": "address",
          "name": "token",
          "type": "address"
        }
      ],
      "name": "isTokenExternal",
      "outputs": [
        {
          "internalType": "bool",
          "name": "",
          "type": "bool"
        }
      ],
      "stateMutability": "nonpayable",
      "type": "function"
    },
    {
      "inputs": [
        {
          "internalType": "address",
          "name": "token",
          "type": "address"
        },
        {
          "internalType": "int64",
          "name": "amount",
          "type": "int64"
        },
        {
          "internalType": "bytes[]",
          "name": "metadata",
          "type": "bytes[]"
        }
      ],
      "name": "mintTokenExternal",
      "outputs": [
        {
          "internalType": "int64",
          "name": "newTotalSupply",
          "type": "int64"
        },
        {
          "internalType": "int64[]",
          "name": "serialNumbers",
          "type": "int64[]"
        }
      ],
      "stateMutability": "nonpayable",
      "type": "function"
    },
    {
      "inputs": [
        {
          "internalType": "address",
          "name": "account",
          "type": "address"
        },
        {
          "internalType": "address",
          "name": "token",
          "type": "address"
        }
      ],
      "name": "nestedAssociateTokenExternal",
      "outputs": [],
      "stateMutability": "nonpayable",
      "type": "function"
    },
    {
      "inputs": [
        {
          "internalType": "address",
          "name": "token",
          "type": "address"
        },
        {
          "internalType": "address",
          "name": "account",
          "type": "address"
        }
      ],
      "name": "nestedFreezeUnfreezeTokenExternal",
      "outputs": [],
      "stateMutability": "nonpayable",
      "type": "function"
    },
    {
      "inputs": [
        {
          "internalType": "address",
          "name": "token",
          "type": "address"
        },
        {
          "internalType": "address",
          "name": "account",
          "type": "address"
        }
      ],
      "name": "nestedGrantAndRevokeTokenKYCExternal",
      "outputs": [],
      "stateMutability": "nonpayable",
      "type": "function"
    },
    {
      "inputs": [
        {
          "internalType": "address",
          "name": "token",
          "type": "address"
        }
      ],
      "name": "nestedPauseUnpauseTokenExternal",
      "outputs": [],
      "stateMutability": "nonpayable",
      "type": "function"
    },
    {
      "inputs": [
        {
          "internalType": "address",
          "name": "token",
          "type": "address"
        }
      ],
      "name": "pauseTokenExternal",
      "outputs": [],
      "stateMutability": "nonpayable",
      "type": "function"
    },
    {
      "inputs": [
        {
          "internalType": "address",
          "name": "token",
          "type": "address"
        },
        {
          "internalType": "bytes",
          "name": "encodedFunctionSelector",
          "type": "bytes"
        }
      ],
      "name": "redirectForToken",
      "outputs": [
        {
          "internalType": "int256",
          "name": "responseCode",
          "type": "int256"
        },
        {
          "internalType": "bytes",
          "name": "response",
          "type": "bytes"
        }
      ],
      "stateMutability": "nonpayable",
      "type": "function"
    },
    {
      "inputs": [
        {
          "internalType": "address",
          "name": "token",
          "type": "address"
        },
        {
          "internalType": "address",
          "name": "account",
          "type": "address"
        }
      ],
      "name": "revokeTokenKycExternal",
      "outputs": [],
      "stateMutability": "nonpayable",
      "type": "function"
    },
    {
      "inputs": [
        {
          "internalType": "address",
          "name": "token",
          "type": "address"
        },
        {
          "internalType": "address",
          "name": "account",
          "type": "address"
        },
        {
          "internalType": "bool",
          "name": "approved",
          "type": "bool"
        }
      ],
      "name": "setApprovalForAllExternal",
      "outputs": [],
      "stateMutability": "nonpayable",
      "type": "function"
    },
    {
      "inputs": [
        {
          "internalType": "uint256",
          "name": "tinybars",
          "type": "uint256"
        }
      ],
      "name": "tinybarsToTinycents",
      "outputs": [
        {
          "internalType": "uint256",
          "name": "tinycents",
          "type": "uint256"
        }
      ],
      "stateMutability": "nonpayable",
      "type": "function"
    },
    {
      "inputs": [
        {
          "internalType": "uint256",
          "name": "tinycents",
          "type": "uint256"
        }
      ],
      "name": "tinycentsToTinybars",
      "outputs": [
        {
          "internalType": "uint256",
          "name": "tinybars",
          "type": "uint256"
        }
      ],
      "stateMutability": "nonpayable",
      "type": "function"
    },
    {
      "inputs": [
        {
          "internalType": "address",
          "name": "token",
          "type": "address"
        },
        {
          "internalType": "address",
          "name": "from",
          "type": "address"
        },
        {
          "internalType": "address",
          "name": "to",
          "type": "address"
        },
        {
          "internalType": "uint256",
          "name": "amount",
          "type": "uint256"
        }
      ],
      "name": "transferFrom",
      "outputs": [
        {
          "internalType": "int64",
          "name": "responseCode",
          "type": "int64"
        }
      ],
      "stateMutability": "nonpayable",
      "type": "function"
    },
    {
      "inputs": [
        {
          "internalType": "address",
          "name": "token",
          "type": "address"
        },
        {
          "internalType": "address",
          "name": "from",
          "type": "address"
        },
        {
          "internalType": "address",
          "name": "to",
          "type": "address"
        },
        {
          "internalType": "uint256",
          "name": "amount",
          "type": "uint256"
        }
      ],
      "name": "transferFromExternal",
      "outputs": [],
      "stateMutability": "nonpayable",
      "type": "function"
    },
    {
      "inputs": [
        {
          "internalType": "address",
          "name": "token",
          "type": "address"
        },
        {
          "internalType": "address",
          "name": "from",
          "type": "address"
        },
        {
          "internalType": "address",
          "name": "to",
          "type": "address"
        },
        {
          "internalType": "uint256",
          "name": "serialNumber",
          "type": "uint256"
        }
      ],
      "name": "transferFromNFT",
      "outputs": [
        {
          "internalType": "int64",
          "name": "responseCode",
          "type": "int64"
        }
      ],
      "stateMutability": "nonpayable",
      "type": "function"
    },
    {
      "inputs": [
        {
          "internalType": "address",
          "name": "token",
          "type": "address"
        },
        {
          "internalType": "address",
          "name": "from",
          "type": "address"
        },
        {
          "internalType": "address",
          "name": "to",
          "type": "address"
        },
        {
          "internalType": "uint256",
          "name": "serialNumber",
          "type": "uint256"
        }
      ],
      "name": "transferFromNFTExternal",
      "outputs": [],
      "stateMutability": "nonpayable",
      "type": "function"
    },
    {
      "inputs": [
        {
          "internalType": "address",
          "name": "token",
          "type": "address"
        },
        {
          "internalType": "address",
          "name": "sender",
          "type": "address"
        },
        {
          "internalType": "address",
          "name": "receiver",
          "type": "address"
        },
        {
          "internalType": "int64",
          "name": "serialNumber",
          "type": "int64"
        }
      ],
      "name": "transferNFTExternal",
      "outputs": [],
      "stateMutability": "nonpayable",
      "type": "function"
    },
    {
      "inputs": [
        {
          "internalType": "address",
          "name": "token",
          "type": "address"
        },
        {
          "internalType": "address[]",
          "name": "sender",
          "type": "address[]"
        },
        {
          "internalType": "address[]",
          "name": "receiver",
          "type": "address[]"
        },
        {
          "internalType": "int64[]",
          "name": "serialNumber",
          "type": "int64[]"
        }
      ],
      "name": "transferNFTsExternal",
      "outputs": [],
      "stateMutability": "nonpayable",
      "type": "function"
    },
    {
      "inputs": [
        {
          "internalType": "address",
          "name": "token",
          "type": "address"
        },
        {
          "internalType": "address",
          "name": "sender",
          "type": "address"
        },
        {
          "internalType": "address",
          "name": "receiver",
          "type": "address"
        },
        {
          "internalType": "int64",
          "name": "amount",
          "type": "int64"
        }
      ],
      "name": "transferTokenExternal",
      "outputs": [],
      "stateMutability": "nonpayable",
      "type": "function"
    },
    {
      "inputs": [
        {
          "internalType": "address",
          "name": "token",
          "type": "address"
        },
        {
          "internalType": "address[]",
          "name": "accountIds",
          "type": "address[]"
        },
        {
          "internalType": "int64[]",
          "name": "amounts",
          "type": "int64[]"
        }
      ],
      "name": "transferTokensExternal",
      "outputs": [],
      "stateMutability": "nonpayable",
      "type": "function"
    },
    {
      "inputs": [
        {
          "internalType": "address",
          "name": "token",
          "type": "address"
        },
        {
          "internalType": "address",
          "name": "account",
          "type": "address"
        }
      ],
      "name": "unfreezeTokenExternal",
      "outputs": [],
      "stateMutability": "nonpayable",
      "type": "function"
    },
    {
      "inputs": [
        {
          "internalType": "address",
          "name": "token",
          "type": "address"
        }
      ],
      "name": "unpauseTokenExternal",
      "outputs": [],
      "stateMutability": "nonpayable",
      "type": "function"
    },
    {
      "inputs": [
        {
          "internalType": "address",
          "name": "token",
          "type": "address"
        },
        {
          "internalType": "address",
          "name": "treasury",
          "type": "address"
        }
      ],
      "name": "updateTokenExpiryInfoExternal",
      "outputs": [],
      "stateMutability": "nonpayable",
      "type": "function"
    },
    {
      "inputs": [
        {
          "internalType": "address",
          "name": "token",
          "type": "address"
        },
        {
          "internalType": "address",
          "name": "treasury",
          "type": "address"
        }
      ],
      "name": "updateTokenInfoExternal",
      "outputs": [],
      "stateMutability": "nonpayable",
      "type": "function"
    },
    {
      "inputs": [
        {
          "internalType": "address",
          "name": "token",
          "type": "address"
        }
      ],
      "name": "updateTokenKeysExternal",
      "outputs": [],
      "stateMutability": "nonpayable",
      "type": "function"
    },
    {
      "inputs": [
        {
          "internalType": "address",
          "name": "token",
          "type": "address"
        },
        {
          "internalType": "address",
          "name": "account",
          "type": "address"
        },
        {
          "internalType": "int64",
          "name": "amount",
          "type": "int64"
        }
      ],
      "name": "wipeTokenAccountExternal",
      "outputs": [],
      "stateMutability": "nonpayable",
      "type": "function"
    },
    {
      "inputs": [
        {
          "internalType": "address",
          "name": "token",
          "type": "address"
        },
        {
          "internalType": "address",
          "name": "account",
          "type": "address"
        },
        {
          "internalType": "int64[]",
          "name": "serialNumbers",
          "type": "int64[]"
        }
      ],
      "name": "wipeTokenAccountNFTExternal",
      "outputs": [],
      "stateMutability": "nonpayable",
      "type": "function"
    }
  ],
  "bytecode": "0x60c06040526009608081905268746f6b656e4e616d6560b81b60a09081526200002c9160029190620001c2565b5060408051808201909152600380825262544b5960e81b6020909201918252620000579181620001c2565b50604080518082019091526004808252636d656d6f60e01b6020909201918252620000839181620001c2565b50600580546001600160a81b031916700800000000000003e800000000000003e8179055348015620000b457600080fd5b50600160208181527fa6eef7e35abe7026729641147f7915573c7e97b47efa546f5f6e3230263bcb499190915560027fcc69885fda6bcc1a4ace058b4a62bf5e179ea78fd58a1ccd71c22cc9b688792f5560047fd9d16d34ffb15ba3a3d852f0d403e2ce1d691fb54de27ac87cd2f993f3ec330f5560087f7dfe757ecd65cbd7922a9c0161e935dd7fdbcc0e999689c7d31633896b1fc60b5560107fedc95719e9a3b28dd8e80877cb5880a9be7de1a13fc8b05e7999683b6b567643557fe2689cd4a84e23ad2f564004f1c9013e9589d260bde6380aba3ca7e09e4df40c55600660005260407f8f331abe73332f95a25873e8b430885974c0409691f89d643119a11623a7924a55620002a5565b828054620001d09062000268565b90600052602060002090601f016020900481019282620001f457600085556200023f565b82601f106200020f57805160ff19168380011785556200023f565b828001600101855582156200023f579182015b828111156200023f57825182559160200191906001019062000222565b506200024d92915062000251565b5090565b5b808211156200024d576000815560010162000252565b600181811c908216806200027d57607f821691505b602082108114156200029f57634e487b7160e01b600052602260045260246000fd5b50919050565b6158b680620002b56000396000f3fe6080604052600436106103295760003560e01c806375a85472116101a5578063b97beda9116100ec578063d91cfc9511610095578063ec4ca6391161006f578063ec4ca6391461096d578063ed129c3f1461098d578063f1938266146109ad578063fb2b6cef146109cd57600080fd5b8063d91cfc951461090d578063e31b839c1461092d578063e95a71e51461094d57600080fd5b8063ceda64c4116100c6578063ceda64c4146108c5578063d83bf9a1146108e5578063d85f74c1146108fa57600080fd5b8063b97beda914610850578063bafa6a9114610870578063bc7718e31461089057600080fd5b80639333700b1161014e5780639c219247116101285780639c219247146107f0578063a621881014610810578063aa835c631461083057600080fd5b80639333700b146107905780639b23d3d9146107b05780639bc4d354146107d057600080fd5b806384d232f51161017f57806384d232f51461073d5780638ba74da01461075d578063901fe3d01461077057600080fd5b806375a85472146106b15780637adc26b8146106d15780637cea29a3146106f157600080fd5b806330a8f293116102745780634fd6ce0a1161021d578063618dc65e116101f7578063618dc65e14610623578063632da116146106515780636f3e867814610671578063714c42c01461069157600080fd5b80634fd6ce0a146105c357806352205b33146105e35780635ac4fef81461060357600080fd5b806343a882291161024e57806343a88229146105705780634b5c6687146105905780634c09c804146105a357600080fd5b806330a8f293146105005780633150810714610520578063437dffd51461055057600080fd5b806315dacbea116102d65780632390c1fa116102b05780632390c1fa146104a05780632e3cff6a146104c05780632fc358f7146104e057600080fd5b806315dacbea1461042d578063165aae66146104605780631ba978fc1461048057600080fd5b80630c0295d4116103075780630c0295d4146103ae5780630c0a198c146103dc578063144b06ff146103fc57600080fd5b80630435d8401461032e5780630488c9391461036157806306a1a5d31461038c575b600080fd5b34801561033a57600080fd5b5061034e610349366004613ffe565b6109ed565b6040519081526020015b60405180910390f35b61037461036f366004614049565b610a15565b6040516001600160a01b039091168152602001610358565b34801561039857600080fd5b506103ac6103a7366004614049565b610f53565b005b3480156103ba57600080fd5b506103ce6103c936600461420c565b610f7d565b604051610358929190614322565b3480156103e857600080fd5b506103ac6103f736600461433e565b610fad565b34801561040857600080fd5b5061041c61041736600461435b565b610fc7565b6040516103589594939291906143df565b34801561043957600080fd5b5061044d610448366004614432565b611016565b60405160079190910b8152602001610358565b34801561046c57600080fd5b506103ac61047b36600461433e565b61110a565b34801561048c57600080fd5b506103ac61049b366004614556565b611115565b3480156104ac57600080fd5b506103ac6104bb3660046145f1565b611135565b3480156104cc57600080fd5b5061034e6104db366004614641565b61114c565b3480156104ec57600080fd5b506103ac6104fb3660046145f1565b61122b565b34801561050c57600080fd5b506103ac61051b36600461433e565b611237565b34801561052c57600080fd5b5061054061053b366004613ffe565b611242565b6040519015158152602001610358565b34801561055c57600080fd5b506103ac61056b366004614049565b611252565b34801561057c57600080fd5b5061034e61058b366004614641565b611269565b61037461059e36600461433e565b6112db565b3480156105af57600080fd5b506103ac6105be36600461465a565b6116b9565b3480156105cf57600080fd5b506103ac6105de3660046146bc565b6116d7565b3480156105ef57600080fd5b506103ac6105fe366004614049565b6116e5565b34801561060f57600080fd5b506103ac61061e366004614718565b6116f1565b34801561062f57600080fd5b5061064361063e366004614758565b6116fe565b60405161035892919061479e565b34801561065d57600080fd5b5061044d61066c3660046147b7565b61181c565b34801561067d57600080fd5b5061054061068c36600461433e565b61182c565b34801561069d57600080fd5b506103ac6106ac36600461433e565b61184a565b3480156106bd57600080fd5b506103ac6106cc366004614432565b611a26565b3480156106dd57600080fd5b506103ac6106ec366004614049565b611ac8565b3480156106fd57600080fd5b5061071161070c36600461433e565b611afc565b60408051600794850b81526001600160a01b039093166020840152920b91810191909152606001610358565b34801561074957600080fd5b506103ac6107583660046147e7565b611b34565b61037461076b366004614049565b611b41565b34801561077c57600080fd5b506103ac61078b366004614049565b611f78565b34801561079c57600080fd5b506103ac6107ab366004614049565b611f8f565b3480156107bc57600080fd5b5061044d6107cb366004614432565b611f9b565b3480156107dc57600080fd5b506103ac6107eb366004614432565b611fe0565b3480156107fc57600080fd5b506103ac61080b366004614049565b612026565b34801561081c57600080fd5b506103ac61082b3660046148e5565b612032565b34801561083c57600080fd5b506103ac61084b366004614b30565b61203e565b34801561085c57600080fd5b5061037461086b36600461435b565b61204b565b34801561087c57600080fd5b506103ac61088b3660046146bc565b612067565b34801561089c57600080fd5b506108b06108ab366004614bb5565b612075565b60405163ffffffff9091168152602001610358565b3480156108d157600080fd5b506103ac6108e03660046147e7565b612128565b3480156108f157600080fd5b5061034e612135565b61037461090836600461433e565b6121e0565b34801561091957600080fd5b506103ac610928366004614049565b612583565b34801561093957600080fd5b506103ac610948366004614be8565b61258f565b34801561095957600080fd5b506103ac610968366004614049565b61259c565b34801561097957600080fd5b506103ac610988366004614049565b6125a8565b34801561099957600080fd5b506103ac6109a836600461433e565b6125b4565b3480156109b957600080fd5b506103ac6109c8366004614049565b6125c9565b3480156109d957600080fd5b506103ac6109e8366004614049565b6125d3565b60008060006109fd868686612986565b91509150610a0a82612a85565b9150505b9392505050565b60408051600580825260c08201909252600091829190816020015b610a38613f8c565b815260200190600190039081610a30579050509050610a6b60006006600060405180602001604052806000815250612a95565b81600081518110610a7e57610a7e614c28565b6020026020010181905250610aa56001600060405180602001604052806000815250612acc565b81600181518110610ab857610ab8614c28565b6020026020010181905250610adf6002600060405180602001604052806000815250612acc565b81600281518110610af257610af2614c28565b6020026020010181905250610b196004600060405180602001604052806000815250612acc565b81600381518110610b2c57610b2c614c28565b6020026020010181905250610b536003600060405180602001604052806000815250612acc565b81600481518110610b6657610b66614c28565b602002602001018190525060006040518060600160405280600060070b8152602001866001600160a01b03168152602001627a120060070b8152509050600060405180610120016040528060028054610bbe90614c3e565b80601f0160208091040260200160405190810160405280929190818152602001828054610bea90614c3e565b8015610c375780601f10610c0c57610100808354040283529160200191610c37565b820191906000526020600020905b815481529060010190602001808311610c1a57829003601f168201915b5050505050815260200160038054610c4e90614c3e565b80601f0160208091040260200160405190810160405280929190818152602001828054610c7a90614c3e565b8015610cc75780601f10610c9c57610100808354040283529160200191610cc7565b820191906000526020600020905b815481529060010190602001808311610caa57829003601f168201915b50505050508152602001876001600160a01b0316815260200160048054610ced90614c3e565b80601f0160208091040260200160405190810160405280929190818152602001828054610d1990614c3e565b8015610d665780601f10610d3b57610100808354040283529160200191610d66565b820191906000526020600020905b815481529060010190602001808311610d4957829003601f168201915b505050918352505060016020820181905260055468010000000000000000810460070b6040840152600160a01b900460ff16151560608301526080820186905260a0909101849052909150600090604051908082528060200260200182016040528015610e0d57816020015b6040805160a081018252600080825260208083018290529282018190526060820181905260808201528252600019909201910181610dd25790505b506040805160a081018252600181526001600160a01b03808a1660208301526000928201839052606082018390528a166080820152825192935091839190610e5757610e57614c28565b6020908102919091010152604080516001808252818301909252600091816020015b6040805160c08101825260008082526020808301829052928201819052606082018190526080820181905260a08201528252600019909201910181610e795790505090506040518060c00160405280600460070b8152602001600560070b8152602001600a60070b8152602001886001600160a01b03168152602001600015158152602001896001600160a01b031681525081600081518110610f1e57610f1e614c28565b6020026020010181905250600080610f37858585612b01565b91509150610f4482612a85565b96505050505050505b92915050565b610f5d8282612c29565b506000610f6a8383612d25565b60070b9050610f7881612a85565b505050565b600060606000806000610f91888888612d74565b925092509250610fa083612a85565b9097909650945050505050565b6000610fb882612e72565b9050610fc381612a85565b5050565b6000806060806000806000610fdc8989612f65565b915060070b9150610fec82612a85565b8051602082015160408301516060840151608090940151929c919b50995091975095509350505050565b6040516001600160a01b038581166024830152848116604483015283166064820152608481018290526000908190819061016790630aed65f560e11b9060a4015b60408051601f198184030181529181526020820180516001600160e01b03166001600160e01b03199094169390931790925290516110959190614c79565b6000604051808303816000865af19150503d80600081146110d2576040519150601f19603f3d011682016040523d82523d6000602084013e6110d7565b606091505b5091509150816110e85760156110fc565b808060200190518101906110fc9190614ca7565b60030b979650505050505050565b6000610fb8826130af565b6000611123858585856130f6565b905061112e81612a85565b5050505050565b60006111418383613126565b9050610f7881612a85565b60008060006101686001600160a01b03168460405160240161117091815260200190565b60408051601f198184030181529181526020820180516001600160e01b03167f2e3cff6a00000000000000000000000000000000000000000000000000000000179052516111be9190614c79565b6000604051808303816000865af19150503d80600081146111fb576040519150601f19603f3d011682016040523d82523d6000602084013e611200565b606091505b50915091508161120f57600080fd5b808060200190518101906112239190614cc2565b949350505050565b60006111418383613152565b6000610fb88261317e565b60008060006109fd8686866131c5565b61125c82826132b1565b50600061114183836132b1565b60008060006101686001600160a01b03168460405160240161128d91815260200190565b60408051601f198184030181529181526020820180516001600160e01b03167f43a8822900000000000000000000000000000000000000000000000000000000179052516111be9190614c79565b60408051600580825260c08201909252600091829190816020015b6112fe613f8c565b8152602001906001900390816112f657905050905061133160006006600060405180602001604052806000815250612a95565b8160008151811061134457611344614c28565b602002602001018190525061136b6001600060405180602001604052806000815250612acc565b8160018151811061137e5761137e614c28565b60200260200101819052506113a56002600060405180602001604052806000815250612acc565b816002815181106113b8576113b8614c28565b60200260200101819052506113df6003600060405180602001604052806000815250612acc565b816003815181106113f2576113f2614c28565b60200260200101819052506114196004600060405180602001604052806000815250612acc565b8160048151811061142c5761142c614c28565b602002602001018190525060006040518060600160405280600060070b8152602001856001600160a01b03168152602001627a120060070b815250905060006040518061012001604052806002805461148490614c3e565b80601f01602080910402602001604051908101604052809291908181526020018280546114b090614c3e565b80156114fd5780601f106114d2576101008083540402835291602001916114fd565b820191906000526020600020905b8154815290600101906020018083116114e057829003601f168201915b505050505081526020016003805461151490614c3e565b80601f016020809104026020016040519081016040528092919081815260200182805461154090614c3e565b801561158d5780601f106115625761010080835404028352916020019161158d565b820191906000526020600020905b81548152906001019060200180831161157057829003601f168201915b50505050508152602001866001600160a01b03168152602001600480546115b390614c3e565b80601f01602080910402602001604051908101604052809291908181526020018280546115df90614c3e565b801561162c5780601f106116015761010080835404028352916020019161162c565b820191906000526020600020905b81548152906001019060200180831161160f57829003601f168201915b505050918352505060016020820152600554680100000000000000008104600790810b604084015260ff600160a01b830416151560608401526080830187905260a090920185905291925060009182916116a291859181900b90700100000000000000000000000000000000900460030b613300565b915091506116af82612a85565b9695505050505050565b60006116c684848461336d565b90506116d181612a85565b50505050565b60006111238585858561344d565b6000610f6a8383612d25565b60006116c68484846134ae565b600060606000806101676001600160a01b031663618dc65e60e01b878760405160240161172c929190614cdb565b60408051601f198184030181529181526020820180516001600160e01b03166001600160e01b031990941693909317909252905161176a9190614c79565b6000604051808303816000865af19150503d80600081146117a7576040519150601f19603f3d011682016040523d82523d6000602084013e6117ac565b606091505b50915091507f4af4780e06fe8cb9df64b0794fa6f01399af979175bb988e35e0e57e594567bc82826040516117e2929190614cfd565b60405180910390a1816118065760156040518060200160405280600081525061180a565b6016815b60039190910b97909650945050505050565b60008060006109fd868686613507565b600080600061183a846135dd565b915060070b9150610a0e82612a85565b60408051600480825260a08201909252600091816020015b61186a613f8c565b8152602001906001900390816118625790505090506118d7600160036040516020016118c3907f02e35698a0273a8c6509ae4716c26a52eebca73e5de2c6677b189ef40f6fcd1f815260ed60f81b602082015260210190565b604051602081830303815290604052612acc565b816000815181106118ea576118ea614c28565b6020026020010181905250611939600260036040516020016118c3907f02e35698a0273a8c6509ae4716c26a52eebca73e5de2c6677b189ef40f6fcd1f815260ed60f81b602082015260210190565b8160018151811061194c5761194c614c28565b602002602001018190525061199b600460036040516020016118c3907f02e35698a0273a8c6509ae4716c26a52eebca73e5de2c6677b189ef40f6fcd1f815260ed60f81b602082015260210190565b816002815181106119ae576119ae614c28565b60200260200101819052506119fc6003806040516020016118c3907f02e35698a0273a8c6509ae4716c26a52eebca73e5de2c6677b189ef40f6fcd1f815260ed60f81b602082015260210190565b81600381518110611a0f57611a0f614c28565b60200260200101819052506000610f6a83836136ca565b604051630aed65f560e11b81526001600160a01b0380861660048301528085166024830152831660448201526064810182905260009030906315dacbea906084015b602060405180830381600087803b158015611a8257600080fd5b505af1158015611a96573d6000803e3d6000fd5b505050506040513d601f19601f82011682018060405250810190611aba9190614d18565b60070b905061112e81612a85565b6040805160608101825260008082526001600160a01b0384166020830152627a120092820192909252906116c684836136f6565b6000806000806000611b0d86613722565b91509150611b1a82612a85565b805160208201516040909201519097919650945092505050565b60006116c6848484613833565b604080516001808252818301909252600091829190816020015b611b63613f8c565b815260200190600190039081611b5b579050509050611b95600080600060405180602001604052806000815250612a95565b81600081518110611ba857611ba8614c28565b602002602001018190525060006040518060600160405280600060070b8152602001866001600160a01b03168152602001627a120060070b8152509050600060405180610120016040528060028054611c0090614c3e565b80601f0160208091040260200160405190810160405280929190818152602001828054611c2c90614c3e565b8015611c795780601f10611c4e57610100808354040283529160200191611c79565b820191906000526020600020905b815481529060010190602001808311611c5c57829003601f168201915b5050505050815260200160038054611c9090614c3e565b80601f0160208091040260200160405190810160405280929190818152602001828054611cbc90614c3e565b8015611d095780601f10611cde57610100808354040283529160200191611d09565b820191906000526020600020905b815481529060010190602001808311611cec57829003601f168201915b50505050508152602001876001600160a01b0316815260200160048054611d2f90614c3e565b80601f0160208091040260200160405190810160405280929190818152602001828054611d5b90614c3e565b8015611da85780601f10611d7d57610100808354040283529160200191611da8565b820191906000526020600020905b815481529060010190602001808311611d8b57829003601f168201915b505050918352505060016020820181905260055468010000000000000000900460070b6040808401919091526000606084018190526080840188905260a09093018690528051828152808201909152929350909190816020015b6040805160a081018252600080825260208083018290529282018190526060820181905260808201528252600019909201910181611e025750506040805160a081018252600181526001600160a01b0389811660208301526000928201839052606082018390528a166080820152825192935091839190611e8557611e85614c28565b6020908102919091010152604080516001808252818301909252600091816020015b6040805160c08101825260008082526020808301829052928201819052606082018190526080820181905260a08201528252600019909201910181611ea75750506040805160c0810182526004815260056020820152600a91810191909152601e60608201526000608082018190526001600160a01b038b1660a083015282519293509091839190611f3b57611f3b614c28565b60209081029190910101526005546000908190610f37908690600781900b90700100000000000000000000000000000000900460030b8787613889565b611f8282826139b7565b506000610f6a8383613a06565b6000610f6a83836139b7565b6040516001600160a01b038581166024830152848116604483015283166064820152608481018290526000908190819061016790639b23d3d960e01b9060a401611057565b604051639b23d3d960e01b81526001600160a01b038086166004830152808516602483015283166044820152606481018290526000903090639b23d3d990608401611a68565b60006111418383613a55565b60006111418383613aa4565b60006116c6848484613ad0565b600080600061205a8585613afe565b9150915061122382612a85565b600061112385858585613bde565b60408051600481526024810182526020810180516001600160e01b031663d83bf9a160e01b179052905160009182918291610169916120b49190614c79565b6000604051808303816000865af19150503d80600081146120f1576040519150601f19603f3d011682016040523d82523d6000602084013e6120f6565b606091505b50915091508161210557600080fd5b60208101516121148686614d4b565b61211e9082614d70565b6116af9087614da1565b60006116c6848484613c3f565b60408051600481526024810182526020810180516001600160e01b031663d83bf9a160e01b179052905160009182918291610169916121749190614c79565b6000604051808303816000865af19150503d80600081146121b1576040519150601f19603f3d011682016040523d82523d6000602084013e6121b6565b606091505b5091509150816121c557600080fd5b808060200190518101906121d99190614cc2565b9250505090565b60408051600580825260c08201909252600091829190816020015b612203613f8c565b8152602001906001900390816121fb57905050905061223660006006600060405180602001604052806000815250612a95565b8160008151811061224957612249614c28565b60200260200101819052506122706001600060405180602001604052806000815250612acc565b8160018151811061228357612283614c28565b60200260200101819052506122aa6002600060405180602001604052806000815250612acc565b816002815181106122bd576122bd614c28565b60200260200101819052506122e46004600060405180602001604052806000815250612acc565b816003815181106122f7576122f7614c28565b602002602001018190525061231e6003600060405180602001604052806000815250612acc565b8160048151811061233157612331614c28565b602002602001018190525060006040518060600160405280600060070b8152602001856001600160a01b03168152602001627a120060070b815250905060006040518061012001604052806002805461238990614c3e565b80601f01602080910402602001604051908101604052809291908181526020018280546123b590614c3e565b80156124025780601f106123d757610100808354040283529160200191612402565b820191906000526020600020905b8154815290600101906020018083116123e557829003601f168201915b505050505081526020016003805461241990614c3e565b80601f016020809104026020016040519081016040528092919081815260200182805461244590614c3e565b80156124925780601f1061246757610100808354040283529160200191612492565b820191906000526020600020905b81548152906001019060200180831161247557829003601f168201915b50505050508152602001866001600160a01b03168152602001600480546124b890614c3e565b80601f01602080910402602001604051908101604052809291908181526020018280546124e490614c3e565b80156125315780601f1061250657610100808354040283529160200191612531565b820191906000526020600020905b81548152906001019060200180831161251457829003601f168201915b50505091835250506001602082015260055468010000000000000000810460070b6040830152600160a01b900460ff16151560608201526080810185905260a00183905290506000806116a283613c95565b600061114183836132b1565b60006116c6848484613d79565b6000610f6a8383613a06565b6000610f6a8383612c29565b6125bd8161317e565b506000610fb8826130af565b61125c8282613a55565b60408051600580825260c08201909252600091816020015b6125f3613f8c565b8152602001906001900390816125eb57905050905061262660006006600060405180602001604052806000815250612a95565b8160008151811061263957612639614c28565b60200260200101819052506126606001600060405180602001604052806000815250612acc565b8160018151811061267357612673614c28565b602002602001018190525061269a6002600060405180602001604052806000815250612acc565b816002815181106126ad576126ad614c28565b60200260200101819052506126d46004600060405180602001604052806000815250612acc565b816003815181106126e7576126e7614c28565b602002602001018190525061270e6003600060405180602001604052806000815250612acc565b8160048151811061272157612721614c28565b602002602001018190525060006040518060600160405280600060070b8152602001846001600160a01b03168152602001626acfc060070b815250905060006040518061012001604052806002805461277990614c3e565b80601f01602080910402602001604051908101604052809291908181526020018280546127a590614c3e565b80156127f25780601f106127c7576101008083540402835291602001916127f2565b820191906000526020600020905b8154815290600101906020018083116127d557829003601f168201915b505050505081526020016003805461280990614c3e565b80601f016020809104026020016040519081016040528092919081815260200182805461283590614c3e565b80156128825780601f1061285757610100808354040283529160200191612882565b820191906000526020600020905b81548152906001019060200180831161286557829003601f168201915b50505050508152602001856001600160a01b03168152602001600480546128a890614c3e565b80601f01602080910402602001604051908101604052809291908181526020018280546128d490614c3e565b80156129215780601f106128f657610100808354040283529160200191612921565b820191906000526020600020905b81548152906001019060200180831161290457829003601f168201915b50505091835250506001602082015260055468010000000000000000810460070b6040830152600160a01b900460ff16151560608201526080810185905260a001839052905060006129738683613dd0565b905061297e81612a85565b505050505050565b604080516001600160a01b0385811660248301528481166044830152831660648083019190915282518083039091018152608490910182526020810180516001600160e01b03167f927da10500000000000000000000000000000000000000000000000000000000179052905160009182918291829161016791612a0991614c79565b6000604051808303816000865af19150503d8060008114612a46576040519150601f19603f3d011682016040523d82523d6000602084013e612a4b565b606091505b509150915081612a5e5760156000612a72565b80806020019051810190612a729190614dc9565b60039190910b9890975095505050505050565b60168114612a9257600080fd5b50565b612a9d613f8c565b6040518060400160405280612ab28787613dfc565b8152602001612ac18585613e37565b905295945050505050565b612ad4613f8c565b6040518060400160405280612ae886613f4d565b8152602001612af78585613e37565b9052949350505050565b600080848061010001516000015160070b6000148015612b2b57506101008101516040015160070b155b15612b41576101008101516276a7006040909101525b6000806101676001600160a01b03163463abb54eb560e01b8a8a8a604051602401612b6e93929190615028565b60408051601f198184030181529181526020820180516001600160e01b03166001600160e01b0319909416939093179092529051612bac9190614c79565b60006040518083038185875af1925050503d8060008114612be9576040519150601f19603f3d011682016040523d82523d6000602084013e612bee565b606091505b509150915081612c015760156000612c15565b80806020019051810190612c1591906150df565b60039190910b999098509650505050505050565b6040516001600160a01b0383811660248301528216604482015260009081908190610167907f8f8d7f9900000000000000000000000000000000000000000000000000000000906064015b60408051601f198184030181529181526020820180516001600160e01b03166001600160e01b0319909416939093179092529051612cb29190614c79565b6000604051808303816000865af19150503d8060008114612cef576040519150601f19603f3d011682016040523d82523d6000602084013e612cf4565b606091505b509150915081612d05576015612d19565b80806020019051810190612d199190614ca7565b60030b95945050505050565b6040516001600160a01b0383811660248301528216604482015260009081908190610167907faf99c6330000000000000000000000000000000000000000000000000000000090606401612c74565b60008060606000806101676001600160a01b031663e0f4059a60e01b898989604051602401612da59392919061510b565b60408051601f198184030181529181526020820180516001600160e01b03166001600160e01b0319909416939093179092529051612de39190614c79565b6000604051808303816000865af19150503d8060008114612e20576040519150601f19603f3d011682016040523d82523d6000602084013e612e25565b606091505b509150915081612e48576040805160008082526020820190925260159190612e5c565b80806020019051810190612e5c9190615188565b60039290920b9a90995090975095505050505050565b6040516001600160a01b038216602482015260009081908190610167907ff069f71200000000000000000000000000000000000000000000000000000000906044015b60408051601f198184030181529181526020820180516001600160e01b03166001600160e01b0319909416939093179092529051612ef39190614c79565b6000604051808303816000865af19150503d8060008114612f30576040519150601f19603f3d011682016040523d82523d6000602084013e612f35565b606091505b509150915081612f46576015612f5a565b80806020019051810190612f5a9190614ca7565b60030b949350505050565b6040805160a081018252600080825260208083018290526060838501819052808401526080830182905283516001600160a01b03871660248201526044808201879052855180830390910181526064909101855290810180516001600160e01b03167f3c4dd32e000000000000000000000000000000000000000000000000000000001790529251909283918291610167916130019190614c79565b6000604051808303816000865af19150503d806000811461303e576040519150601f19603f3d011682016040523d82523d6000602084013e613043565b606091505b509150915061308e6040518060a0016040528060001515815260200160006001600160a01b03168152602001606081526020016060815260200160006001600160a01b031681525090565b8261309b57601581612a72565b81806020019051810190612a729190615298565b6040516001600160a01b038216602482015260009081908190610167907f3b3bff0f0000000000000000000000000000000000000000000000000000000090604401612eb5565b60008060006101676001600160a01b0316632c4ba19160e01b8888888860405160240161105794939291906153ac565b60008060006101676001600160a01b03166378b6391860e01b8686604051602401612c749291906153ff565b60008060006101676001600160a01b0316632e63879b60e01b8686604051602401612c749291906153ff565b6040516001600160a01b038216602482015260009081908190610167907f7c41ad2c0000000000000000000000000000000000000000000000000000000090604401612eb5565b604080516001600160a01b0385811660248301528481166044830152831660648083019190915282518083039091018152608490910182526020810180516001600160e01b03167ff49f40db0000000000000000000000000000000000000000000000000000000017905290516000918291829182916101679161324891614c79565b6000604051808303816000865af19150503d8060008114613285576040519150601f19603f3d011682016040523d82523d6000602084013e61328a565b606091505b50915091508161329d5760156000612a72565b80806020019051810190612a729190615421565b6040516001600160a01b0383811660248301528216604482015260009081908190610167907f49146bde0000000000000000000000000000000000000000000000000000000090606401612c74565b600080848061010001516000015160070b600014801561332a57506101008101516040015160070b155b15613340576101008101516276a7006040909101525b6000806101676001600160a01b031634630fb65bf360e01b8a8a8a604051602401612b6e9392919061544d565b60008060006101676001600160a01b031663f7f38e2660e01b87878760405160240161339b9392919061547c565b60408051601f198184030181529181526020820180516001600160e01b03166001600160e01b03199094169390931790925290516133d99190614c79565b6000604051808303816000865af19150503d8060008114613416576040519150601f19603f3d011682016040523d82523d6000602084013e61341b565b606091505b50915091508161342c576015613440565b808060200190518101906134409190614ca7565b60030b9695505050505050565b6040516001600160a01b038581166024830152848116604483015283166064820152600782900b608482015260009081908190610167907feca36917000000000000000000000000000000000000000000000000000000009060a401611057565b6040516001600160a01b03848116602483015283166044820152600782900b606482015260009081908190610167907fefef57f9000000000000000000000000000000000000000000000000000000009060840161339b565b6000806000806101676001600160a01b031663d6910d0660e01b888888604051602401613536939291906154b1565b60408051601f198184030181529181526020820180516001600160e01b03166001600160e01b03199094169390931790925290516135749190614c79565b6000604051808303816000865af19150503d80600081146135b1576040519150601f19603f3d011682016040523d82523d6000602084013e6135b6565b606091505b5091509150816135c95760156000612a72565b80806020019051810190612a7291906154dc565b604080516001600160a01b03831660248083019190915282518083039091018152604490910182526020810180516001600160e01b03167f19f373610000000000000000000000000000000000000000000000000000000017905290516000918291829182916101679161365091614c79565b6000604051808303816000865af19150503d806000811461368d576040519150601f19603f3d011682016040523d82523d6000602084013e613692565b606091505b5091509150816136a557601560006136b9565b808060200190518101906136b99190615421565b60039190910b969095509350505050565b60008060006101676001600160a01b0316636fc3cbaf60e01b8686604051602401612c74929190615508565b60008060006101676001600160a01b031663d27be6cd60e01b8686604051602401612c7492919061552a565b604080516060810182526000808252602080830182905282840182905283516001600160a01b038616602480830191909152855180830390910181526044909101855290810180516001600160e01b03167fd614cdb8000000000000000000000000000000000000000000000000000000001790529251909283918291610167916137ad9190614c79565b6000604051808303816000865af19150503d80600081146137ea576040519150601f19603f3d011682016040523d82523d6000602084013e6137ef565b606091505b50604080516060810182526000808252602082018190529181019190915291935091508261381f5760158161180a565b8180602001905181019061180a919061556d565b6040516001600160a01b038481166024830152831660448201526064810182905260009081908190610167907f7336aaf0000000000000000000000000000000000000000000000000000000009060840161339b565b600080868061010001516000015160070b60001480156138b357506101008101516040015160070b155b156138c9576101008101516276a7006040909101525b6000806101676001600160a01b031634632af0c59a60e01b8c8c8c8c8c6040516024016138fa9594939291906155e8565b60408051601f198184030181529181526020820180516001600160e01b03166001600160e01b03199094169390931790925290516139389190614c79565b60006040518083038185875af1925050503d8060008114613975576040519150601f19603f3d011682016040523d82523d6000602084013e61397a565b606091505b50915091508161398d57601560006139a1565b808060200190518101906139a191906150df565b60039190910b9b909a5098505050505050505050565b6040516001600160a01b0383811660248301528216604482015260009081908190610167907f5b8f85840000000000000000000000000000000000000000000000000000000090606401612c74565b6040516001600160a01b0383811660248301528216604482015260009081908190610167907f52f913870000000000000000000000000000000000000000000000000000000090606401612c74565b6040516001600160a01b0383811660248301528216604482015260009081908190610167907f099794e80000000000000000000000000000000000000000000000000000000090606401612c74565b60008060006101676001600160a01b0316630e71804f60e01b8686604051602401612c74929190615704565b60008060006101676001600160a01b03166382bba49360e01b87878760405160240161339b93929190615801565b604080516001600160a01b0384166024820152604480820184905282518083039091018152606490910182526020810180516001600160e01b03167f098f236600000000000000000000000000000000000000000000000000000000179052905160009182918291829161016791613b7591614c79565b6000604051808303816000865af19150503d8060008114613bb2576040519150601f19603f3d011682016040523d82523d6000602084013e613bb7565b606091505b509150915081613bca576015600061180a565b8080602001905181019061180a91906150df565b6040516001600160a01b038581166024830152848116604483015283166064820152600782900b608482015260009081908190610167907f5cfc9011000000000000000000000000000000000000000000000000000000009060a401611057565b6040516001600160a01b038481166024830152831660448201526064810182905260009081908190610167907fe1f21c67000000000000000000000000000000000000000000000000000000009060840161339b565b600080828061010001516000015160070b6000148015613cbf57506101008101516040015160070b155b15613cd5576101008101516276a7006040909101525b6000806101676001600160a01b03163463ea83f29360e01b88604051602401613cfe9190615835565b60408051601f198184030181529181526020820180516001600160e01b03166001600160e01b0319909416939093179092529051613d3c9190614c79565b60006040518083038185875af1925050503d8060008114613bb2576040519150601f19603f3d011682016040523d82523d6000602084013e613bb7565b6040516001600160a01b03848116602483015283166044820152811515606482015260009081908190610167907f367605ca000000000000000000000000000000000000000000000000000000009060840161339b565b60008060006101676001600160a01b0316637d305cfa60e01b8686604051602401612c74929190615848565b6000613e20836006811115613e1357613e1361586a565b600160ff9091161b821790565b9050610a0e826006811115613e1357613e1361586a565b613e7d6040518060a0016040528060001515815260200160006001600160a01b03168152602001606081526020016060815260200160006001600160a01b031681525090565b6000836004811115613e9157613e9161586a565b1415613ea05760018152610f4d565b6001836004811115613eb457613eb461586a565b1415613ed0576000546001600160a01b03166020820152610f4d565b6002836004811115613ee457613ee461586a565b1415613ef65760408101829052610f4d565b6003836004811115613f0a57613f0a61586a565b1415613f1c5760608101829052610f4d565b6004836004811115613f3057613f3061586a565b1415610f4d576000546001600160a01b0316608082015292915050565b600060016000836006811115613f6557613f6561586a565b6006811115613f7657613f7661586a565b8152602001908152602001600020549050919050565b604051806040016040528060008152602001613fe46040518060a0016040528060001515815260200160006001600160a01b03168152602001606081526020016060815260200160006001600160a01b031681525090565b905290565b6001600160a01b0381168114612a9257600080fd5b60008060006060848603121561401357600080fd5b833561401e81613fe9565b9250602084013561402e81613fe9565b9150604084013561403e81613fe9565b809150509250925092565b6000806040838503121561405c57600080fd5b823561406781613fe9565b9150602083013561407781613fe9565b809150509250929050565b8060070b8114612a9257600080fd5b634e487b7160e01b600052604160045260246000fd5b6040516060810167ffffffffffffffff811182821017156140ca576140ca614091565b60405290565b6040516020810167ffffffffffffffff811182821017156140ca576140ca614091565b6040516080810167ffffffffffffffff811182821017156140ca576140ca614091565b60405160a0810167ffffffffffffffff811182821017156140ca576140ca614091565b604051601f8201601f1916810167ffffffffffffffff8111828210171561416257614162614091565b604052919050565b600067ffffffffffffffff82111561418457614184614091565b5060051b60200190565b600067ffffffffffffffff8211156141a8576141a8614091565b50601f01601f191660200190565b600082601f8301126141c757600080fd5b81356141da6141d58261418e565b614139565b8181528460208386010111156141ef57600080fd5b816020850160208301376000918101602001919091529392505050565b60008060006060848603121561422157600080fd5b833561422c81613fe9565b925060208481013561423d81614082565b9250604085013567ffffffffffffffff8082111561425a57600080fd5b818701915087601f83011261426e57600080fd5b813561427c6141d58261416a565b81815260059190911b8301840190848101908a83111561429b57600080fd5b8585015b838110156142d3578035858111156142b75760008081fd5b6142c58d89838a01016141b6565b84525091860191860161429f565b508096505050505050509250925092565b600081518084526020808501945080840160005b8381101561431757815160070b875295820195908201906001016142f8565b509495945050505050565b8260070b815260406020820152600061122360408301846142e4565b60006020828403121561435057600080fd5b8135610a0e81613fe9565b6000806040838503121561436e57600080fd5b823561437981613fe9565b946020939093013593505050565b60005b838110156143a257818101518382015260200161438a565b838111156116d15750506000910152565b600081518084526143cb816020860160208601614387565b601f01601f19169290920160200192915050565b851515815260006001600160a01b03808716602084015260a0604084015261440a60a08401876143b3565b838103606085015261441c81876143b3565b9250508084166080840152509695505050505050565b6000806000806080858703121561444857600080fd5b843561445381613fe9565b9350602085013561446381613fe9565b9250604085013561447381613fe9565b9396929550929360600135925050565b600082601f83011261449457600080fd5b813560206144a46141d58361416a565b82815260059290921b840181019181810190868411156144c357600080fd5b8286015b848110156144e75780356144da81613fe9565b83529183019183016144c7565b509695505050505050565b600082601f83011261450357600080fd5b813560206145136141d58361416a565b82815260059290921b8401810191818101908684111561453257600080fd5b8286015b848110156144e757803561454981614082565b8352918301918301614536565b6000806000806080858703121561456c57600080fd5b843561457781613fe9565b9350602085013567ffffffffffffffff8082111561459457600080fd5b6145a088838901614483565b945060408701359150808211156145b657600080fd5b6145c288838901614483565b935060608701359150808211156145d857600080fd5b506145e5878288016144f2565b91505092959194509250565b6000806040838503121561460457600080fd5b823561460f81613fe9565b9150602083013567ffffffffffffffff81111561462b57600080fd5b61463785828601614483565b9150509250929050565b60006020828403121561465357600080fd5b5035919050565b60008060006060848603121561466f57600080fd5b833561467a81613fe9565b9250602084013561468a81613fe9565b9150604084013567ffffffffffffffff8111156146a657600080fd5b6146b2868287016144f2565b9150509250925092565b600080600080608085870312156146d257600080fd5b84356146dd81613fe9565b935060208501356146ed81613fe9565b925060408501356146fd81613fe9565b9150606085013561470d81614082565b939692955090935050565b60008060006060848603121561472d57600080fd5b833561473881613fe9565b9250602084013561474881613fe9565b9150604084013561403e81614082565b6000806040838503121561476b57600080fd5b823561477681613fe9565b9150602083013567ffffffffffffffff81111561479257600080fd5b614637858286016141b6565b82815260406020820152600061122360408301846143b3565b6000806000606084860312156147cc57600080fd5b83356147d781613fe9565b9250602084013561468a81614082565b6000806000606084860312156147fc57600080fd5b833561480781613fe9565b9250602084013561481781613fe9565b929592945050506040919091013590565b8015158114612a9257600080fd5b600082601f83011261484757600080fd5b813560206148576141d58361416a565b8281526060928302850182019282820191908785111561487657600080fd5b8387015b858110156148d85781818a0312156148925760008081fd5b61489a6140a7565b81356148a581613fe9565b8152818601356148b481614082565b818701526040828101356148c781614828565b90820152845292840192810161487a565b5090979650505050505050565b600080604083850312156148f857600080fd5b67ffffffffffffffff808435111561490f57600080fd5b6020843585018603121561492257600080fd5b61492a6140d0565b818535860135111561493b57600080fd5b61494b8686358701803501614836565b81529250602084013581101561496057600080fd5b6020840135840185601f82011261497657600080fd5b6149836141d5823561416a565b81358082526020808301929160051b8401018810156149a157600080fd5b602083015b6020843560051b850101811015614b215784813511156149c557600080fd5b803584016060818b03601f190112156149dd57600080fd5b6149e56140a7565b6149f26020830135613fe9565b602082013581528660408301351115614a0a57600080fd5b614a1d8b60206040850135850101614836565b60208201528660608301351115614a3357600080fd5b6060820135820191508a603f830112614a4b57600080fd5b614a5b6141d5602084013561416a565b602083810135808352908201919060071b84016040018d811115614a7e57600080fd5b6040850194505b80851015614b0b576080858f031215614a9d57600080fd5b614aa56140f3565b614aaf8635613fe9565b85358152614ac06020870135613fe9565b60208601356020820152614ad76040870135614082565b60408601356040820152614aee6060870135614828565b606086810135908201528352608090940193602090920191614a85565b50604083015250845250602092830192016149a6565b50809450505050509250929050565b600080600060608486031215614b4557600080fd5b8335614b5081613fe9565b9250602084013567ffffffffffffffff80821115614b6d57600080fd5b614b7987838801614483565b93506040860135915080821115614b8f57600080fd5b506146b2868287016144f2565b803563ffffffff81168114614bb057600080fd5b919050565b60008060408385031215614bc857600080fd5b614bd183614b9c565b9150614bdf60208401614b9c565b90509250929050565b600080600060608486031215614bfd57600080fd5b8335614c0881613fe9565b92506020840135614c1881613fe9565b9150604084013561403e81614828565b634e487b7160e01b600052603260045260246000fd5b600181811c90821680614c5257607f821691505b60208210811415614c7357634e487b7160e01b600052602260045260246000fd5b50919050565b60008251614c8b818460208701614387565b9190910192915050565b8051600381900b8114614bb057600080fd5b600060208284031215614cb957600080fd5b610a0e82614c95565b600060208284031215614cd457600080fd5b5051919050565b6001600160a01b038316815260406020820152600061122360408301846143b3565b821515815260406020820152600061122360408301846143b3565b600060208284031215614d2a57600080fd5b8151610a0e81614082565b634e487b7160e01b600052601160045260246000fd5b600063ffffffff83811690831681811015614d6857614d68614d35565b039392505050565b600063ffffffff80841680614d9557634e487b7160e01b600052601260045260246000fd5b92169190910692915050565b600063ffffffff808316818516808303821115614dc057614dc0614d35565b01949350505050565b60008060408385031215614ddc57600080fd5b614de583614c95565b9150602083015190509250929050565b600081518084526020808501808196508360051b8101915082860160005b85811015614eac5782840389528151604081518652868201519150808787015281511515818701528682015160606001600160a01b03808316828a015283850151935060a09250608083818b0152614e6e60e08b01866143b3565b928601518a8403603f1901858c0152929450614e8a85846143b3565b9501511660c09890980197909752505098850198935090840190600101614e13565b5091979650505050505050565b60006101608251818552614ecf828601826143b3565b91505060208301518482036020860152614ee982826143b3565b9150506040830151614f0660408601826001600160a01b03169052565b5060608301518482036060860152614f1e82826143b3565b9150506080830151614f34608086018215159052565b5060a0830151614f4960a086018260070b9052565b5060c0830151614f5d60c086018215159052565b5060e083015184820360e0860152614f758282614df5565b91505061010080840151614fb182870182805160070b82526001600160a01b036020820151166020830152604081015160070b60408301525050565b5090949350505050565b600081518084526020808501945080840160005b83811015614317578151805160070b8852838101516001600160a01b03908116858a01526040808301511515908a01526060808301511515908a0152608091820151169088015260a09096019590820190600101614fcf565b6000606080835261503b81840187614eb9565b60208482038186015261504e8288614fbb565b91506040858303818701528287518085528385019150838901945060005b818110156150cf5785518051600790810b855286820151810b8786015285820151900b85850152878101516001600160a01b039081168986015260808083015115159086015260a09182015116908401529484019460c09092019160010161506c565b50909a9950505050505050505050565b600080604083850312156150f257600080fd5b6150fb83614c95565b9150602083015161407781613fe9565b6000606082016001600160a01b038616835260208560070b818501526060604085015281855180845260808601915060808160051b870101935082870160005b8281101561517957607f198887030184526151678683516143b3565b9550928401929084019060010161514b565b50939998505050505050505050565b60008060006060848603121561519d57600080fd5b6151a684614c95565b92506020808501516151b781614082565b604086015190935067ffffffffffffffff8111156151d457600080fd5b8501601f810187136151e557600080fd5b80516151f36141d58261416a565b81815260059190911b8201830190838101908983111561521257600080fd5b928401925b8284101561523957835161522a81614082565b82529284019290840190615217565b80955050505050509250925092565b8051614bb081613fe9565b600082601f83011261526457600080fd5b81516152726141d58261418e565b81815284602083860101111561528757600080fd5b611223826020830160208701614387565b600080604083850312156152ab57600080fd5b6152b483614c95565b9150602083015167ffffffffffffffff808211156152d157600080fd5b9084019060a082870312156152e557600080fd5b6152ed614116565b82516152f881614828565b8152602083015161530881613fe9565b602082015260408301518281111561531f57600080fd5b61532b88828601615253565b60408301525060608301518281111561534357600080fd5b61534f88828601615253565b60608301525061536160808401615248565b60808201528093505050509250929050565b600081518084526020808501945080840160005b838110156143175781516001600160a01b031687529582019590820190600101615387565b6001600160a01b03851681526080602082015260006153ce6080830186615373565b82810360408401526153e08186615373565b905082810360608401526153f481856142e4565b979650505050505050565b6001600160a01b03831681526040602082015260006112236040830184615373565b6000806040838503121561543457600080fd5b61543d83614c95565b9150602083015161407781614828565b6060815260006154606060830186614eb9565b90508360070b60208301528260030b6040830152949350505050565b60006001600160a01b038086168352808516602084015250606060408301526154a860608301846142e4565b95945050505050565b6001600160a01b03841681528260070b60208201526060604082015260006154a860608301846142e4565b600080604083850312156154ef57600080fd5b6154f883614c95565b9150602083015161407781614082565b6001600160a01b03831681526040602082015260006112236040830184614df5565b6001600160a01b038316815260808101610a0e6020830184805160070b82526001600160a01b036020820151166020830152604081015160070b60408301525050565b600080828403608081121561558157600080fd5b61558a84614c95565b92506060601f198201121561559e57600080fd5b506155a76140a7565b60208401516155b581614082565b815260408401516155c581613fe9565b602082015260608401516155d881614082565b6040820152919491935090915050565b600060a08083526155fb81840189614eb9565b6020600789810b8287015260408960030b81880152606087850381890152615623858b614fbb565b94506080888603818a0152858a518088528688019150868c01975060005b8181101561569b5788518051880b845288810151880b8985015286810151880b8785015285810151880b86850152848101511515858501528a01516001600160a01b03168a8401529787019760c090920191600101615641565b50909f9e505050505050505050505050505050565b600081518084526020808501945080840160005b8381101561431757815180516001600160a01b031688528381015160070b84890152604090810151151590880152606090960195908201906001016156c4565b600060408083526060855160208084870152615722838701836156b0565b9150858203818701528187518084528284019150828160051b850101838a0160005b838110156157f057601f1987840301855281516001600160a01b03808251168552878201518a8987015261577a8b8701826156b0565b928c0151868403878e01528051808552908a0193600092508a01905b808310156157da5784518051851683528b81015185168c8401528e81015160070b8f8401528d015115158d830152938a019360019290920191608090910190615796565b5097890197955050509186019150600101615744565b50909b9a5050505050505050505050565b6001600160a01b03841681526060602082015260006158236060830185615373565b82810360408401526116af81856142e4565b602081526000610a0e6020830184614eb9565b6001600160a01b03831681526040602082015260006112236040830184614eb9565b634e487b7160e01b600052602160045260246000fdfea26469706673582212202f1ce7bad47ab819b122fc4684469af14404e6e387d9457a472c34f80a20a7e764736f6c63430008090033",
  "linkReferences": {},
  "deployedLinkReferences": {}
}