{
  "_format": "hh-sol-artifact-1",
  "contractName": "ERCTestContract",
  "sourceName": "contracts/ERCTestContract.sol",
  "abi": [
    {
      "inputs": [],
      "stateMutability": "payable",
      "type": "constructor"
    },
    {
      "anonymous": false,
      "inputs": [
        {
          "indexed": true,
          "internalType": "bytes32",
          "name": "key",
          "type": "bytes32"
        },
        {
          "indexed": false,
          "internalType": "bytes32",
          "name": "value",
          "type": "bytes32"
        }
      ],
      "name": "HookStorageUpdate",
      "type": "event"
    },
    {
      "inputs": [
        {
          "components": [
            {
              "internalType": "address",
              "name": "owner",
              "type": "address"
            },
            {
              "internalType": "uint256",
              "name": "txnFee",
              "type": "uint256"
            },
            {
              "internalType": "uint256",
              "name": "gasCost",
              "type": "uint256"
            },
            {
              "internalType": "string",
              "name": "memo",
              "type": "string"
            },
            {
              "internalType": "bytes",
              "name": "data",
              "type": "bytes"
            }
          ],
          "internalType": "struct IHieroHook.HookContext",
          "name": "context",
          "type": "tuple"
        },
        {
          "components": [
            {
              "components": [
                {
                  "components": [
                    {
                      "internalType": "address",
                      "name": "account",
                      "type": "address"
                    },
                    {
                      "internalType": "int64",
                      "name": "amount",
                      "type": "int64"
                    }
                  ],
                  "internalType": "struct IHieroAccountAllowanceHook.AccountAmount[]",
                  "name": "hbarAdjustments",
                  "type": "tuple[]"
                },
                {
                  "components": [
                    {
                      "internalType": "address",
                      "name": "token",
                      "type": "address"
                    },
                    {
                      "components": [
                        {
                          "internalType": "address",
                          "name": "account",
                          "type": "address"
                        },
                        {
                          "internalType": "int64",
                          "name": "amount",
                          "type": "int64"
                        }
                      ],
                      "internalType": "struct IHieroAccountAllowanceHook.AccountAmount[]",
                      "name": "adjustments",
                      "type": "tuple[]"
                    },
                    {
                      "components": [
                        {
                          "internalType": "address",
                          "name": "sender",
                          "type": "address"
                        },
                        {
                          "internalType": "address",
                          "name": "receiver",
                          "type": "address"
                        },
                        {
                          "internalType": "int64",
                          "name": "serialNo",
                          "type": "int64"
                        }
                      ],
                      "internalType": "struct IHieroAccountAllowanceHook.NftTransfer[]",
                      "name": "nftTransfers",
                      "type": "tuple[]"
                    }
                  ],
                  "internalType": "struct IHieroAccountAllowanceHook.TokenTransferList[]",
                  "name": "tokens",
                  "type": "tuple[]"
                }
              ],
              "internalType": "struct IHieroAccountAllowanceHook.Transfers",
              "name": "direct",
              "type": "tuple"
            },
            {
              "components": [
                {
                  "components": [
                    {
                      "internalType": "address",
                      "name": "account",
                      "type": "address"
                    },
                    {
                      "internalType": "int64",
                      "name": "amount",
                      "type": "int64"
                    }
                  ],
                  "internalType": "struct IHieroAccountAllowanceHook.AccountAmount[]",
                  "name": "hbarAdjustments",
                  "type": "tuple[]"
                },
                {
                  "components": [
                    {
                      "internalType": "address",
                      "name": "token",
                      "type": "address"
                    },
                    {
                      "components": [
                        {
                          "internalType": "address",
                          "name": "account",
                          "type": "address"
                        },
                        {
                          "internalType": "int64",
                          "name": "amount",
                          "type": "int64"
                        }
                      ],
                      "internalType": "struct IHieroAccountAllowanceHook.AccountAmount[]",
                      "name": "adjustments",
                      "type": "tuple[]"
                    },
                    {
                      "components": [
                        {
                          "internalType": "address",
                          "name": "sender",
                          "type": "address"
                        },
                        {
                          "internalType": "address",
                          "name": "receiver",
                          "type": "address"
                        },
                        {
                          "internalType": "int64",
                          "name": "serialNo",
                          "type": "int64"
                        }
                      ],
                      "internalType": "struct IHieroAccountAllowanceHook.NftTransfer[]",
                      "name": "nftTransfers",
                      "type": "tuple[]"
                    }
                  ],
                  "internalType": "struct IHieroAccountAllowanceHook.TokenTransferList[]",
                  "name": "tokens",
                  "type": "tuple[]"
                }
              ],
              "internalType": "struct IHieroAccountAllowanceHook.Transfers",
              "name": "customFee",
              "type": "tuple"
            }
          ],
          "internalType": "struct IHieroAccountAllowanceHook.ProposedTransfers",
          "name": "",
          "type": "tuple"
        }
      ],
      "name": "allow",
      "outputs": [
        {
          "internalType": "bool",
          "name": "",
          "type": "bool"
        }
      ],
      "stateMutability": "payable",
      "type": "function"
    },
    {
      "inputs": [
        {
          "internalType": "address",
          "name": "token",
          "type": "address"
        },
        {
          "internalType": "address",
          "name": "owner",
          "type": "address"
        },
        {
          "internalType": "address",
          "name": "spender",
          "type": "address"
        }
      ],
      "name": "allowance",
      "outputs": [
        {
          "internalType": "uint256",
          "name": "",
          "type": "uint256"
        }
      ],
      "stateMutability": "view",
      "type": "function"
    },
    {
      "inputs": [
        {
          "internalType": "address",
          "name": "token",
          "type": "address"
        },
        {
          "internalType": "address",
          "name": "spender",
          "type": "address"
        },
        {
          "internalType": "uint256",
          "name": "amount",
          "type": "uint256"
        }
      ],
      "name": "approve",
      "outputs": [
        {
          "internalType": "bool",
          "name": "",
          "type": "bool"
        }
      ],
      "stateMutability": "nonpayable",
      "type": "function"
    },
    {
      "inputs": [
        {
          "internalType": "address",
          "name": "token",
          "type": "address"
        },
        {
          "internalType": "address",
          "name": "account",
          "type": "address"
        }
      ],
      "name": "balanceOf",
      "outputs": [
        {
          "internalType": "uint256",
          "name": "",
          "type": "uint256"
        }
      ],
      "stateMutability": "view",
      "type": "function"
    },
    {
      "inputs": [
        {
          "internalType": "address",
          "name": "token",
          "type": "address"
        },
        {
          "internalType": "address",
          "name": "account",
          "type": "address"
        }
      ],
      "name": "balanceOfIERC721",
      "outputs": [
        {
          "internalType": "uint256",
          "name": "",
          "type": "uint256"
        }
      ],
      "stateMutability": "view",
      "type": "function"
    },
    {
      "inputs": [
        {
          "internalType": "address",
          "name": "token",
          "type": "address"
        }
      ],
      "name": "decimals",
      "outputs": [
        {
          "internalType": "uint8",
          "name": "",
          "type": "uint8"
        }
      ],
      "stateMutability": "view",
      "type": "function"
    },
    {
      "inputs": [
        {
          "internalType": "address",
          "name": "token",
          "type": "address"
        },
        {
          "internalType": "uint256",
          "name": "tokenId",
          "type": "uint256"
        }
      ],
      "name": "getApproved",
      "outputs": [
        {
          "internalType": "address",
          "name": "",
          "type": "address"
        }
      ],
      "stateMutability": "view",
      "type": "function"
    },
    {
      "inputs": [
        {
          "internalType": "address",
          "name": "token",
          "type": "address"
        },
        {
          "internalType": "uint256",
          "name": "serialNo",
          "type": "uint256"
        }
      ],
      "name": "getOwnerOf",
      "outputs": [
        {
          "internalType": "address",
          "name": "",
          "type": "address"
        }
      ],
      "stateMutability": "view",
      "type": "function"
    },
    {
      "inputs": [
        {
          "internalType": "bytes32",
          "name": "key",
          "type": "bytes32"
        }
      ],
      "name": "getStorage",
      "outputs": [
        {
          "internalType": "bytes32",
          "name": "",
          "type": "bytes32"
        }
      ],
      "stateMutability": "view",
      "type": "function"
    },
    {
      "inputs": [
        {
          "internalType": "bytes32",
          "name": "",
          "type": "bytes32"
        }
      ],
      "name": "hookStorage",
      "outputs": [
        {
          "internalType": "bytes32",
          "name": "",
          "type": "bytes32"
        }
      ],
      "stateMutability": "view",
      "type": "function"
    },
    {
      "inputs": [
        {
          "internalType": "address",
          "name": "token",
          "type": "address"
        },
        {
          "internalType": "address",
          "name": "owner",
          "type": "address"
        },
        {
          "internalType": "address",
          "name": "operator",
          "type": "address"
        }
      ],
      "name": "isApprovedForAll",
      "outputs": [
        {
          "internalType": "bool",
          "name": "",
          "type": "bool"
        }
      ],
      "stateMutability": "view",
      "type": "function"
    },
    {
      "inputs": [
        {
          "internalType": "address",
          "name": "token",
          "type": "address"
        }
      ],
      "name": "name",
      "outputs": [
        {
          "internalType": "string",
          "name": "",
          "type": "string"
        }
      ],
      "stateMutability": "view",
      "type": "function"
    },
    {
      "inputs": [
        {
          "internalType": "address",
          "name": "token",
          "type": "address"
        }
      ],
      "name": "nameIERC721",
      "outputs": [
        {
          "internalType": "string",
          "name": "",
          "type": "string"
        }
      ],
      "stateMutability": "view",
      "type": "function"
    },
    {
      "inputs": [
        {
          "internalType": "bytes32",
          "name": "key",
          "type": "bytes32"
        }
      ],
      "name": "removeStorage",
      "outputs": [],
      "stateMutability": "nonpayable",
      "type": "function"
    },
    {
      "inputs": [
        {
          "internalType": "bytes32",
          "name": "key",
          "type": "bytes32"
        },
        {
          "internalType": "bytes32",
          "name": "value",
          "type": "bytes32"
        }
      ],
      "name": "setStorage",
      "outputs": [],
      "stateMutability": "nonpayable",
      "type": "function"
    },
    {
      "inputs": [
        {
          "internalType": "address",
          "name": "token",
          "type": "address"
        }
      ],
      "name": "symbol",
      "outputs": [
        {
          "internalType": "string",
          "name": "",
          "type": "string"
        }
      ],
      "stateMutability": "view",
      "type": "function"
    },
    {
      "inputs": [
        {
          "internalType": "address",
          "name": "token",
          "type": "address"
        }
      ],
      "name": "symbolIERC721",
      "outputs": [
        {
          "internalType": "string",
          "name": "",
          "type": "string"
        }
      ],
      "stateMutability": "view",
      "type": "function"
    },
    {
      "inputs": [
        {
          "internalType": "address",
          "name": "token",
          "type": "address"
        },
        {
          "internalType": "uint256",
          "name": "tokenId",
          "type": "uint256"
        }
      ],
      "name": "tokenURI",
      "outputs": [
        {
          "internalType": "string",
          "name": "",
          "type": "string"
        }
      ],
      "stateMutability": "view",
      "type": "function"
    },
    {
      "inputs": [
        {
          "internalType": "address",
          "name": "token",
          "type": "address"
        }
      ],
      "name": "totalSupply",
      "outputs": [
        {
          "internalType": "uint256",
          "name": "",
          "type": "uint256"
        }
      ],
      "stateMutability": "view",
      "type": "function"
    },
    {
      "inputs": [
        {
          "internalType": "address",
          "name": "token",
          "type": "address"
        }
      ],
      "name": "totalSupplyIERC721",
      "outputs": [
        {
          "internalType": "uint256",
          "name": "",
          "type": "uint256"
        }
      ],
      "stateMutability": "view",
      "type": "function"
    },
    {
      "inputs": [
        {
          "internalType": "address",
          "name": "token",
          "type": "address"
        },
        {
          "internalType": "address",
          "name": "to",
          "type": "address"
        },
        {
          "internalType": "uint256",
          "name": "amount",
          "type": "uint256"
        }
      ],
      "name": "transfer",
      "outputs": [
        {
          "internalType": "bool",
          "name": "",
          "type": "bool"
        }
      ],
      "stateMutability": "nonpayable",
      "type": "function"
    },
    {
      "inputs": [
        {
          "internalType": "address",
          "name": "token",
          "type": "address"
        },
        {
          "internalType": "address",
          "name": "from",
          "type": "address"
        },
        {
          "internalType": "address",
          "name": "to",
          "type": "address"
        },
        {
          "internalType": "uint256",
          "name": "amount",
          "type": "uint256"
        }
      ],
      "name": "transferFrom",
      "outputs": [
        {
          "internalType": "bool",
          "name": "",
          "type": "bool"
        }
      ],
      "stateMutability": "nonpayable",
      "type": "function"
    }
  ],
  "bytecode": "0x608060405261138f806100136000396000f3fe6080604052600436106101755760003560e01c8063bc9b574f116100cb578063e1f21c671161007f578063f49f40db11610059578063f49f40db14610407578063f6b486b7146102e8578063f7888aec146101b057600080fd5b8063e1f21c67146103c7578063e4dc2aa414610259578063e9dc6375146103e757600080fd5b8063cf0a908f116100b0578063cf0a908f14610355578063d449a83214610375578063d5d03e21146103a757600080fd5b8063bc9b574f14610308578063beabacc81461033557600080fd5b80633cd9a3ab1161012d5780639b0b0fda116101075780639b0b0fda146102c6578063a86e3576146102e8578063b1ec803c1461017a57600080fd5b80633cd9a3ab146102595780634ba664e714610279578063927da105146102a657600080fd5b8063098f23661161015e578063098f2366146101de578063124d8b301461021657806315dacbea1461023957600080fd5b8063019848921461017a578063063c7dcf146101b0575b600080fd5b34801561018657600080fd5b5061019a610195366004610c08565b610427565b6040516101a79190610c55565b60405180910390f35b3480156101bc57600080fd5b506101d06101cb366004610c88565b6104a4565b6040519081526020016101a7565b3480156101ea57600080fd5b506101fe6101f9366004610cc1565b610541565b6040516001600160a01b0390911681526020016101a7565b610229610224366004611072565b6105d6565b60405190151581526020016101a7565b34801561024557600080fd5b50610229610254366004611132565b61069d565b34801561026557600080fd5b506101d0610274366004610c08565b61074d565b34801561028557600080fd5b506101d0610294366004611183565b60009081526020819052604090205490565b3480156102b257600080fd5b506101d06102c136600461119c565b6107c0565b3480156102d257600080fd5b506102e66102e13660046111e7565b610866565b005b3480156102f457600080fd5b5061019a610303366004610c08565b6108af565b34801561031457600080fd5b506101d0610323366004611183565b60006020819052908152604090205481565b34801561034157600080fd5b50610229610350366004611209565b6108ea565b34801561036157600080fd5b506102e6610370366004611183565b61098a565b34801561038157600080fd5b50610395610390366004610c08565b6109d0565b60405160ff90911681526020016101a7565b3480156103b357600080fd5b506101fe6103c2366004610cc1565b610a43565b3480156103d357600080fd5b506102296103e2366004611209565b610a8c565b3480156103f357600080fd5b5061019a610402366004610cc1565b610ade565b34801561041357600080fd5b5061022961042236600461119c565b610b76565b6060816001600160a01b03166306fdde036040518163ffffffff1660e01b815260040160006040518083038186803b15801561046257600080fd5b505afa158015610476573d6000803e3d6000fd5b505050506040513d6000823e601f3d908101601f1916820160405261049e919081019061124a565b92915050565b6040517f70a082310000000000000000000000000000000000000000000000000000000081526001600160a01b038281166004830152600091908416906370a082319060240160206040518083038186803b15801561050257600080fd5b505afa158015610516573d6000803e3d6000fd5b505050506040513d601f19601f8201168201806040525081019061053a91906112de565b9392505050565b6040517f081812fc000000000000000000000000000000000000000000000000000000008152600481018290526000906001600160a01b0384169063081812fc906024015b60206040518083038186803b15801561059e57600080fd5b505afa1580156105b2573d6000803e3d6000fd5b505050506040513d601f19601f8201168201806040525081019061053a91906112f7565b6000806105e66020850185610c08565b60405160200161063491907f686f6f6b5f65786563757465645f000000000000000000000000000000000000815260609190911b6bffffffffffffffffffffffff1916600e82015260220190565b60408051808303601f1901815282825280516020918201206000818152808352929092204290819055808452919350909183917f93756886deb758422e6c04d0efd298e3de81ebb4c8090652568d417cbb05a8b4910160405180910390a2506001949350505050565b6040517f23b872dd0000000000000000000000000000000000000000000000000000000081526001600160a01b038481166004830152838116602483015260448201839052600091908616906323b872dd90606401602060405180830381600087803b15801561070c57600080fd5b505af1158015610720573d6000803e3d6000fd5b505050506040513d601f19601f820116820180604052508101906107449190611314565b95945050505050565b6000816001600160a01b03166318160ddd6040518163ffffffff1660e01b815260040160206040518083038186803b15801561078857600080fd5b505afa15801561079c573d6000803e3d6000fd5b505050506040513d601f19601f8201168201806040525081019061049e91906112de565b6040517fdd62ed3e0000000000000000000000000000000000000000000000000000000081526001600160a01b03838116600483015282811660248301526000919085169063dd62ed3e9060440160206040518083038186803b15801561082657600080fd5b505afa15801561083a573d6000803e3d6000fd5b505050506040513d601f19601f8201168201806040525081019061085e91906112de565b949350505050565b60008281526020818152604091829020839055905182815283917f93756886deb758422e6c04d0efd298e3de81ebb4c8090652568d417cbb05a8b4910160405180910390a25050565b6060816001600160a01b03166395d89b416040518163ffffffff1660e01b815260040160006040518083038186803b15801561046257600080fd5b6040517fa9059cbb0000000000000000000000000000000000000000000000000000000081526001600160a01b038381166004830152602482018390526000919085169063a9059cbb906044015b602060405180830381600087803b15801561095257600080fd5b505af1158015610966573d6000803e3d6000fd5b505050506040513d601f19601f8201168201806040525081019061085e9190611314565b6000818152602081815260408083208390555191825282917f93756886deb758422e6c04d0efd298e3de81ebb4c8090652568d417cbb05a8b4910160405180910390a250565b6000816001600160a01b031663313ce5676040518163ffffffff1660e01b815260040160206040518083038186803b158015610a0b57600080fd5b505afa158015610a1f573d6000803e3d6000fd5b505050506040513d601f19601f8201168201806040525081019061049e9190611336565b6040517f6352211e000000000000000000000000000000000000000000000000000000008152600481018290526000906001600160a01b03841690636352211e90602401610586565b6040517f095ea7b30000000000000000000000000000000000000000000000000000000081526001600160a01b038381166004830152602482018390526000919085169063095ea7b390604401610938565b6040517fc87b56dd000000000000000000000000000000000000000000000000000000008152600481018290526060906001600160a01b0384169063c87b56dd9060240160006040518083038186803b158015610b3a57600080fd5b505afa158015610b4e573d6000803e3d6000fd5b505050506040513d6000823e601f3d908101601f1916820160405261053a919081019061124a565b6040517fe985e9c50000000000000000000000000000000000000000000000000000000081526001600160a01b03838116600483015282811660248301526000919085169063e985e9c59060440160206040518083038186803b158015610bdc57600080fd5b505afa158015610966573d6000803e3d6000fd5b6001600160a01b0381168114610c0557600080fd5b50565b600060208284031215610c1a57600080fd5b813561053a81610bf0565b60005b83811015610c40578181015183820152602001610c28565b83811115610c4f576000848401525b50505050565b6020815260008251806020840152610c74816040850160208701610c25565b601f01601f19169190910160400192915050565b60008060408385031215610c9b57600080fd5b8235610ca681610bf0565b91506020830135610cb681610bf0565b809150509250929050565b60008060408385031215610cd457600080fd5b8235610cdf81610bf0565b946020939093013593505050565b7f4e487b7100000000000000000000000000000000000000000000000000000000600052604160045260246000fd5b6040805190810167ffffffffffffffff81118282101715610d3f57610d3f610ced565b60405290565b6040516060810167ffffffffffffffff81118282101715610d3f57610d3f610ced565b604051601f8201601f1916810167ffffffffffffffff81118282101715610d9157610d91610ced565b604052919050565b600067ffffffffffffffff821115610db357610db3610ced565b5060051b60200190565b8035600781900b8114610dcf57600080fd5b919050565b600082601f830112610de557600080fd5b81356020610dfa610df583610d99565b610d68565b82815260069290921b84018101918181019086841115610e1957600080fd5b8286015b84811015610e685760408189031215610e365760008081fd5b610e3e610d1c565b8135610e4981610bf0565b8152610e56828601610dbd565b81860152835291830191604001610e1d565b509695505050505050565b600060408284031215610e8557600080fd5b610e8d610d1c565b905067ffffffffffffffff8083351115610ea657600080fd5b610eb38484358501610dd4565b82528060208401351115610ec657600080fd5b6020830135830184601f820112610edc57600080fd5b610ee9610df58235610d99565b81358082526020808301929160051b84010187811115610f0857600080fd5b602084015b81811015611061578581351115610f2357600080fd5b803585016060818b03601f19011215610f3b57600080fd5b610f43610d45565b610f506020830135610bf0565b602082013581528760408301351115610f6857600080fd5b610f7b8b60206040850135850101610dd4565b60208201528760608301351115610f9157600080fd5b6060820135820191508a603f830112610fa957600080fd5b6020820135610fba610df582610d99565b818152606090910283016040019060208101908d831115610fda57600080fd5b6040850194505b8285101561104b576060858f031215610ff957600080fd5b611001610d45565b61100b8635610bf0565b8535815261101c6020870135610bf0565b6020860135602082015261103260408701610dbd565b6040820152825260609490940193602090910190610fe1565b6040840152505085525060209384019301610f0d565b505060208501525091949350505050565b6000806040838503121561108557600080fd5b823567ffffffffffffffff8082111561109d57600080fd5b9084019060a082870312156110b157600080fd5b909250602084013590808211156110c757600080fd5b90840190604082870312156110db57600080fd5b6110e3610d1c565b8235828111156110f257600080fd5b6110fe88828601610e73565b82525060208301358281111561111357600080fd5b61111f88828601610e73565b6020830152508093505050509250929050565b6000806000806080858703121561114857600080fd5b843561115381610bf0565b9350602085013561116381610bf0565b9250604085013561117381610bf0565b9396929550929360600135925050565b60006020828403121561119557600080fd5b5035919050565b6000806000606084860312156111b157600080fd5b83356111bc81610bf0565b925060208401356111cc81610bf0565b915060408401356111dc81610bf0565b809150509250925092565b600080604083850312156111fa57600080fd5b50508035926020909101359150565b60008060006060848603121561121e57600080fd5b833561122981610bf0565b9250602084013561123981610bf0565b929592945050506040919091013590565b60006020828403121561125c57600080fd5b815167ffffffffffffffff8082111561127457600080fd5b818401915084601f83011261128857600080fd5b81518181111561129a5761129a610ced565b6112ad601f8201601f1916602001610d68565b91508082528560208285010111156112c457600080fd5b6112d5816020840160208601610c25565b50949350505050565b6000602082840312156112f057600080fd5b5051919050565b60006020828403121561130957600080fd5b815161053a81610bf0565b60006020828403121561132657600080fd5b8151801515811461053a57600080fd5b60006020828403121561134857600080fd5b815160ff8116811461053a57600080fdfea26469706673582212204e1318c965828665dff84e5fd67d9219191adc0e89aabb411d9b7c5c831aa0c864736f6c63430008090033",
  "linkReferences": {},
  "deployedLinkReferences": {}
}