{
  "_format": "hh-sol-artifact-1",
  "contractName": "SlotContract",
  "sourceName": "contracts/SlotContract.sol",
  "abi": [
    {
      "inputs": [],
      "stateMutability": "nonpayable",
      "type": "constructor"
    },
    {
      "inputs": [],
      "name": "HALF_SLOT_COUNT",
      "outputs": [
        {
          "internalType": "uint256",
          "name": "",
          "type": "uint256"
        }
      ],
      "stateMutability": "view",
      "type": "function"
    },
    {
      "inputs": [],
      "name": "SLOT_COUNT",
      "outputs": [
        {
          "internalType": "uint256",
          "name": "",
          "type": "uint256"
        }
      ],
      "stateMutability": "view",
      "type": "function"
    },
    {
      "inputs": [
        {
          "internalType": "uint256",
          "name": "",
          "type": "uint256"
        }
      ],
      "name": "data",
      "outputs": [
        {
          "internalType": "uint256",
          "name": "",
          "type": "uint256"
        }
      ],
      "stateMutability": "view",
      "type": "function"
    },
    {
      "inputs": [],
      "name": "readFirstHalf",
      "outputs": [
        {
          "internalType": "uint256",
          "name": "slotsRead",
          "type": "uint256"
        }
      ],
      "stateMutability": "view",
      "type": "function"
    },
    {
      "inputs": [],
      "name": "readSecondHalf",
      "outputs": [
        {
          "internalType": "uint256",
          "name": "slotsRead",
          "type": "uint256"
        }
      ],
      "stateMutability": "view",
      "type": "function"
    }
  ],
  "bytecode": "0x608060405234801561001057600080fd5b5060005b6102588110156100545760018161002b9190610093565b60008083815260200190815260200160002081905550808061004c906100c7565b915050610014565b5061010f565b6000819050919050565b7f4e487b7100000000000000000000000000000000000000000000000000000000600052601160045260246000fd5b600061009e8261005a565b91506100a98361005a565b92508282019050808211156100c1576100c0610064565b5b92915050565b60006100d28261005a565b91507fffffffffffffffffffffffffffffffffffffffffffffffffffffffffffffffff820361010457610103610064565b5b600182019050919050565b6103948061011e6000396000f3fe608060405234801561001057600080fd5b50600436106100575760003560e01c80631191344a1461005c5780632ef8bbe71461007a5780634d283b8b146100985780634e37070b146100b6578063f0ba8440146100d4575b600080fd5b610064610104565b604051610071919061020e565b60405180910390f35b610082610167565b60405161008f919061020e565b60405180910390f35b6100a06101c5565b6040516100ad919061020e565b60405180910390f35b6100be6101d7565b6040516100cb919061020e565b60405180910390f35b6100ee60048036038101906100e9919061025a565b6101dd565b6040516100fb919061020e565b60405180910390f35b600080600090506000600261025861011c91906102e5565b90505b61025881101561015157600080828152602001908152602001600020549150808061014990610316565b91505061011f565b50600261025861016191906102e5565b91505090565b6000806000905060005b600261025861018091906102e5565b8110156101af5760008082815260200190815260200160002054915080806101a790610316565b915050610171565b5060026102586101bf91906102e5565b91505090565b60026102586101d491906102e5565b81565b61025881565b60006020528060005260406000206000915090505481565b6000819050919050565b610208816101f5565b82525050565b600060208201905061022360008301846101ff565b92915050565b600080fd5b610237816101f5565b811461024257600080fd5b50565b6000813590506102548161022e565b92915050565b6000602082840312156102705761026f610229565b5b600061027e84828501610245565b91505092915050565b7f4e487b7100000000000000000000000000000000000000000000000000000000600052601260045260246000fd5b7f4e487b7100000000000000000000000000000000000000000000000000000000600052601160045260246000fd5b60006102f0826101f5565b91506102fb836101f5565b92508261030b5761030a610287565b5b828204905092915050565b6000610321826101f5565b91507fffffffffffffffffffffffffffffffffffffffffffffffffffffffffffffffff8203610353576103526102b6565b5b60018201905091905056fea26469706673582212207e3fa19038dd0feeca60aeae79790aa6de50f48d040d855b46868373613c0e6164736f6c63430008120033",
  "linkReferences": {},
  "deployedLinkReferences": {}
}