{
  "_format": "hh-sol-artifact-1",
  "contractName": "SlotContractCaller",
  "sourceName": "contracts/SlotContractCaller.sol",
  "abi": [
    {
      "inputs": [
        {
          "internalType": "address",
          "name": "_slotContract",
          "type": "address"
        }
      ],
      "stateMutability": "nonpayable",
      "type": "constructor"
    },
    {
      "inputs": [],
      "name": "heavyReadBothHalves",
      "outputs": [
        {
          "internalType": "uint256",
          "name": "totalSlotsRead",
          "type": "uint256"
        }
      ],
      "stateMutability": "view",
      "type": "function"
    },
    {
      "inputs": [],
      "name": "slotContract",
      "outputs": [
        {
          "internalType": "contract ISlotContract",
          "name": "",
          "type": "address"
        }
      ],
      "stateMutability": "view",
      "type": "function"
    }
  ],
  "bytecode": "0x608060405234801561001057600080fd5b506040516106313803806106318339818101604052810190610032919061014a565b600073ffffffffffffffffffffffffffffffffffffffff168173ffffffffffffffffffffffffffffffffffffffff16036100a1576040517f08c379a0000000000000000000000000000000000000000000000000000000008152600401610098906101d4565b60405180910390fd5b806000806101000a81548173ffffffffffffffffffffffffffffffffffffffff021916908373ffffffffffffffffffffffffffffffffffffffff160217905550506101f4565b600080fd5b600073ffffffffffffffffffffffffffffffffffffffff82169050919050565b6000610117826100ec565b9050919050565b6101278161010c565b811461013257600080fd5b50565b6000815190506101448161011e565b92915050565b6000602082840312156101605761015f6100e7565b5b600061016e84828501610135565b91505092915050565b600082825260208201905092915050565b7f496e76616c696420536c6f74436f6e7472616374206164647265737300000000600082015250565b60006101be601c83610177565b91506101c982610188565b602082019050919050565b600060208201905081810360008301526101ed816101b1565b9050919050565b61042e806102036000396000f3fe608060405234801561001057600080fd5b50600436106100365760003560e01c806316052ef21461003b578063523adad614610059575b600080fd5b610043610077565b60405161005091906102a0565b60405180910390f35b61006161009b565b60405161006e91906102d4565b60405180910390f35b60008054906101000a900473ffffffffffffffffffffffffffffffffffffffff1681565b6000806000905060005b600581101561015d5760008054906101000a900473ffffffffffffffffffffffffffffffffffffffff1673ffffffffffffffffffffffffffffffffffffffff16632ef8bbe76040518163ffffffff1660e01b8152600401602060405180830381865afa158015610119573d6000803e3d6000fd5b505050506040513d601f19601f8201168201806040525081019061013d9190610320565b82610148919061037c565b91508080610155906103b0565b9150506100a5565b5060005b60058110156102195760008054906101000a900473ffffffffffffffffffffffffffffffffffffffff1673ffffffffffffffffffffffffffffffffffffffff16631191344a6040518163ffffffff1660e01b8152600401602060405180830381865afa1580156101d5573d6000803e3d6000fd5b505050506040513d601f19601f820116820180604052508101906101f99190610320565b82610204919061037c565b91508080610211906103b0565b915050610161565b508091505090565b600073ffffffffffffffffffffffffffffffffffffffff82169050919050565b6000819050919050565b600061026661026161025c84610221565b610241565b610221565b9050919050565b60006102788261024b565b9050919050565b600061028a8261026d565b9050919050565b61029a8161027f565b82525050565b60006020820190506102b56000830184610291565b92915050565b6000819050919050565b6102ce816102bb565b82525050565b60006020820190506102e960008301846102c5565b92915050565b600080fd5b6102fd816102bb565b811461030857600080fd5b50565b60008151905061031a816102f4565b92915050565b600060208284031215610336576103356102ef565b5b60006103448482850161030b565b91505092915050565b7f4e487b7100000000000000000000000000000000000000000000000000000000600052601160045260246000fd5b6000610387826102bb565b9150610392836102bb565b92508282019050808211156103aa576103a961034d565b5b92915050565b60006103bb826102bb565b91507fffffffffffffffffffffffffffffffffffffffffffffffffffffffffffffffff82036103ed576103ec61034d565b5b60018201905091905056fea26469706673582212207ec88a8242003946da959a7e52412318434f962a56b409aeb8d5e59e4f4a56e164736f6c63430008120033",
  "linkReferences": {},
  "deployedLinkReferences": {}
}